:1000000041C1000070C100006EC100006CC1000061
:100010006AC1000068C1000066C1000064C1000040
:1000200062C1000060C100005EC100005CC1000050
:100030005AC1000058C1000056C1000054C1000060
:1000400052C1000050C100004EC100004CC1000070
:100050004AC1000048C1000046C100005CC6000063
:1000600042C100009AC500006FC500003CC10000FD
:100070003AC1000038C1000036C1000034C10000A0
:1000800032C1000030C100002EC100002CC10000B0
:1000900025C50000FAC4000026C1000086C6000085
:1000A00022C1000020C100001EC100001CC10000D0
:1000B0001AC1000018C1000016C1000014C10000E0
:1000C00012C1000010C100000EC100000CC10000F0
:1000D0000AC1000008C1000006C1000004C1000000
:1000E00002C100001E062106100614061A06580654
:1000F000250629062F06330637063D064106450626
:1001000058064B064F0653064E414E494E49545928
:10011000494E46CDCCCC3D0AD7233C17B7D13877D2
:10012000CC2B329595E6241FB14F0A0000204100E8
:1001300000C84200401C4620BCBE4CCA1B0E5AAE32
:10014000C59D74000020002300260029002C002FEC
:100150000032000001000003010601090100002136
:1001600000240027002A002D003000330001010088
:1001700000040107010A013C55543E003C433E0087
:100180003C503E003C433E003C4D453E003C453E1D
:10019000003C52523E0000002200250028002B00A7
:1001A0002E003100340002010000050108010B019E
:1001B00005050505070508080808020202020A0AE3
:1001C0000808040404040101010101010101030301
:1001D000030303030303040707070C0C0C0C0C0CAC
:1001E0000C0C0202020206060606060606060B0BA9
:1001F0000B0B0B0B0B0B01021020200808102040EA
:1002000010204080020102010804020101020408DA
:100210001020408080402010080402018004020168
:1002200080402010080402010804020101020408B1
:1002300010204080010204081020408000000A0BBA
:1002400002090C0D0E080703040100000000000065
:10025000000000000000000000000000000000009E
:10026000000000000000000012111000000000005B
:10027000000000000000000000000000000000007E
:100280000000AA0C11241FBECFEFD1E2DEBFCDBF0C
:1002900000E00CBF25E0A2EAB2E001C01D92A43943
:1002A000B207E1F712E0A0E0B2E0EEEBFAE200E024
:1002B0000BBF02C007900D92A23AB107D9F711E027
:1002C000C2E4D1E000E006C021970109802FFE01C1
:1002D0000E944D10C134D10780E00807A9F70E94A1
:1002E000D5090C945D158CCE089508950895FC01F0
:1002F000538D448D252F30E0842F90E0821B930B8B
:10030000541710F0CF96089501970895FC01918D30
:10031000828D981761F0828DDF01A80FB11D5D9667
:100320008C91928D9F5F9F73928F90E008958FEFD5
:100330009FEF0895FC01918D828D981731F0828D89
:10034000E80FF11D858D90E008958FEF9FEF0895E0
:10035000FC01918D228D892F90E0805C9F4F821B44
:1003600091098F739927089580EE93E0F1DF21E0E2
:10037000892B09F420E0822F08958DE794E0E8DFCF
:1003800021E0892B09F420E0822F0895FC01848D5F
:10039000DF01A80FB11DA35ABF4F2C91848D90E0AF
:1003A00001968F739927848FA689B7892C93A0898A
:1003B000B1898C91837080648C93938D848D981314
:1003C00006C00288F389E02D80818F7D80830895A7
:1003D000EF92FF920F931F93CF93DF93EC0181E095
:1003E000888F9B8D8C8D981305C0E889F989808151
:1003F00085FD25C0F62E0B8D10E00F5F1F4F0F738C
:100400001127E02E8C8DE8120BC00FB607FCFACF37
:10041000E889F989808185FFF5CFCE01B7DFF2CF7A
:100420008B8DFE01E80FF11DE35AFF4FF0829FB75D
:10043000F8940B8FEA89FB89808180620AC09FB79C
:10044000F894EE89FF896083E889F9898081837057
:10045000806480839FBF81E090E0DF91CF911F9106
:100460000F91FF90EF900895CF93DF93EC01888D6B
:100470008823C1F0EA89FB89808185FD05C0A889B0
:10048000B9898C9186FD0EC00FB607FCF5CF80812F
:1004900085FFF2CFA889B9898C9185FFEDCFCE0178
:1004A00075DFE8CFDF91CF91089580E090E0892B50
:1004B00019F063DF811120C080E090E0892B19F0F2
:1004C00053DF81111CC080E090E0892B41F080E077
:1004D00090E0892B21F00E940000811113C080E080
:1004E00090E0892BA1F080E090E0892B81F00E94C0
:1004F000000081110AC008950E940000DDCF0E9413
:100500000000E1CF0E940000EACF0C9400000895A3
:10051000CF93DF9390E0FC01EA50FE4F2491FC0161
:10052000E055FE4F8491882361F190E0880F991F78
:10053000FC01E35AFE4FC591D491FC01EA56FE4FEF
:10054000A591B491611109C09FB7F8948881209555
:1005500082238883EC912E230BC0623061F49FB715
:10056000F8948881322F309583238883EC912E2B49
:100570002C939FBF06C08FB7F894E8812E2B288359
:100580008FBFDF91CF91089585ED8093BC0080915E
:10059000BC0084FDFCCF1092B70308954091510335
:1005A000262F30E0240F311D21323105DCF420915B
:1005B000B7032430C9F4FC0180E090E0861758F4BA
:1005C000309151032191DC01AF5CBC4FA30FB11DF1
:1005D0002C930196F3CF80915103680F60935103E0
:1005E00080E0089581E0089582E00895E09182031B
:1005F00080918103E81730F4F0E0EF5EFC4F8081DA
:1006000090E008958FEF9FEF08959091820380917D
:100610008103981750F4E92FF0E0EF5EFC4F208142
:1006200030E09F5F9093820302C02FEF3FEFC9013C
:1006300008958091810390E020918203821B9109AB
:100640000895CF92DF92EF92FF920F931F93CF9373
:10065000DF937C01CB018A012091B803222389F02A
:10066000EB016B01C40ED51ECC15DD0561F069915F
:10067000D701ED91FC910190F081E02DC701199512
:10068000F3CF642F8BDFC801DF91CF911F910F91C2
:10069000FF90EF90DF90CF900895CF93DF931F925C
:1006A000CDB7DEB769832091B8032223D1F0209122
:1006B000DB03203240F021E030E0FC013383228371
:1006C00080E090E014C08091B903E82FF0E0E65498
:1006D000FC4F998190838F5F8093B9038093DB03F4
:1006E00004C061E0CE01019659DF81E090E00F90F7
:1006F000DF91CF910895089580E090E00895862FCE
:10070000642F06CF0E945612CF9380EE93E020DE36
:10071000181619060CF088C080EE93E0F7DDC82F9C
:100720008091EC02882309F445C0CE3399F0E09122
:10073000EB02F0E0E553FD4FC0838091EB028F5F49
:100740008093EB028091EB028032A1F58FE18093E0
:10075000EB0230C01092EC0281E080931003E09134
:10076000EB02F0E0E553FD4F108265E372E08BECA5
:1007700092E00E94830DBC0180EF92E00E946C1217
:1007800065E372E080E090E00E94830D9093EF02B9
:100790008093EE0265E372E080E090E00E94830DBA
:1007A0000E94780D6093A5027093A6028093A70221
:1007B0009093A8028091CA02882339F1CD3799F02D
:1007C000E091C902F0E0E755FD4FC0838091C90276
:1007D0008F5F8093C9028091C902803229F58FE131
:1007E0008093C90221C01092CA0281E08093ED0279
:1007F000E091C902F0E0E755FD4F108269EA72E02E
:1008000080EF92E0CF910C946C12CC3331F41092C3
:10081000EB0281E08093EC0207C0CB3729F4109201
:10082000C90281E08093CA02CF910895E2EAF2E022
:1008300010828DE0818381E08093B80383E680930A
:10084000DA031092B9031092DB0342E050E0BF01DB
:1008500082E695E0F6DE77C4E2EAF2E010828CE010
:10086000818381E08093B80383E68093DA0310925A
:10087000B9031092DB0342E050E0BF0182E695E04D
:10088000E0DE61C4EF92FF920F931F93CF93DF934B
:10089000CDB7DEB7CA56D1090FB6F894DEBF0FBE8A
:1008A000CDBF80911003882309F470C0109210030B
:1008B00067E372E080EF92E00E946312892B19F4E3
:1008C00081E0809383036AE372E080EF92E00E940C
:1008D0006312892B11F410928C036DE372E080EFA8
:1008E00092E00E946312892B11F58091EF028F93A1
:1008F0008091EE028F9382E492E09F938F938E011A
:100900000F5F1F4F1F930F930E948212A5DFB80144
:10091000CE01C39611D5CE01C39671D4CE01C39634
:10092000A0D40F900F900F900F900F900F906CE449
:1009300072E080EF92E00E946312892B09F091C06F
:100940008091EF028F938091EE028F9382E592E087
:100950009F938F938E010D5C1F4F1F930F930E94E7
:10096000821264DFB801CE018B599F4FE5D4CE01CE
:100970008B599F4F44D4CE018B599F4F72D40F9007
:100980000F900F900F900F900F906BC08091ED0221
:10099000882309F466C01092ED025EDF60EF72E01A
:1009A000CE01C396C9D46DE572E0CE010196C4D4E0
:1009B0000FA918ADEBA8FCA8E114F10409F461C07B
:1009C00001151105B1F08D819E81080F191FB80125
:1009D000CE01019679D4882309F453C029813A8144
:1009E0008D819E81B701820F931F0E946C121E831E
:1009F0000D83A7961FAE1EAEA797A9961FAE1EAE7B
:100A0000A997AB961FAE1EAEAB9709811A8101154F
:100A10001105C9F0ED80FE80B701CE018B599F4FC3
:100A200053D4811105C0CE018B599F4F74D40BC094
:100A3000AB96FFAEEEAEAB97B801A7968EAD9FAD6D
:100A4000A7970E946C12CE018B599F4FD8D3CE012D
:100A50008B599F4F06D4CE01019603D4CE01C39685
:100A600000D41092F002C659DF4F0FB6F894DEBFE3
:100A70000FBECDBFDF91CF911F910F91FF90EF90EF
:100A80000895CE01019647D4B4CF1F920F920FB6AE
:100A90000F9211240BB60F922F933F934F935F93B6
:100AA0006F937F938F939F93AF93BF93EF93FF9336
:100AB00080EE93E06BDCFF91EF91BF91AF919F913E
:100AC0008F917F916F915F914F913F912F910F90F7
:100AD0000BBE0F900FBE0F901F9018951F920F9294
:100AE0000FB60F9211240BB60F922F938F939F93F3
:100AF000EF93FF93E091F003F091F1038081E09197
:100B0000F603F091F70382FD12C090818091F90302
:100B10008F5F8F732091FA03821751F0E091F903F0
:100B2000F0E0E052FC4F958F8093F90301C0808183
:100B3000FF91EF919F918F912F910F900BBE0F908E
:100B40000FBE0F901F9018951F920F920FB60F9225
:100B500011240BB60F922F933F934F935F936F9394
:100B60007F938F939F93AF93BF93EF93FF938DE703
:100B700094E00CDCFF91EF91BF91AF919F918F9129
:100B80007F916F915F914F913F912F910F900BBE8D
:100B90000F900FBE0F901F9018951F920F920FB6D7
:100BA0000F9211240BB60F922F938F939F93EF9375
:100BB000FF93E0918D04F0918E048081E091930485
:100BC000F091940482FD12C09081809196048F5F11
:100BD0008F7320919704821751F0E0919604F0E012
:100BE000E358FB4F958F8093960401C08081FF915D
:100BF000EF919F918F912F910F900BBE0F900FBE91
:100C00000F901F90189590E0FC013197E231F105AB
:100C100008F04EC08827EE58FF4F8F4F0C944D10B0
:100C2000809180008F7703C0809180008F7D8093BA
:100C30008000089580918000877FF9CF84B58F77F9
:100C400002C084B58F7D84BD08958091B0008F77F8
:100C500003C08091B0008F7D8093B0000895809193
:100C600090008F7707C0809190008F7D03C08091A6
:100C70009000877F8093900008958091A0008F77E7
:100C800007C08091A0008F7D03C08091A000877F66
:100C90008093A0000895809120018F7707C08091F4
:100CA00020018F7D03C080912001877F80932001E8
:100CB0000895CF93DF93FC01218530E0F901E45CD6
:100CC000FD4F8491F901EA50FE4FD491F901E055AE
:100CD000FE4FC491CC2371F0811195DFEC2FF0E031
:100CE000EE0FFF1FED5BFE4FA591B491EC91ED234C
:100CF00081E009F480E08170DF91CF9108952FB7F2
:100D0000F8946091790370917A0380917B039091BC
:100D10007C032FBF08951F920F920FB60F921124DC
:100D20002F933F938F939F93AF93BF9380917903BA
:100D300090917A03A0917B03B0917C03309178036A
:100D400023E0230F2D3720F40196A11DB11D05C00E
:100D500026E8230F0296A11DB11D209378038093EE
:100D6000790390937A03A0937B03B0937C038091E3
:100D7000740390917503A0917603B0917703019667
:100D8000A11DB11D8093740390937503A093760306
:100D9000B0937703BF91AF919F918F913F912F9126
:100DA0000F900FBE0F901F9018951F920F920FB6C5
:100DB0000F9211240BB60F922F933F934F935F9393
:100DC0006F937F938F939F93AF93BF93EF93FF9313
:100DD0008091B900887F803609F49CC068F588321C
:100DE00009F45BC090F4803109F454C038F48823CE
:100DF00009F4F6C0883009F44DC0F5C0883109F413
:100E00004CC0803209F45DC0EEC0803409F468C083
:100E100048F4803309F455C0883309F0E4C0809366
:100E2000B503D8C0803509F44FC0883509F45DC0DA
:100E3000883409F0D8C0D6C0883909F4C7C0A8F4EE
:100E4000883709F467C038F4883609F463C08037FE
:100E500009F460C0C8C0883809F4B8C0803909F402
:100E60005FC0803809F0BFC05BC0803B09F486C01A
:100E700038F4803A09F466C0883A09F47FC0B3C0F8
:100E8000803C09F4A7C0883C09F4A4C0883B09F45D
:100E90008AC0A9C08091920310C09091B403809140
:100EA000B303981770F5E091B40381E08E0F80933F
:100EB000B403F0E0ED56FC4F80818093BB0085ECDD
:100EC00086C08093B5038EC0E091B40381E08E0F9D
:100ED0008093B4038091BB00F0E0ED56FC4F80831B
:100EE0009091B4038091B3036EC0E091B40381E0AC
:100EF0008E0F8093B4038091BB00F0E0ED56FC4F61
:100F000080838091B60381116DC081E0809391034D
:100F100084EA61C083E08093B70310927303CFCF5C
:100F200080917303803208F051C0E091730381E037
:100F30008E0F809373038091BB00F0E0ED5AFC4F5D
:100F40008083BDCF85EC8093BC001092B703809165
:100F50007303803230F4E0917303F0E0ED5AFC4FFC
:100F600010826091730370E0E0917D03F0917E0345
:100F700083E593E019951092730335C084E0809364
:100F8000B7031092520310925103E0917F03F09146
:100F90008003199580915103811105C081E08093F0
:100FA000510310923103E091520381E08E0F809340
:100FB0005203F0E0EF5CFC4F80818093BB00909186
:100FC000520380915103981708F479CF85E88093F4
:100FD000BC0009C085EC8093BC001092B70303C02D
:100FE0001092B503D1DAFF91EF91BF91AF919F912C
:100FF0008F917F916F915F914F913F912F910F90C2
:101000000BBE0F900FBE0F901F901895CF92DF92DE
:10101000EF92FF920F931F93CF93DF936C017A01AE
:101020008B01C0E0D0E0CE15DF0581F0D8016D91D5
:101030008D01D601ED91FC910190F081E02DC6016A
:101040001995892B11F02196EECF7E01C701DF9112
:10105000CF911F910F91FF90EF90DF90CF90089567
:10106000CF92DF92EF92FF92C090DC03D090DD032D
:10107000E090DE03F090DF03C0928805D0928905EE
:10108000E0928A05F0928B053ADE6093DC03709360
:10109000DD038093DE039093DF038091DC03909166
:1010A000DD03A091DE03B091DF038C199D09AE0929
:1010B000BF09C397A105B10538F3FF90EF90DF900A
:1010C000CF9008950F931F93CF93DF938C01C0E0CF
:1010D000D0E0F801EC0FFD1F6491662339F080EE3B
:1010E00093E076D9892B11F02196F3CFCE01DF91D1
:1010F000CF911F910F910895FC01A089B18982E0E1
:101100008C93A485B5851C92A685B78580E18C93C8
:10111000108EA489B58986E08C93A289B3898C91BD
:1011200080618C93A289B3898C9188608C93A28909
:10113000B3898C9180688C930288F389E02D80813B
:101140008F7D808308953091DB03313208F04BC0EE
:101150008091B7038111FCCF9091DA0322E02093B4
:10116000B70321E02093B6032FEF2093B50310922D
:10117000B4033093B303EAEBF3E0A3E9B3E020E078
:10118000321721F041914D932F5FFACF10929203C5
:1011900020919203990F922B909392039091910337
:1011A000913061F410929103909192039093BB005F
:1011B0009091BC0093FDF8CF95EC01C095EE909313
:1011C000BC009091B7039230E1F39091B5039F3F3B
:1011D00079F08091B503803241F08091B50380337E
:1011E00031F084E005C081E003C082E001C083E00B
:1011F0001092B9031092DB031092B80308950F9375
:101200001F93CF93DF93FC01C481D5818E010F5FC3
:101210001F4F9E01215031092E3F3F4F58F4FC01D2
:1012200060817181AE0180E795E00E947312C05920
:10123000DA4F18821092700581E08093B80383E63C
:101240008093DA031092B9031092DB03A80160E7E0
:1012500075E082E695E0F5D9DF91CF911F910F916E
:1012600072CFFC0180819181B8C7CF93DF93282F83
:1012700030E0F901E45CFD4F8491F901EA50FE4F42
:10128000D491F901E055FE4FC491CC2381F0811136
:10129000BADCEC2FF0E0EE0FFF1FEA56FE4FA591EF
:1012A000B4918FB7F894EC91ED2BEC938FBFDF9155
:1012B000CF910895FC01808580FD04C082FB8827C2
:1012C00080F9089580E008950F931F93CF93DF93E3
:1012D000EC0188819981009729F02A813B812617AA
:1012E000370788F48B016F5F7F4F0E94761100975C
:1012F00061F0998388831B830A832C813D81232B92
:1013000011F4FC01108281E001C080E0DF91CF91F7
:101310001F910F910895CF93DF93EC0188819981FC
:10132000009709F05AD7198218821D821C821B82ED
:101330001A82DF91CF910895EF92FF920F931F933E
:10134000CF93DF93EC01198218821B821A821D82CF
:101350001C826115710511F18B01FB0101900020C8
:10136000E9F731977F01E61AF70AB701ADDF81117E
:1013700008C0CE01DF91CF911F910F91FF90EF90A8
:10138000CACFFD82EC82B80188819981DF91CF912B
:101390001F910F91FF90EF900C946C12DF91CF9101
:1013A0001F910F91FF90EF900895CF93DF9300D09E
:1013B00000D0CDB7DEB7789484B5826084BD84B5A3
:1013C000816084BD85B5826085BD85B5816085BD40
:1013D00080916E00816080936E00109281008091F8
:1013E0008100826080938100809181008160809380
:1013F0008100809180008160809380008091B100A5
:1014000084608093B1008091B00081608093B000CF
:101410008091910082608093910080919100816021
:1014200080939100809190008160809390008091E2
:10143000A10082608093A1008091A10081608093CF
:10144000A1008091A00081608093A0008091210183
:10145000826080932101809121018160809321012C
:101460008091200181608093200180917A008460C6
:1014700080937A0080917A00826080937A008091D4
:101480007A00816080937A0080917A0080688093EE
:101490007A001092C10010925E0510925F051092C2
:1014A00060051092610510921C0510921D051092A6
:1014B0001E0510921F0523DC6B017C012B013C01F2
:1014C00028EB420E2BE0521E611C711C18DC6C15BF
:1014D0007D058E059F0528F0461657066806790695
:1014E000A8F78DE794E090935D0580935C0504DE9A
:1014F00006DC60931C0570931D0580931E05909378
:101500001F0580915C0590915D05DC01ED91FC91DA
:101510000280F381E02D41E150E06FE572E0199522
:10152000EEDB6B017C012B013C01BAE04B0E511C40
:10153000611C711CE4DB6C157D058E059F0528F090
:101540004616570668067906A8F781E080933005AD
:1015500080EE93E0D1DDD3DB60938D0370938E0337
:1015600080938F0390939003CADB609384037093FE
:101570008503809386039093870396E0C92E92E0BB
:10158000D92EE12CF12C29E1A22EB12CF60191905B
:101590006F0100916E0510916F050E0D1F1D692DD5
:1015A00070E0D801ED91FC910280F381E02D42E0E2
:1015B00050E0C8011995F801918610860190F081DC
:1015C000E02D0190F081E02DC8011995882339F0B4
:1015D000D80118968C911897836018968C938FDB9E
:1015E000F8016283738384839583E0916E05F091A3
:1015F0006F05EE0DFF1DB782A682FEE0EF0EF11C17
:101600002AE2E216F10411F661E08DE00E94880200
:1016100010928203109281031092B9031092DB039F
:101620001092B70381E08093B6031092910384E196
:101630001CDE85E11ADE8091B9008E7F8093B900AF
:101640008091B9008D7F8093B90088E48093B800C1
:1016500085E48093BC0084E791E0909380038093BD
:101660007F0385E791E090937E0380937D03F4D818
:1016700061E772E0CE0101965FDECE010196BFDD2B
:10168000CE010196EEDD44E050E061E872E080EECC
:1016900093E0BCDC8091830381112CC030DB60932C
:1016A000DC037093DD038093DE039093DF030091EE
:1016B00084031091850320918603309187036B0189
:1016C0007C01C01AD10AE20AF30A970186010436A6
:1016D00011052105310558F060938403709385034B
:1016E000809386039093870387E791E0EBDC0CD827
:1016F000C9D8D0CF8CE791E0E5DC98D866E872E0F5
:10170000CE01019619DECE01019679DDCE0101965A
:10171000A8DDDD24D39482E0C82EF1DA6093DC03E7
:101720007093DD038093DE039093DF0300918D03BC
:1017300010918E0320918F0330919003DC01CB0137
:10174000801B910BA20BB30B803A9B4BAF4FBF4F4B
:1017500028F080918C03882309F4CEC08091DC03AB
:101760009091DD03A091DE03B091DF0340918803E7
:101770005091890360918A0370918B03841B950BB0
:10178000A60BB70B883E9340A105B10528F08091C8
:101790008C03882309F4C7C00E94840373D8E12C0A
:1017A000F12C00916E0510916F050E0D1F1DD801D3
:1017B00018968C9118978B7F18968C931897ED91AB
:1017C000FC910190F081E02DC8011995B82EF80127
:1017D000808586958170B81679F091DAD8011296D5
:1017E0006D937D938D939C93159718968C91189774
:1017F0008C2518968C932EC082DAF8014280538093
:1018000064807580AB01BC014419550966097709EC
:1018100086819781A0E0B0E0481759076A077B07E7
:10182000C8F080858170B816A9F069DAD8011296DF
:101830006D937D938D939C93159718968C91189723
:101840008D25846018968C935ADAF8016287738725
:1018500084879587FEE0EF0EF11C2AE2E216F10480
:1018600009F09FCF80916E0590916F0523DD88234D
:1018700081F081E991E026DC0E9416046DE872E0B7
:10188000CE01019659DDCE010196B9DCCE0101965B
:10189000E8DC80916E0590916F050E960BDD882334
:1018A00081F08DE891E00EDC0E94160464E972E09C
:1018B000CE01019641DDCE010196A1DCCE0101965B
:1018C000D0DC80916E0590916F054C96F3DC8823F7
:1018D00081F088E891E0F6DB0E9416046BE972E083
:1018E000CE01019629DDCE01019689DCCE0101965B
:1018F000B8DC0E94550211CF2F9AB2DB2F9884E8F2
:1019000091E0E0DB8091DC039091DD03A091DE03A8
:10191000B091DF0380938D0390938E03A0938F0388
:10192000B09390031BCF2F9A9BDB2F9880E891E018
:10193000C9DB8091DC039091DD03A091DE03B091BF
:10194000DF038093880390938903A0938A03B09365
:101950008B0322CF1092E3031092E20388EE93E010
:10196000A0E0B0E08093E4039093E503A093E60346
:10197000B093E7032DE032E03093E1032093E003DE
:101980004DEC50E05093ED034093EC034CEC50E0F1
:101990005093EF034093EE0348EC50E05093F10373
:1019A0004093F00349EC50E05093F3034093F2036B
:1019B0004AEC50E05093F5034093F4034EEC50E0B2
:1019C0005093F7034093F6031092F9031092FA0331
:1019D0001092FB031092FC031092800410927F047B
:1019E0008093810490938204A0938304B093840431
:1019F00030937E0420937D0425EC30E030938A04FC
:101A00002093890424EC30E030938C0420938B04E1
:101A100020EC30E030938E0420938D0421EC30E0F4
:101A20003093900420938F0422EC30E030939204A2
:101A30002093910426EC30E0309394042093930497
:101A400010929604109297041092980410929904A0
:101A50001092200510922105109222051092230564
:101A60001092240510922505109226051092270544
:101A7000109228051092290510922A0510922B0524
:101A800010922C0510922D0510922E0510922F0504
:101A90001092650510926405809366059093670522
:101AA000A0936805B09369058FE192E09093630578
:101AB000809362058AE290E0F8D2FC019C01265DE9
:101AC0003F4F61E372E04AE050E07183608312822D
:101AD00013821482158257834683108611863E96A0
:101AE0002E173F0791F790936F0580936E05089529
:101AF0006627772732C0911183C1803219F089504F
:101B00008550D0F708954CE855E000C0FA01A19146
:101B1000B081009719F41097E1F0CD01DC01CD01FF
:101B20000D90002011F4C00113C0FB01219122236C
:101B300019F02015D9F7F3CFFB012191201519F4E5
:101B40001E92119606C02223C1F70D900020A1F726
:101B5000D001FA01A193B08308958F929F92AF9222
:101B6000BF92CF92DF92EF92FF920F931F93CF938A
:101B7000DF93EC016B016115710519F0FB01918395
:101B800080837E01FFEFEF1AFF0A0881802F90E02B
:101B9000B2DF892B11F0E701F4CF0D3239F47E0169
:101BA00082E0E80EF11C098111E008C00B3229F433
:101BB0007E0192E0E90EF11C098110E0E701219716
:101BC00043E050E060E171E0CE011DD1892BB9F412
:101BD000239645E050E06BE071E0CE0114D1892BF3
:101BE00009F42596C114D10419F0F601D183C083FC
:101BF0001111F0C060E070E080E89FE7F4C043E0BE
:101C000050E068E071E0CE01FED0892B59F4C11498
:101C1000D10409F4E4C0F2E0EF0EF11CF601F18208
:101C2000E082DDC020E030E0A901C0E0D0E0F701B3
:101C300060EDA62EA00E89E08A1528F1912F926002
:101C4000B92E812F887012FF04C0811123C0219604
:101C500021C081112197A5E0B0E006D2DC01CB01C3
:101C6000880F991FAA1FBB1F9C01AD012A0D311DB2
:101C7000411D511D283989E93807480789E158076E
:101C800048F0166006C09EEFA9120AC013FD40C0BE
:101C90001860B12E8FEFE81AF80A00811B2DC7CF0C
:101CA000802F8F7D8534A1F580818D3211F41061F4
:101CB00006C08B3221F0319661E070E004C0818172
:101CC000329662E070E080538A3018F0E61BF70B22
:101CD0001FC060E070E060389CE079075CF4DB01D5
:101CE000AA0FBB1FAA0FBB1F6A0F7B1F660F771FB0
:101CF000680F711D3196DF0111978C9180538A30E6
:101D000050F314FF03C0719561957109C60FD71F79
:101D100011FF08C0C114D10429F0CF010197F601C9
:101D200091838083CA01B9018AD0212F2370233087
:101D300019F04B015C0106C04B015C01B7FAB0948D
:101D4000B7F8B09420E030E0A901C501B40173D028
:101D5000882309F43CC0D7FF06C0D195C195D109AD
:101D600007E211E002C00FE311E06801F8E1CF1AC9
:101D7000D10890E2E92EF12CCE15DF056CF0F801C8
:101D80002591359145915491C501B401B9D04B01CC
:101D90005C01CE19DF09F0CF04501109F594E794E6
:101DA0000C151D0549F78A2D880F8B2D881F8F3F35
:101DB00041F020E030E0A901C501B4013CD081111F
:101DC00006C082E290E090938F0580938E05C50156
:101DD000B40109C060E070E080E89FEF04C060E0FB
:101DE00070E080EC9FE7DF91CF911F910F91FF9002
:101DF000EF90DF90CF90BF90AF909F908F9008951D
:101E0000992788270895FB01DC014150504088F054
:101E10008D9181341CF08B350CF4805E65916134BA
:101E20001CF06B350CF4605E861B611171F3990B2D
:101E30000895881BFCCF40D008F481E00895E89411
:101E400009C097FB3EF490958095709561957F4F02
:101E50008F4F9F4F9923A9F0F92F96E9BB279395B0
:101E6000F695879577956795B795F111F8CFFAF4C0
:101E7000BB0F11F460FF1BC06F5F7F4F8F4F9F4FF1
:101E800016C0882311F096E911C0772321F09EE84F
:101E9000872F762F05C0662371F096E8862F70E0B5
:101EA00060E02AF09A95660F771F881FDAF7880F8F
:101EB0009695879597F90895990F0008550FAA0BE5
:101EC000E0E8FEEF16161706E807F907C0F012164D
:101ED0001306E407F50798F0621B730B840B950B50
:101EE00039F40A2661F0232B242B252B21F40895A5
:101EF0000A2609F4A140A6958FEF811D811D089542
:101F00000BD078C069D028F06ED018F0952309F076
:101F10005AC05FC01124A2C07ED0A0F3959FD1F318
:101F2000950F50E0551F629FF001729FBB27F00D87
:101F3000B11D639FAA27F00DB11DAA1F649F6627DC
:101F4000B00DA11D661F829F2227B00DA11D621F2B
:101F5000739FB00DA11D621F839FA00D611D221FE5
:101F6000749F3327A00D611D231F849F600D211DC9
:101F7000822F762F6A2F11249F5750408AF0E1F06C
:101F800088234AF0EE0FFF1FBB1F661F771F881FB5
:101F900091505040A9F79E3F510570F014C05EC0AB
:101FA0005F3FECF3983EDCF3869577956795B795A0
:101FB000F795E7959F5FC1F7FE2B880F911D9695CA
:101FC000879597F9089597F99F6780E870E060E03A
:101FD00008959FEF80EC089500240A9416161706C2
:101FE00018060906089500240A941216130614060A
:101FF00005060895092E0394000C11F4882352F06D
:10200000BB0F40F4BF2B11F460FF04C06F5F7F4F24
:102010008F4F9F4F089557FD9058440F551F59F00B
:102020005F3F71F04795880F97FB991F61F09F3FC5
:1020300079F087950895121613061406551FF2CFEE
:102040004695F1DF08C0161617061806991FF1CF3E
:1020500086957105610508940895E894BB27662765
:102060007727CB0197F9089509D0A59F900DB49FCC
:10207000900DA49F800D911D11240895A29FB00181
:10208000B39FC001A39F700D811D1124911DB29FAC
:10209000700D811D1124911D0895EE0FFF1F881FE3
:1020A0008BBF0790F691E02D19940F931F93CF9358
:1020B000DF938230910510F482E090E0E091920588
:1020C000F091930520E030E0A0E0B0E0309719F106
:1020D000408151810281138148175907C8F0841744
:1020E000950769F4109731F012960C931297139696
:1020F0001C9327C0009392051093930522C02115CD
:10210000310519F04217530718F49A01BD01EF0188
:10211000DF01F801DBCF21153105F9F0281B390B60
:102120002430310580F48A819B816115710521F08D
:10213000FB019383828304C090939305809392055F
:10214000FE01329644C0FE01E20FF31F819391938A
:1021500022503109398328833AC02091900530916B
:102160009105232B41F42091020230910302309318
:1021700091052093900520910002309101022115D4
:10218000310541F42DB73EB740910402509105024C
:10219000241B350BE0919005F0919105E217F307B0
:1021A000A0F42E1B3F0B2817390778F0AC014E5FC7
:1021B0005F4F2417350748F04E0F5F1F509391056E
:1021C000409390058193919302C0E0E0F0E0CF014D
:1021D000DF91CF911F910F910895CF93DF930097D7
:1021E00009F481C0FC01329713821282A0919205FA
:1021F000B0919305109781F420813181820F931F54
:1022000020919005309191052817390751F5F093E9
:102210009105E093900567C0ED0120E030E0CE1716
:10222000DF0740F44A815B819E0141155105F1F0C1
:10223000EA01F5CFD383C28340815181840F951F7A
:10224000C817D90759F488819981840F951F029680
:10225000918380838A819B819383828321153105B9
:1022600029F4F0939305E09392053DC0E901FB83C7
:10227000EA8349915991C40FD51FEC17FD0761F40A
:1022800080819181840F951F0296E901998388834B
:10229000828193819B838A83E0E0F0E012968D91A6
:1022A0009C911397009719F0FD01DC01F7CF8D91F8
:1022B0009C9111979D012E5F3F4F820F931F20919C
:1022C0009005309191052817390769F4309729F462
:1022D000109293051092920502C013821282B0935D
:1022E0009105A0939005DF91CF9108956F927F9211
:1022F0008F929F92AF92BF92CF92DF92EF92FF9216
:102300000F931F93CF93DF93009781F4CB01DF915D
:10231000CF911F910F91FF90EF90DF90CF90BF90E2
:10232000AF909F908F907F906F90BFCEFC01E60F93
:10233000F71F9C0122503109E217F30708F4A5C0EA
:10234000EC01D9010D911C91119706171707A8F000
:102350000530110508F497C0C80104978617970740
:1023600008F491C002501109061B170B0193119339
:102370006D937C93CF0131DF86C05B01A01AB10A57
:102380004C01800E911EA0919205B0919305612C95
:10239000712CE12CF12C109709F446C08D919C9181
:1023A0001197A815B905B1F56C0142E0C40ED11C16
:1023B000CA14DB0478F14C018A189B08640142E0DE
:1023C000C40ED11C1296BC9012971396AC91B5E036
:1023D000CB16D10440F0B282A38391828082D901CE
:1023E0006D937C9309C00E5F1F4F800F911FF90101
:1023F00091838083EB2DFA2FE114F10431F0D701A2
:102400001396FC93EE9312973EC0F0939305E093DE
:10241000920539C06816790608F43C017D011296D0
:102420000D90BC91A02DB7CF809190059091910512
:1024300088169906E1F466167706C8F480910002C2
:1024400090910102009741F48DB79EB7409104022C
:1024500050910502841B950BE817F907B0F4F0932F
:102460009105E0939005F901718360830CC0CB0165
:102470001CDE7C01009749F0A801BE011BD0CE01F3
:10248000ACDEC70104C0CE0102C080E090E0DF9165
:10249000CF911F910F91FF90EF90DF90CF90BF9061
:1024A000AF909F908F907F906F90089581E090E023
:1024B000F89403C3FB01DC0102C001900D9241506E
:1024C0005040D8F70895FB01DC018D9101908019EF
:1024D0000110D9F3990B0895FB01DC0101900D92D5
:1024E0000020E1F70895FB01DC014150504048F025
:1024F00001900D920020C9F701C01D92415050403B
:10250000E0F708950F931F93CF93DF93CDB7DEB716
:102510002E970FB6F894DEBF0FBECDBF0E891F8970
:1025200086E08C831A8309838FEF9FE79E838D83D8
:10253000AE01465E5F4F688D798DCE01019610D059
:10254000EF81F885E00FF11F10822E960FB6F894F8
:10255000DEBF0FBECDBFDF91CF911F910F910895C8
:102560002F923F924F925F926F927F928F929F92A3
:10257000AF92BF92CF92DF92EF92FF920F931F9391
:10258000CF93DF93CDB7DEB72B970FB6F894DEBFAE
:102590000FBECDBF6C017B018A01FC011782168240
:1025A000838181FFBFC1CE0101963C01F601938179
:1025B000F70193FD859193FF81917F01882309F4B1
:1025C000ADC1853239F493FD859193FF81917F01EF
:1025D000853221F4B60190E0D6D1E8CF912C212CA0
:1025E000312CFFE1F315D8F08B3279F038F48032DA
:1025F00079F08332A1F4232D20611DC08D3261F06A
:10260000803369F4232D216016C0832D8260382E1B
:10261000E32DE4603E2E2AC0F32DF8601DC037FC88
:102620002DC020ED280F2A3040F08E32B9F436FC50
:1026300075C1232D2064322E19C036FE06C08AE0F3
:10264000989E200D1124922E11C0EAE02E9E200D9E
:102650001124222EF32DF0623F2E08C08C3621F477
:10266000832D8068382E02C0883641F4F70193FD2F
:10267000859193FF81917F018111B3CF982F9F7D29
:102680009554933028F40C5F1F4F9FE399830DC03E
:10269000833631F0833771F0833509F055C020C09F
:1026A000F801808189830E5F1F4F88248394912CC9
:1026B000530112C02801F2E04F0E511CF801A08016
:1026C000B18036FE03C0692D70E002C06FEF7FEF6E
:1026D000C5014ED14C018201F32DFF773F2E15C06D
:1026E000280122E0420E511CF801A080B18036FE84
:1026F00003C0692D70E002C06FEF7FEFC5012DD1DF
:102700004C01F32DF0683F2E820133FC19C0822D5D
:1027100090E088169906A0F4B60180E290E033D1EB
:102720002A94F5CFF50137FC859137FE81915F0141
:10273000B60190E028D121102A9421E0821A910854
:102740008114910479F7E1C0843611F0893639F5A6
:10275000F80137FE07C060817181828193810C5F2F
:102760001F4F08C060817181072E000C880B990BE8
:102770000E5F1F4FF32DFF763F2E97FF09C09095F8
:102780008095709561957F4F8F4F9F4FF0683F2EDA
:102790002AE030E0A30133D1882E861844C0853763
:1027A00031F4232D2F7EB22E2AE030E025C0932D68
:1027B000997FB92E8F36C1F018F4883579F0AEC004
:1027C000803719F0883721F0A9C0E92FE061BE2ECB
:1027D000B4FE0DC0FB2DF460BF2E09C034FE0AC04C
:1027E000292F2660B22E06C028E030E005C020E187
:1027F00030E002C020E132E0F801B7FE07C060819E
:102800007181828193810C5F1F4F06C0608171814D
:1028100080E090E00E5F1F4FA301F1D0882E861854
:10282000FB2DFF773F2E36FE0DC0232D2E7FA22ECF
:10283000891458F434FE0BC032FC09C0832D8E7EFF
:10284000A82E05C0B82CA32C03C0B82C01C0B92CED
:10285000A4FE0FC0FE01E80DF11D8081803321F43C
:102860009A2D997EA92E09C0A2FE06C0B394B394F6
:1028700004C08A2D867809F0B394A3FC10C0A0FE92
:1028800006C0B21480F4280C922C9B180DC0B21410
:1028900058F4B60180E290E076D0B394F8CFB21449
:1028A00018F42B1802C0982C212CA4FE0FC0B601DE
:1028B00080E390E068D0A2FE16C0A1FC03C088E7C8
:1028C00090E002C088E590E0B6010CC08A2D8678C1
:1028D00051F0A1FE02C08BE201C080E2A7FC8DE2B4
:1028E000B60190E050D0891430F4B60180E390E056
:1028F0004AD09A94F8CF8A94F301E80DF11D8081B3
:10290000B60190E040D08110F6CF222009F44ECEDF
:10291000B60180E290E037D02A94F7CFF6018681A5
:10292000978102C08FEF9FEF2B960FB6F894DEBF12
:102930000FBECDBFDF91CF911F910F91FF90EF9010
:10294000DF90CF90BF90AF909F908F907F906F90CF
:102950005F904F903F902F900895FC01059061503B
:1029600070400110D8F7809590958E0F9F1F0895A5
:10297000FC016150704001900110D8F7809590954E
:102980008E0F9F1F08950F931F93CF93DF93FB012B
:10299000238121FD03C08FEF9FEF2CC022FF16C0C3
:1029A00046815781248135814217530744F4A08121
:1029B000B1819D012F5F3F4F318320838C9326810E
:1029C00037812F5F3F4F3783268314C08B01EC0183
:1029D000FB010084F185E02D1995892BE1F6D801E2
:1029E00016968D919C911797019617969C938E93AE
:1029F0001697CE01DF91CF911F910F910895FA01A3
:102A0000AA27283051F1203181F1E8946F936E7F2D
:102A10006E5F7F4F8F4F9F4FAF4FB1E03ED0B4E01E
:102A20003CD0670F781F891F9A1FA11D680F791F5F
:102A30008A1F911DA11D6A0F711D811D911DA11D70
:102A400020D009F468943F912AE0269F1124301980
:102A5000305D3193DEF6CF010895462F4770405D1B
:102A60004193B3E00FD0C9F7F6CF462F4F70405DCA
:102A70004A3318F0495D31FD4052419302D0A9F725
:102A8000EACFB4E0A6959795879577956795BA951F
:102A9000C9F700976105710508959B01AC010A2EE5
:102AA00006945795479537952795BA95C9F7620FBC
:0E2AB000731F841F951FA01D0895F894FFCF7B
:102ABE00000094058000080A0C00000000E80106E2
:102ACE000877013402A80186019A01000000004D2A
:102ADE000321037C03760119030503F602000000AF
:102AEE000059067F032C007574004F4B00526F6C1B
:102AFE006C0020526F6C6C3A202573005069746321
:102B0E0068002050697463683A20257300200056CF
:102B1E004D4450565F317C315F564D4450560D0A30
:102B2E0000205050564320494E54454C4C49465473
:102B3E00003C55543E0020524541445900204C4F14
:102B4E0057455200204553544F5000205050564385
:022B5E00000075
:00000001FF
