:1000000095C10000C4C10000C2C10000C0C1000011
:10001000BEC10000BCC10000BAC10000B8C10000F0
:10002000B6C10000B4C10000B2C10000B0C1000000
:10003000AEC10000ACC10000AAC10000A8C1000010
:10004000A6C10000A4C10000A2C10000A0C1000020
:1000500038C700009CC100009AC10000E8C600003B
:1000600096C10000F4C400003CC5000090C100002F
:100070008EC100008CC100008AC1000088C1000050
:1000800086C1000084C1000082C100000C94120AE5
:10009000B5C400000C94C10F7AC100000C94E108B3
:1000A00076C1000074C1000072C1000070C1000080
:1000B0006EC100006CC100006AC1000068C1000090
:1000C00066C1000064C1000062C1000060C10000A0
:1000D0005EC100005CC100005AC1000058C10000B0
:1000E00056C100007602790268026C027202B00208
:1000F0007D02810287028B028F02950299029D0286
:10010000B002A302A702AB02084AD73B3BCE016E66
:1001100084BCBFFDC12F3D6C74319ABD56833DDA5E
:100120003D00C77F11BED9E4BB4C3E916BAAAABE6D
:10013000000000803F004E414E494E495459494EFF
:1001400046CDCCCC3D0AD7233C17B7D13877CC2B42
:10015000329595E6241FB14F0A000020410000C8E7
:100160004200401C4620BCBE4CCA1B0E5AAEC59D68
:10017000747B6932635772697465206661696C6566
:10018000643A200000002100240027002A002D00EE
:100190003000330001010000040107010A010000E2
:1001A0002200250028002B002E003100340002011F
:1001B0000000050108010B010000200023002600BB
:1001C00029002C002F00320000010000030106016D
:1001D00009010505050507050808080802020202CD
:1001E0000A0A0808040404040101010101010101D3
:1001F0000303030303030303040707070C0C0C0C9E
:100200000C0C0C0C02020202060606060606060686
:100210000B0B0B0B0B0B0B0B010210202008081013
:100220002040102040800201020108040201010266
:10023000040810204080804020100804020180043F
:10024000020180402010080402010804020101029A
:1002500004081020408001020408102040800000A3
:100260000A0B02090C0D0E08070304010000000030
:10027000000000000000000000000000000000007E
:10028000000000000000000000001211100000003B
:10029000000000000000000000000000000000005E
:1002A000000000007B4572726F72207265616469A4
:1002B0006E672073656E736F727D003E002C003C8C
:1002C000582C003C43414C4946494E3E007B54412A
:1002D00052494E477D007B43616C63756C61746964
:1002E0006E67206F6666736574732E2E2E7D007B9D
:1002F00052656164696E672073656E736F72732EE9
:100300002E2E7D007B693263526561642074696DB5
:10031000656F75747D007B69326352656164206628
:1003200061696C65643A200092190C1311241FBE98
:10033000CFEFD1E2DEBFCDBF00E00CBF26E0A4E0EE
:10034000B3E001C01D92A53DB207E1F713E0A0E0C4
:10035000B2E0EEE6F2E400E00BBF02C007900D92BF
:10036000A430B107D9F711E0C5E9D1E000E006C03B
:1003700021970109802FFE010E94C91FC439D107AE
:1003800080E00807A9F70E941F130C94262138CE9D
:10039000FC01A089B1898C91A689B78982FD0FC023
:1003A0009C91818D8F5F8F73228D821749F0218DF3
:1003B000DF01A20FB11D5D969C93818F08958C91F2
:1003C0000895FC01538D448D252F30E0842F90E05B
:1003D000821B930B541710F0CF9608950197089540
:1003E000FC01918D828D981761F0828DDF01A80F3D
:1003F000B11D5D968C91928D9F5F9F73928F90E05F
:1004000008958FEF9FEF0895FC01918D828D9817CD
:1004100031F0828DE80FF11D858D90E008958FEF0A
:100420009FEF0895FC01918D228D892F90E0805CD3
:100430009F4F821B91098F739927089585E495E05A
:10044000F1DF21E0892B09F420E0822F089580E07C
:1004500090E0892B19F0F2DF811121C080E090E05B
:10046000892B21F00E94B70F81111CC080E090E021
:10047000892B41F080E090E0892B21F00E94000060
:10048000811113C080E090E0892BA1F080E090E022
:10049000892B81F00E94000081110AC008950E94FA
:1004A0000000DCCF0E940000E1CF0E940000EACFF4
:1004B0000C940000089590E0FC013197E231F105C1
:1004C00008F04EC08827EE58FF4F8F4F0C94C91F7D
:1004D000809180008F7703C0809180008F7D809312
:1004E0008000089580918000877FF9CF84B58F7751
:1004F00002C084B58F7D84BD08958091B0008F7750
:1005000003C08091B0008F7D8093B00008958091EA
:1005100090008F7707C0809190008F7D03C08091FD
:100520009000877F8093900008958091A0008F773E
:1005300007C08091A0008F7D03C08091A000877FBD
:100540008093A0000895809120018F7707C080914B
:1005500020018F7D03C080912001877F809320013F
:1005600008950895089580912E0490E020912D041F
:10057000821B910908952F923F924F925F926F9242
:100580007F928F929F92AF92BF92CF92DF92EF9223
:10059000FF920F931F93CF93DF93CDB7DEB76C9786
:1005A0000FB6F894DEBF0FBECDBF1C014D8B5E8B26
:1005B0006F8B788FC901B801D10150962D913D9173
:1005C0004D915C915397298B3A8B4B8B5C8B0E949E
:1005D000AC1D9B01AC01F101648B758B868B978BF5
:1005E000C701B6010E94BD1CD1011C962D913D9101
:1005F0004D915C911F970E94AD1D6D877E878F87FF
:10060000988BD10194962D913D914D915C91979746
:100610002D833E834F835887C701B6010E94BD1CBE
:100620004B015C01F101448C558C668C778C20A1C8
:1006300031A142A153A129873A874B875C87A30147
:1006400092010E94AC1D29853A854B855C850E94EC
:10065000AC1DF10120813181428153810E94AD1D89
:100660009B01AC01C701B6010E94BD1CD101589687
:100670002D913D914D915C915B970E94AD1D6983D9
:100680007A838B839C83A5019401C301B2010E94EC
:10069000AC1D2B013C01A501940169857A858B85F0
:1006A0009C850E94AC1D69877A878B879C87F101A6
:1006B0002481358146815781C701B6010E94BD1C46
:1006C0009B01AC016D817E818F8198850E94AD1D5B
:1006D000698F7A8F8B8F9C8FD10118962D913D91C8
:1006E0004D915C911B9769817A818B819C810E94DD
:1006F000AD1D6B017C019B01AC0169817A818B810D
:100700009C810E94731E4B015C01A70196016985C3
:100710007A858B859C850E94731E6B017C012D85DB
:100720003E854F8558896D897E898F89988D0E9475
:10073000AC1D6D837E838F8398879B01AC01C501BF
:10074000B4010E94BD1C9B01AC016D857E858F8527
:1007500098890E94AD1D6D877E878F87988BF101E8
:1007600064877587868797872D813E814F8158855D
:10077000C701B6010E94BD1C9B01AC0169897A8941
:100780008B899C890E94AD1DD10150966D937D93FC
:100790008D939C93539729813A814B815C81C5014C
:1007A000B4010E94BD1C9B01AC0169817A818B81DF
:1007B0009C810E94AC1DF101608F718F828F938F9D
:1007C000A3019201C501B4010E94BD1C9B01AC01B3
:1007D000C301B2010E94AC1DD1015C966D937D9363
:1007E0008D939C935F9729813A814B815C81C701EE
:1007F000B6010E94BD1C9B01AC0169857A858B8581
:100800009C850E94AC1DF10160A371A382A393A3F8
:10081000A3019201C701B6010E94BD1C9B01AC015E
:10082000698D7A8D8B8D9C8D0E94AC1DD101949623
:100830006D937D938D939C9397976D857E858F8522
:1008400098896C960FB6F894DEBF0FBECDBFDF91CE
:10085000CF911F910F91FF90EF90DF90CF90BF90BD
:10086000AF909F908F907F906F905F904F903F9050
:100870002F90089585ED8093BC008091BC0084FD8D
:10088000FCCF1092A704089540916D03262F30E00D
:10089000240F311D21323105DCF42091A7042430CE
:1008A000C9F4FC0180E090E0861758F430916D03A4
:1008B0002191DC01A55BBC4FA30FB11D2C930196C8
:1008C000F3CF80916D03680F60936D0380E008950E
:1008D00081E0089582E008950895E0912D048091CB
:1008E0002E04E81730F4F0E0EF59FB4F808190E0E0
:1008F00008958FEF9FEF089590912D0480912E041D
:10090000981750F4E92FF0E0EF59FB4F208130E0C9
:100910009F5F90932D0402C02FEF3FEFC901089510
:10092000CF92DF92EF92FF920F931F93CF93DF93BB
:100930007C01262F972F8A0180913D04882391F016
:10094000C62FD72F6E01C40ED51ECC15DD0569F05C
:100950006991D701ED91FC910190F081E02DC701E3
:100960001995F3CF642F822F8FDFC801DF91CF91CC
:100970001F910F91FF90EF90DF90CF900895CF934C
:10098000DF931F92CDB7DEB7698320913D04222308
:10099000D1F020916004203240F021E030E0FC01F1
:1009A0003383228380E090E014C080913E04E82FDE
:1009B000F0E0E15CFB4F998190838F5F80933E0470
:1009C0008093600404C061E0CE0101965DDF81E0A8
:1009D00090E00F90DF91CF910895089580E090E02E
:1009E0000895089581E08093D703089581E080936E
:1009F0001C0308950E9412210C947A201F920F92DA
:100A00000FB60F9211240BB60F922F933F934F9373
:100A10005F936F937F938F939F93AF93BF93EF9366
:100A2000FF9388EA94E0B4DCFF91EF91BF91AF911E
:100A30009F918F917F916F915F914F913F912F91F6
:100A40000F900BBE0F900FBE0F901F9018951F9226
:100A50000F920FB60F9211240BB60F922F933F9364
:100A60004F935F936F937F938F939F93AF93BF93B6
:100A7000EF93FF9385E495E08BDCFF91EF91BF91BD
:100A8000AF919F918F917F916F915F914F913F9126
:100A90002F910F900BBE0F900FBE0F901F901895C7
:100AA000FC01848DDF01A80FB11DA35ABF4F2C910B
:100AB000848D90E001968F739927848FA689B789DA
:100AC0002C93A089B1898C9180648C93938D848DB3
:100AD000981306C00288F389E02D80818F7D808382
:100AE00008951F920F920FB60F9211240BB60F921A
:100AF0002F933F934F935F936F937F938F939F9326
:100B0000AF93BF93EF93FF9385E495E0C9DFFF9127
:100B1000EF91BF91AF919F918F917F916F915F9175
:100B20004F913F912F910F900BBE0F900FBE0F90E2
:100B30001F901895EF92FF920F931F93CF93DF931F
:100B4000EC0181E0888F9B8D8C8D981305C0E8891E
:100B5000F989808185FD23C0F62E0B8D10E00F5F93
:100B60001F4F0F731127E02E8C8DE8120BC00FB6AC
:100B700007FCFACFE889F989808185FFF5CFCE019E
:100B80008FDFF2CF8B8DFE01E80FF11DE35AFF4F8F
:100B9000F0820B8FEA89FB898081806207C0EE8931
:100BA000FF896083E889F98980818064808381E09E
:100BB00090E0DF91CF911F910F91FF90EF900895FA
:100BC000CF93DF93EC01888D8823C1F0EA89FB89FC
:100BD000808185FD05C0A889B9898C9186FD0EC0EC
:100BE0000FB607FCF5CF808185FFF2CFA889B989C0
:100BF0008C9185FFEDCFCE0153DFE8CFDF91CF9110
:100C00000895CF93DF93282F30E0F901E25AFD4F8A
:100C10008491F901E85EFD4FD491F901EE52FE4F47
:100C2000C491CC2389F0811146DCEC2FF0E0EE0F6B
:100C3000FF1FE854FE4FA591B491EC91ED2381E0A4
:100C400090E021F480E002C080E090E0DF91CF915D
:100C500008951F93CF93DF93282F30E0F901E25AD4
:100C6000FD4F8491F901E85EFD4FD491F901EE52F8
:100C7000FE4FC491CC23C1F0162F81111CDCEC2F48
:100C8000F0E0EE0FFF1FE256FE4FA591B4918FB733
:100C9000F894111105C09C91ED2FE095E92302C055
:100CA000EC91ED2BEC938FBFDF91CF911F910895C5
:100CB000DF92EF92FF920F931F93CF93DF93EC019C
:100CC0008B819FDF892BE1F76A818B810E94F60F70
:100CD000082F6A818B810E94F60F182F6A818B8101
:100CE0000E94F60FD82EE12CF12C2C8130E0E21678
:100CF000F30650F461E08A81ACDF60E08A81A9DF0D
:100D00002FEFE21AF20AF1CF812F90E0A0E0B0E0DD
:100D1000BA2FA92F982F8827A02BAC01BD014D29F0
:100D2000802F880F880B90E0A0E0B0E0B82FAA27B2
:100D3000992788278A019B01082B192B2A2B3B2BEB
:100D4000C901B801DF91CF911F910F91FF90EF90F2
:100D5000DF900895CF93DF9390E0FC01E85EFD4FB4
:100D60002491FC01EE52FE4F8491882361F190E0C2
:100D7000880F991FFC01EC57FE4FC591D491FC01DF
:100D8000E256FE4FA591B491611109C09FB7F89446
:100D90008881209582238883EC912E230BC06230BA
:100DA00061F49FB7F8943881822F809583238883DC
:100DB000EC912E2B2C939FBF06C08FB7F894E8813F
:100DC0002E2B28838FBFDF91CF9108953FB7F894E2
:100DD0008091970390919803A0919903B0919A0301
:100DE00026B5A89B05C02F3F19F00196A11DB11D86
:100DF0003FBFBA2FA92F982F8827820F911DA11DC1
:100E0000B11DBC01CD0142E0660F771F881F991FFD
:100E10004A95D1F708952FB7F89460919303709194
:100E2000940380919503909196032FBF08951F928C
:100E30000F920FB60F9211242F933F938F939F938E
:100E4000AF93BF938091930390919403A0919503E6
:100E5000B09196033091920323E0230F2D3720F4B5
:100E60000196A11DB11D05C026E8230F0296A11D04
:100E7000B11D209392038093930390939403A093C6
:100E80009503B09396038091970390919803A09156
:100E90009903B0919A030196A11DB11D8093970308
:100EA00090939803A0939903B0939A03BF91AF9145
:100EB0009F918F913F912F910F900FBE0F901F9098
:100EC00018951F920F920FB60F9211240BB60F9226
:100ED0002F933F934F935F936F937F938F939F9342
:100EE000AF93BF93EF93FF93E0910202F09103025F
:100EF0001995FF91EF91BF91AF919F918F917F9144
:100F00006F915F914F913F912F910F900BBE0F907A
:100F10000FBE0F901F901895CF92DF92EF92FF9225
:100F20000F931F93CF93DF938C01C62FD0E0C12C7A
:100F3000D12C7601DC1741F0C801BADEC60ED71EEF
:100F4000E81EF91EDF5FF6CF2D2F30E040E050E0C5
:100F5000C701B6010E94AD1FCA01B901DF91CF914F
:100F60001F910F91FF90EF90DF90CF900895CF9257
:100F7000DF92EF92FF920F931F93CF93DF931F9215
:100F8000CDB7DEB78C01842F4EE052E0F8015183DB
:100F900040831582168217821086C12CD12C90E8CE
:100FA000E92E9FE3F92EC186D286E386F4868283FA
:100FB000638361E02983CEDE60E0F8018381CADECD
:100FC0002981203441F0203821F0203239F482E0A8
:100FD00003C081E001C083E0F801848360E0F80190
:100FE000828137DEC8010F90DF91CF911F910F9161
:100FF000FF90EF90DF90CF905BCE1F93CF93DF9366
:101000001F921F92CDB7DEB75A83498391E0909328
:101010003D0480935F0410923E04109260048AE2C3
:1010200096E0ADDC19816A818AE296E0A8DC612F46
:101030008AE296E0A4DC81E00E94901091E08111A8
:1010400090E0892F0F900F90DF91CF911F9108951D
:101050002F923F924F925F926F927F928F929F92C8
:10106000AF92BF92CF92DF92EF92FF920F931F93B6
:10107000CF93DF9300D000D0CDB7DEB78E83962E0E
:101080004D835901C8DE6B017C01312C812C222457
:1010900023949D81892F90E09C838B832801612C70
:1010A000712CFD813F1608F055C020923D04EE8161
:1010B000E0935F0410923E0410926004692D8AE26E
:1010C00096E05DDC81E00E94901020923D04FE815C
:1010D000F0935F0410923E04109260046B817C8157
:1010E000631971096132710514F060E270E06132D8
:1010F00008F060E28E81D0D710922D0480932E04E8
:1011000090912E0480912D049817F1F0011511058E
:1011100079F4C501880D911D87FC9A959A8389837E
:101120008AE296E0E9DBE981FA8180838394E8CF63
:1011300072DEDC01CB018C199D09AE09BF09841553
:101140009505A605B70528F38D81813208F080E268
:10115000380EA7CF01151105D1F05DDEDC01CB0102
:101160008C199D09AE09BF0920E030E08017910776
:10117000A207B30760F08D81282F30E0882D082C5E
:10118000000C990B8217930714F488248A94882DF5
:1011900026960FB6F894DEBF0FBECDBFDF91CF917C
:1011A0001F910F91FF90EF90DF90CF90BF90AF9085
:1011B0009F908F907F906F905F904F903F902F9077
:1011C00008951F920F920FB60F9211240BB60F9233
:1011D0002F933F934F935F936F937F938F939F933F
:1011E000AF93BF93EF93FF938091B900887F8036D0
:1011F00009F49CC068F5883209F45BC090F4803132
:1012000009F454C038F4882309F4F6C0883009F48E
:101210004DC0F5C0883109F44CC0803209F45DC07E
:10122000EEC0803409F468C048F4803309F455C036
:10123000883309F0E4C08093A504D8C0803509F450
:101240004FC0883509F45DC0883409F0D8C0D6C0D5
:10125000883909F4C7C0A8F4883709F467C038F49E
:10126000883609F463C0803709F460C0C8C0883884
:1012700009F4B8C0803909F45FC0803809F0BFC0F4
:101280005BC0803B09F486C038F4803A09F466C03C
:10129000883A09F47FC0B3C0803C09F4A7C0883CF9
:1012A00009F4A4C0883B09F48AC0A9C08091A204B3
:1012B00010C09091A4048091A304981770F5E09158
:1012C000A40481E08E0F8093A404F0E0EF57FB4F5D
:1012D00080818093BB0085EC86C08093A5048EC07E
:1012E000E091A40481E08E0F8093A4048091BB0060
:1012F000F0E0EF57FB4F80839091A4048091A3040A
:101300006EC0E091A40481E08E0F8093A4048091CC
:10131000BB00F0E0EF57FB4F80838091A604811162
:101320006DC081E08093A10484EA61C083E0809372
:10133000A70410929103CFCF80919103803208F0DF
:1013400051C0E091910381E08E0F809391038091D1
:10135000BB00F0E0EF58FC4F8083BDCF85EC80935D
:10136000BC001092A70480919103803230F4E09188
:101370009103F0E0EF58FC4F10826091910370E010
:10138000E0916F03F091700381E793E0199510925B
:10139000910335C084E08093A70410926E031092ED
:1013A0006D03E0916B03F0916C03199580916D03CF
:1013B000811105C081E080936D0310924B03E09191
:1013C0006E0381E08E0F80936E03F0E0E55BFC4FCF
:1013D00080818093BB0090916E0380916D0398177C
:1013E00008F479CF85E88093BC0009C085EC809330
:1013F000BC001092A70403C01092A5043BDAFF9131
:10140000EF91BF91AF919F918F917F916F915F917C
:101410004F913F912F910F900BBE0F900FBE0F90E9
:101420001F9018951F920F920FB60F9211240BB6B2
:101430000F922F933F934F935F936F937F938F936D
:101440009F93AF93BF93EF93FF93E0910002F091CE
:1014500001021995FF91EF91BF91AF919F918F91EB
:101460007F916F915F914F913F912F910F900BBEA4
:101470000F900FBE0F901F901895CF92DF92EF92B2
:10148000FF920F931F93CF93DF931092D703C6E37E
:10149000D6E008ED13E061E0CE013EDDCD80DE80D8
:1014A000EF80F8846C197D098E099F090E945E1CEB
:1014B00029853A854B855C850E94731EF8016193EE
:1014C0007193819391938F012D96F6E0CA36DF07D1
:1014D00011F7DF91CF911F910F91FF90EF90DF9067
:1014E000CF900895CF9388EA94E00E9412021816D4
:1014F00019060CF05FC088EA94E00E94F001C82F42
:101500008E3329F080914A0381113DC04CC0109266
:101510004A0381E080931004E0914903F0E0EF5D1D
:10152000FC4F108268E472E081E293E00E94A51A09
:10153000BC0188EE93E00E941F2168E472E080E025
:1015400090E00E94A51A0E947D1A0E94DB1E7093F3
:10155000200360931F0368E472E080E090E00E9443
:10156000A51A0E94801A90931E0380931D0388EA97
:1015700094E00E9412021816190624F688EA94E0F4
:101580000E94F001F4CF90914903E92FF0E0EF5D64
:10159000FC4FC0839F5F983219F09093490303C0BA
:1015A00087E280934903CC3329F41092490381E008
:1015B00080934A03CF9108954F925F926F927F92EA
:1015C0008F929F92AF92BF92CF92DF92EF92FF9253
:1015D0000F931F93CF93DF93CDB7DEB760970FB60E
:1015E000F894DEBF0FBECDBF80911C03882309F4A1
:1015F00095C210921C036EE08BE35AD78111FBCF8A
:1016000060912F0470E0762F662780913004682B5C
:10161000072E000C880B990B0E945E1C6093BB0385
:101620007093BC038093BD039093BE03609131041B
:1016300070E0762F662780913204682B072E000C0D
:10164000880B990B0E945E1C6093B7037093B803DC
:101650008093B9039093BA036091330470E0762FBE
:10166000662780913404682B072E000C880B990B99
:101670000E945E1C6093B3037093B4038093B50320
:101680009093B6036091370470E0762F66278091BF
:101690003804682B072E000C880B990B0E945E1CE7
:1016A0006D837E838F8398876093180370931903EB
:1016B00080931A0390931B036091390470E0762F96
:1016C000662780913A04682B072E000C880B990B33
:1016D0000E945E1C69877A878B879C8760931403BE
:1016E00070931503809316039093170360913B0446
:1016F00070E0762F662780913C04682B072E000C43
:10170000880B990B0E945E1C609310037093110369
:10171000809312039093130359DB80909F03909062
:10172000A003A090A103B090A203681979098A09C7
:101730009B090E945C1C20E034E244E759E40E94CB
:10174000731E69837A838B839C8340DB60939F0342
:101750007093A0038093A1039093A203C090B3035E
:10176000D090B403E090B503F090B6034090B70377
:101770005090B8036090B9037090BA03A701960126
:10178000C301B2010E94201E21EE3EE245E652E472
:101790000E94BD1C4B015C016093AF037093B003CA
:1017A0008093B1039093B203A3019201C301B201EC
:1017B0000E94BD1C6D877E878F87988BA70196013D
:1017C000C701B6010E94BD1C9B01AC016D857E85E1
:1017D0008F8598890E94AD1D0E94401F9B01AC011E
:1017E0008091BB039091BC03A091BD03B091BE0357
:1017F000BC01CD0190580E94731E0E944B1E21EE29
:101800003EE245E652E40E94BD1C6093AB03709338
:10181000AC038093AD039093AE0320E030E043E04F
:1018200053E46D817E818F8198850E94731E6D8344
:101830007E838F83988720E030E043E053E469851E
:101840007A858B859C850E94731E2B013C0120E0CC
:1018500030E044EB52ECC501B4010E94581C87FFF4
:1018600010C020E030E044EB52E46091CF0370916F
:10187000D0038091D1039091D2030E94311F18169A
:10188000D4F020E030E044EB52E4C501B4010E9402
:10189000311F18164CF520E030E044EB52EC60911B
:1018A000CF037091D0038091D1039091D2030E9415
:1018B000581C87FF19C08092B1069092B206A09280
:1018C000B306B092B4068092CF039092D003A09258
:1018D000D103B092D2038092A7039092A803A09262
:1018E000A903B092AA0316C0C980DA80EB80FC80FD
:1018F0000D811E812F813885B501A40185EA96E00E
:101900000E94BB026093CF037093D0038093D103F6
:101910009093D203C090CF03D090D003E090D10336
:10192000F090D20320E030E0A901C701B6010E9487
:10193000311F18165CF420E030E044EB52E4C7019C
:10194000B6010E94311F18165CF00EC020E030E096
:1019500044EB52ECC701B6010E94581C87FF04C03B
:1019600077FA709477F870944091AB035091AC0380
:101970006091AD037091AE03C980DA80EB80FC808A
:10198000930182018DE796E00E94BB026B017C010E
:101990006093D3037093D4038093D5039093D603BD
:1019A00029813A814B815C816D817E818F8198850F
:1019B0000E94BD1C2091A7033091A8034091A90368
:1019C0005091AA030E94AD1D4B015C016093A703D7
:1019D0007093A8038093A9039093AA0329813A8165
:1019E0004B815C81C301B2010E94BD1C2091A30305
:1019F0003091A4034091A5035091A6030E94AD1D10
:101A00002B013C016093A3037093A4038093A5036F
:101A10009093A60320E030E044E353ECC501B40109
:101A20000E94581C2091CF033091D0034091D103E4
:101A30005091D20329833A834B835C8387FD0AC08C
:101A400020E030E044E353E4C501B4010E94311FBB
:101A5000181664F489819A81AB81BC818093A703B5
:101A60009093A803A093A903B093AA0320E030E0C9
:101A700044E353ECC301B2010E94581C87FD0AC025
:101A800020E030E044E353E4C301B2010E94311F7F
:101A9000181644F4C092A303D092A403E092A503C5
:101AA000F092A6032DEC3CEC4CE45DEB69817A816D
:101AB0008B819C810E94311F87FD14C02DEC3CEC72
:101AC0004CE45DE369817A818B819C810E94581C82
:101AD000181644F01092CF031092D0031092D10345
:101AE0001092D2032DEC3CEC4CE45DEBC701B60147
:101AF0000E94311F87FD12C02DEC3CEC4CE45DE3ED
:101B0000C701B6010E94581C181644F01092D30366
:101B10001092D4031092D5031092D60360960FB69C
:101B2000F894DEBF0FBECDBFDF91CF911F910F9113
:101B3000FF90EF90DF90CF90BF90AF909F908F90ED
:101B40007F906F905F904F9008950F931F93CF9366
:101B5000DF931F921F92CDB7DEB78B0191E0909378
:101B60003D0498E690935F0410923E041092600446
:101B7000682F8AE296E02A8349830E94BF04498144
:101B800050E0B8018AE296E00E9490042A81822FF8
:101B9000C7D2182F882371F081E791E05CD2412FE2
:101BA00050E060E070E02AE088EA94E064D38DEDD4
:101BB00092E040D2812F0F900F90DF91CF911F9133
:101BC0000F9108952F923F924F925F926F927F9262
:101BD0008F929F92AF92BF92CF92DF92EF92FF923D
:101BE0000F931F93CF93DF93CDB7DEB76C970FB6EC
:101BF000F894DEBF0FBECDBF1D8A1E8A1F8A188EC5
:101C0000198A1A8A1B8A1C8A1D861E861F86188AB4
:101C100019861A861B861C861D821E821F821886C4
:101C200019821A821B821C82812C912C540188EE0D
:101C3000C82E83E0D82EE12CF12C08EE13E02BE621
:101C400036E04EE06BE380916A0602DAA0916B0603
:101C5000B0E0BA2FAA2780916C06A82BB0930F038F
:101C6000A0930E03E0916D06F0E0FE2FEE27809129
:101C70006E06E82BF0930D03E0930C0320916F06A2
:101C800030E0322F2227809170061901282A3092E5
:101C90000B0320920A036091730670E0762F66278B
:101CA00080917406682B7093090360930803409138
:101CB000750650E0542F442780917606482B5093A8
:101CC0000703409306038091770690E0982F8827BA
:101CD000709078068729909305038093040305E6A6
:101CE00080169104A104B1040CF4B0C02D01BB0F07
:101CF0006608770809811A812B813C81040D151D26
:101D0000261D371D09831A832B833C832F01FF0F68
:101D1000660877080D811E812F813885040D151DF9
:101D2000261D371D0D831E832F8338872101330C19
:101D30006608770809851A852B853C85040D151DD5
:101D4000261D371D09871A872B873C872B01770FA4
:101D5000660877080D851E852F853889040D151DA9
:101D6000261D371D0D871E872F87388B052E000CEB
:101D7000660B770B09891A892B893C89040F151F7B
:101D8000261F371F098B1A8B2B8B3C8B092E000CBF
:101D9000AA0BBB0B2D893E894F89588D280F391FFF
:101DA0004A1F5B1F2D8B3E8B4F8B588F3CE4831655
:101DB00034E09306A104B10409F048C069817A8136
:101DC0008B819C81A70196010E94AD1F3093CE03A9
:101DD0002093CD036D817E818F819885A701960127
:101DE0000E94AD1F3093CC032093CB0369857A8585
:101DF0008B859C85A70196010E94AD1F3093CA0375
:101E00002093C9036D857E858F859889A7019601EA
:101E10000E94AD1F3093C8032093C70369897A8954
:101E20008B899C89A70196010E94AD1F3093C60340
:101E30002093C5036D897E898F89988DA7019601AE
:101E40000E94AD1F3093C4032093C3034FEF841A45
:101E5000940AA40AB40A0E94E6062B013C0122E07F
:101E600030E040E050E0298F3A8F4B8F5C8F0E942A
:101E7000E606DC01CB0184199509A609B709298D6D
:101E80003A8D4B8D5C8D883E9340A105B10558F38A
:101E900068EE460E63E0561E611C711C2130310550
:101EA0004105510529F021E030E040E050E0DBCF72
:101EB0001DE4811614E09106A104B10409F0BDCE21
:101EC0006C960FB6F894DEBF0FBECDBFDF91CF91F9
:101ED0001F910F91FF90EF90DF90CF90BF90AF9048
:101EE0009F908F907F906F905F904F903F902F903A
:101EF0000895CF92DF92EF92FF926B017C01809167
:101F0000BF039091C003A091C103B091C20380931D
:101F10009B0390939C03A0939D03B0939E030E9408
:101F2000E6066093BF037093C0038093C103909350
:101F3000C2038091BF039091C003A091C103B091EF
:101F4000C20340919B0350919C0360919D0370914B
:101F50009E03841B950BA60BB70BC816D906EA0681
:101F6000FB06E8F6FF90EF90DF90CF90089588EAA7
:101F700094E00E94120221E0892B09F420E0822FD4
:101F800008951F920F920FB60F9211240BB60F9265
:101F90002F933F934F935F936F937F938F939F9371
:101FA000AF93BF93EF93FF9388EA94E00E945005AC
:101FB000FF91EF91BF91AF919F918F917F916F9121
:101FC0005F914F913F912F910F900BBE0F900FBEDD
:101FD0000F901F901895E091A804F091A90401902A
:101FE000F081E02D682F88EA94E01994FF920F9316
:101FF0001F93CF93DF93F82E062FC7E0D0E010E0B9
:1020000061E0802F0E9429068F2D0E9401060C2E70
:1020100001C0880F0A94EAF7182B60E0802F0E9415
:102020002906219768F7812FDF91CF911F910F919A
:10203000FF900895CF93DF93BC0188EA94E0D7D254
:10204000EC0165E972E088EA94E0D1D28C0F9D1F23
:10205000DF91CF9108950F931F93CF93DF938C015E
:10206000C0E0D0E0F801EC0FFD1F6491662371F031
:10207000E091A804F091A9040190F081E02D88EA94
:1020800094E01995892B11F02196ECCFCE01DF91C8
:10209000CF911F910F9108959091A7049111FCCFBA
:1020A00091E09093A7049093A6042FEF2093A504AA
:1020B0001092A404260F2093A3049093A20490915D
:1020C000A204880F892B8093A2048091A1048130FF
:1020D00061F41092A1048091A2048093BB008091CE
:1020E000BC0083FDF8CF85EC01C085EE8093BC0079
:1020F0008091A7048130E1F38091A404861710F445
:102100006091A404A1E8B4E021E634E0F9018E2F47
:10211000821B861718F48D918193F9CF862F08952D
:10212000382F2091600490915F04213208F049C05B
:102130008091A7048111FCCF42E04093A704309323
:10214000A6043FEF3093A5041092A4042093A304A7
:10215000AFE3B4E041E854E0FA013E2F341B3217FC
:1021600018F43D913193F9CF1092A2042091A2046A
:10217000990F922B9093A2049091A104913061F455
:102180001092A1049091A2049093BB009091BC0086
:1021900093FDF8CF95EC01C095EE9093BC00909123
:1021A000A7049230E1F39091A5049F3F79F08091CC
:1021B000A504803241F08091A504803331F084E0A1
:1021C00005C081E003C082E001C083E010923E04BC
:1021D0001092600410923D040895FC01A089B18919
:1021E00082E08C93A485B5851C92A685B78580E195
:1021F0008C93108EA489B58986E08C93A289B389CB
:102200008C9180618C93A289B3898C9188608C9326
:10221000A289B3898C9180688C930288F389E02D20
:1022200080818F7D808308950F931F93CF93DF93D9
:102230001F92CDB7DEB708EE13E09E012F5F3F4F30
:1022400041E065E780916A060E942808882339F0FA
:1022500089818E7790E09595879580936B0681E0D4
:1022600090916B06943309F080E00F90DF91CF914D
:102270001F910F9108954F925F926F927F92EF920C
:10228000FF920F931F93CF93DF93CDB7DEB7A19744
:102290000FB6F894DEBF0FBECDBF7C01FA01CB01B3
:1022A00019A2223008F42AE08E010F5D1F4F422E42
:1022B000512C612C712CBF01A30192010E94711D50
:1022C000F901CA01015011096A3014F4605D01C0BE
:1022D000695CD8016C93232B242B252B61F7B80163
:1022E000C70185D1A1960FB6F894DEBF0FBECDBF52
:1022F000DF91CF911F910F91FF90EF907F906F90A2
:102300005F904F9008954F925F926F927F928F925D
:102310009F92AF92BF92CF92DF92EF92FF926B01AA
:102320007C01B42E9B01AC010E94811F882319F00F
:1023300068EF72E027C026013701E89477F82FEFA5
:102340003FEF4FE75FE7C301B2010E94811F811198
:102350000DC02FEF3FEF4FE75FE7C301B2010E94CF
:10236000581C18161CF46CEF72E00CC02FEF3FEFF6
:102370004FE75FE4C701B6010E94311F18168CF4C5
:1023800060E073E088EA94E0FF90EF90DF90CF90F8
:10239000BF90AF909F908F907F906F905F904F9085
:1023A00026C12FEF3FEF4FE75FECC701B6010E9458
:1023B000581C87FDE5CF20E030E0A901C701B60138
:1023C0000E94581C87FF08C08DE205DE4C01F7FA19
:1023D000F094F7F8F09402C0812C912CA12C60E0CD
:1023E00070E080E09FE3AB1441F020E030E040E299
:1023F00051E40E94731EA394F6CF9B01AC01C70168
:10240000B6010E94AD1D2B013C010E94E01E6B0134
:102410007C010E945C1C9B01AC01C301B2010E94C3
:10242000AC1D2B013C012AE0B701A60188EA94E02B
:1024300022DF7C01E80CF91CBB2021F08EE2CBDD11
:10244000E80EF91EDB2CDD2029F120E030E040E22F
:1024500051E4C301B2010E94BD1C2B013C010E944A
:10246000E01E4B01A12CB12C2AE0B501A40188EAA1
:1024700094E001DFE80EF91EC501B4010E945C1C66
:102480009B01AC01C301B2010E94AC1D2B013C01B8
:10249000DA94D9CFC701FF90EF90DF90CF90BF9033
:1024A000AF909F908F907F906F905F904F90089526
:1024B000CF92DF92EF92FF920F931F93CF93DF9310
:1024C000D62F91E090933D0498E690935F0410928C
:1024D0003E0410926004682F8AE296E00E94BF04D6
:1024E00080E01EDEC82F882381F086E193E0B3DD13
:1024F0004C2F50E060E070E02AE088EA94E0BBDE18
:102500008DED92E097DD8C2F3DC06D2FD13208F01C
:1025100060E288E6C1DDC82F10922D0480932E045E
:102520008FE2E82E84E0F82E8701802F8E198D1718
:10253000F0F480912D04C81741F08AE296E00E94E1
:102540007C04F80181938F01F0CF0E94E6066B01B5
:102550007C010E94E606DC01CB018C199D09AE09C5
:10256000BF09883E9340A105B10518F4F2CF80E081
:1025700009C084E093E06FDD65E972E088EA94E0E9
:1025800036D085E0DF91CF911F910F91FF90EF90B2
:10259000DF90CF9008952BC0CF92DF92EF92FF9201
:1025A0000F931F93CF93DF936C017A018B01C0E0EF
:1025B000D0E0CE15DF0589F0D8016D918D01D601EF
:1025C000ED91FC910190F081E02DC6011995892BC8
:1025D00011F47E0102C02196ECCFC701DF91CF91AB
:1025E0001F910F91FF90EF90DF90CF9008956115AC
:1025F000710579F0FB0101900020E9F73197AF01F7
:10260000461B570BDC01ED91FC910280F381E02D1C
:10261000199480E090E00895CF93DF93CAE6D6E066
:102620002D97E881F9810190F081E02DCE01199577
:1026300086E0C633D807A1F7DF91CF910895CF93F5
:10264000DF93CDB7DEB729970FB6F894DEBF0FBE84
:10265000CDBF789484B5826084BD84B5816084BD2B
:1026600085B5826085BD85B5816085BD80916E0030
:10267000816080936E001092810080918100826061
:10268000809381008091810081608093810080919E
:1026900080008160809380008091B100846080938D
:1026A000B1008091B00081608093B0008091910072
:1026B000826080939100809191008160809391006D
:1026C000809190008160809390008091A100826051
:1026D0008093A1008091A10081608093A1008091EE
:1026E000A00081608093A00080912101826080938E
:1026F000210180912101816080932101809120013D
:1027000081608093200180917A00846080937A00B8
:1027100080917A00826080937A0080917A00816053
:1027200080937A0080917A00806880937A0010927A
:10273000C1001092260610922706109228061092C9
:1027400029061092E4051092E5051092E605109214
:10275000E7050E940B076B017C014B015C0128EB34
:10276000820E2BE0921EA11CB11C0E940B076C155F
:102770007D058E059F0528F086169706A806B906E2
:10278000A0F785E495E0909325068093240625DD47
:102790000E940B076093E4057093E5058093E605BE
:1027A0009093E70566E872E08091240690912506F3
:1027B000F2DE0E940B076B017C014B015C013AE0E9
:1027C000830E911CA11CB11C0E940B076C157D058A
:1027D0008E059F0528F086169706A806B906A0F76D
:1027E00011E01093F8050E94E60660939F03709332
:1027F000A0038093A1039093A2030E94E606609336
:10280000190470931A0480931B0490931C040E9473
:10281000E60660939B0370939C0380939D039093C3
:102820009E0340E1409381001092800093E09093DA
:10283000160424ED30E330931504209314043093F0
:1028400087002093860083E180938100409391006C
:1028500010929000309397002093960080939100FF
:1028600026EF34E0309303022093020210936F00AE
:102870009093130420E533EC309312042093110459
:1028800030939700209396008093910082EF94E01C
:1028900090930102809300021093710060E082E047
:1028A0000E94AA0688EA94E098DC10922D04109207
:1028B0002E0410923E04109260041092A70410930C
:1028C000A6041092A10461E084E10E94290661E05F
:1028D00085E10E9429068091B9008E7F8093B9001E
:1028E0008091B9008D7F8093B90088E48093B8000F
:1028F00085E48093BC008CE08093B80087E08093EF
:102900002F0410923004109231041092320420E00F
:1029100044E06FE274E089E118D98111F8CF11E049
:10292000198321E041E0BE016F5F7F4F8BE60DD937
:102930008111F6CF61E085E7BBDD8111FBCF80918E
:102940002F04883621F084EA92E085DBFFCF60E136
:1029500077E280E090E0CDDA66E08BE3A9DD8111DB
:10296000FBCF60912F0470E0762F662780913004B2
:10297000682B072E000C880B990BA0D76A837B83EA
:102980008C839D836093BB037093BC038093BD03D2
:102990009093BE036091310470E0762F662780919A
:1029A0003204682B072E000C880B990B87D74B013C
:1029B0005C016093B7037093B8038093B90390935D
:1029C000BA036091330470E0762F66278091340457
:1029D000682B072E000C880B990B70D76B017C01BC
:1029E0006093B3037093B4038093B5039093B603DD
:1029F0009B01AC01C501B4010E94201E21EE3EE204
:102A000045E652E4BAD72B013C016093AF037093C3
:102A1000B0038093B1039093B203A5019401C50163
:102A2000B401ABD74B015C01A7019601C701B60108
:102A3000A4D79B01AC01C501B4010E94AD1D0E9449
:102A4000401F9B01AC016A817B818C819D819058E4
:102A50000E94731E0E944B1E21EE3EE245E652E4A8
:102A60008CD76093AB037093AC038093AD039093CA
:102A7000AE034092B1065092B2066092B3067092D5
:102A8000B4066093890670938A0680938B069093B0
:102A90008C064092A7035092A8036092A9037092FB
:102AA000AA036093A3037093A4038093A503909358
:102AB000A60381E080932C0488E992E0BBDA92E1DE
:102AC000A92E92E0B92E06E316E0C12CD12C760196
:102AD000F50181919191A191B1915F01F8018187F7
:102AE0009287A387B4876AE0C8010E948C07E6D664
:102AF0000E94DB1ED80115966D937D938D939C9358
:102B000018976BEA72E088EA94E045DD2AE0B701A5
:102B1000A60188EA94E0AFDB6DED72E088EA94E00C
:102B20003ADD035F1F4FBFEFCB1ADB0AEB0AFB0A4C
:102B3000E4E0CE16D104E104F10451F681E0809383
:102B4000170461E08DE00E94AA06C12CF0E4DF2E9C
:102B50000AE010E0ADEFEA2EFF24FA94B3E0AB2ECA
:102B6000B12C0E94E6062B013C016093BF037093D9
:102B7000C0038093C1039093C20380911904909184
:102B80001A04A0911B04B0911C04A3019201281BFC
:102B9000390B4A0B5B0BDA01C901803A9648A14018
:102BA000B10588F06091180481E0682760931804EB
:102BB0008DE00E9429064092190450921A046092F6
:102BC0001B0470921C040E94DC0A8091D7038111BF
:102BD0000E943D0A0E94720A809110048111109295
:102BE000100467EE72E088EE93E00E941621892BB4
:102BF000E9F48FEB92E02FDA6091CF037091D0036C
:102C00008091D1039091D20342E07DDB8DEB92E085
:102C100022DA6091D3037091D4038091D50390910F
:102C2000D60342E070DB8BEB92E015DA63EB72E0E7
:102C300088EE93E00E941621892B09F0F1C165EB23
:102C400072E088EA94E0A7DC7091D3036091D4032A
:102C50009091D5038091D6034090CF035090D0033C
:102C60006090D1037090D2036F837E8389879887A9
:102C70000E94DC0A6F817E81898598859090D303BC
:102C80008090D4033090D5032090D603272F362F81
:102C9000492F582F692D782D832D922D5DD79F7741
:102CA0002FE832EC45EF5CE30E94311F181694F4D4
:102CB0004090CF035090D0036090D1037090D20326
:102CC00060EA76E881E090E014D90E94DC0AB40161
:102CD000C101D4CFA30192016091CF037091D003C1
:102CE0008091D1039091D20337D79F772FE832ECB0
:102CF00045EF5CE30E94311F1816D4F261E08DE0CD
:102D00000E9429066AEB72E088EA94E044DC60E203
:102D10007EE480E090E0EDD860E375E780E090E04D
:102D2000E8D882DA811103C06AE672E002C06AE480
:102D300072E088EA94E02FDC77DA8823E9F360E137
:102D400077E280E090E0D5D840E050E066E0809106
:102D50006A060E94FD0740E050E068E080916A0644
:102D60000E94FD0740E050E06AE080916A060E9400
:102D7000FD0740E050E063E180916A060E94FD0794
:102D800040E050E065E180916A060E94FD0740E066
:102D900050E067E180916A060E94FD0799249394B0
:102DA0000E94720A8091100481111092100467ED44
:102DB00072E088EE93E00E941621892B11F4909224
:102DC00029041092E80380912A0490912B04892B06
:102DD00029F480912904882309F49DC180912A0453
:102DE00090912B04019709F0D6C08091290481119C
:102DF000D2C0A7C1B7010E949A1F80911D04909173
:102E00001E04680F791F70931E0460931D04809147
:102E100029048111B1C0409127045091280466E033
:102E200080916A060E94FD07409125045091260476
:102E300068E080916A060E94FD074091230450914A
:102E400024046AE080916A060E94FD0740912104F3
:102E50005091220463E180916A060E94FD0740912F
:102E60001F045091200465E180916A060E94FD07CD
:102E700040911D0450911E0467E180916A060E94F2
:102E8000FD070E94E20D89ED92E0D4D88091CD0338
:102E90009091CE039C0197FF04C022273327281B63
:102EA000390B2B3031050CF4BBC1B8010E949A1FBD
:102EB0008091270490912804861B970B90932804F7
:102EC0008093270420E030E08091CB039091CC03E5
:102ED000AC0197FF04C044275527481B590B4B30C2
:102EE00051050CF0A0C12F5F3F4F4091C903509195
:102EF000CA03C601841B950B181619060CF4A0C151
:102F000050544B3051050CF09DC12F5F3F4F8091C5
:102F1000C7039091C803AC0197FF04C0442755270D
:102F2000481B590B433051050CF099C12F5F3F4F9F
:102F30008091C5039091C603AC0197FF04C044275C
:102F40005527481B590B433051050CF095C12F5F95
:102F50003F4F8091C3039091C403AC0197FF04C01D
:102F600044275527481B590B433051050CF042CFDD
:102F70002530310509F04BCF80912A0490912B0424
:102F8000019690932B0480932A0460EA76E881E00E
:102F900090E00E94790F80912A0490912B0402976F
:102FA00029F480912904882309F473C180912A04AB
:102FB00090912B0403972CF0E6E38E2EE6E09E2EF4
:102FC00005C0809129048111F7CFEACE6AE0C401DF
:102FD0000E948C0773D4EFD6D40115966D937D9320
:102FE0008D939C9318978DEC92E035D8BDE08B0EB5
:102FF000911CEAE68E16E6E09E0641F783EC92E02D
:103000002AD810922B0410922A0480912904882334
:1030100039F06FED72E088EA94E0BDDA109229048D
:1030200063EE72E088EE93E00E941621892B21F472
:1030300080912C04811170C166EE72E088EE93E0FD
:103040000E941621892B09F061C08091D70381115C
:103050000E943D0A69EE72E088EA94E09CDA68E436
:1030600072E088EA94E097DA8091D8039091D903CE
:10307000A091DA03B091DB03BC01CD019F7742E060
:1030800042D968E472E088EA94E085DA8091DC0352
:103090009091DD03A091DE03B091DF03BC01CD016F
:1030A0009F7742E030D966EF72E088EA94E073DA05
:1030B0006EEE72E088EA94E06EDA68E472E088EA24
:1030C00094E069DA8091E0039091E103A091E2033A
:1030D000B091E303BC01CD019F7742E014D968E4CD
:1030E00072E088EA94E057DA8091E4039091E50376
:1030F000A091E603B091E703BC01CD019F7742E0C8
:1031000002D966EF72E088EA94E045DA1092E803AB
:103110000E94270226CD8FEE92E00E942B100E9483
:10312000E20D80912A0490912B04019690932B0438
:1031300080932A0460EA76E881E090E00E94790FAB
:103140004DCE86ED92E00E942B108091CD039091A0
:10315000CE0397FD079673E0959587957A95E1F7ED
:1031600091958195910990932804809327048091EB
:10317000CB039091CC0397FD079663E095958795D7
:103180006A95E1F791958195910990932604809332
:1031900025048091C9039091CA039601281B390B1D
:1031A000C90137FD079653E0959587955A95E1F744
:1031B00090932404809323048091C7039091C803C3
:1031C00097FD03969595879595958795919581950A
:1031D000910990932204809321048091C5039091DA
:1031E000C60397FD03969595879595958795919537
:1031F000819591099093200480931F048091C303CB
:103200009091C40397FD039695958795959587951D
:1032100091958195910990931E0480931D04FBCD97
:1032200021E030E051CEB80185D6809125049091FF
:103230002604861B970B909326048093250455CE75
:10324000AC015FCEB80176D680912304909124041E
:10325000680F791F709324046093230458CEB7013C
:1032600069D68091210490912204680F791F709390
:103270002204609321045CCEB7015CD680911F04C8
:1032800090912004680F791F7093200460931F04AD
:1032900060CE0E94E20D409127045091280466E020
:1032A00080916A060E94FD074091250450912604F2
:1032B00068E080916A060E94FD07409123045091C6
:1032C00024046AE080916A060E94FD07409121046F
:1032D0005091220463E180916A060E94FD074091AB
:1032E0001F045091200465E180916A060E94FD0749
:1032F00040911D0450911E0467E180916A060E946E
:10330000FD0760EA76E881E090E00E94790FB092D4
:103310002B04A0922A044ACE63EF72E088EA94E07C
:103320003AD98ACE0F931F93E8EAF4E0138212820F
:1033300088EE93E0A0E0B0E084839583A683B78312
:1033400028E232E0318320834DEC50E055874487FA
:103350004CEC50E05787468748EC50E0518B408B4F
:1033600049EC50E0538B428B4AEC50E0558B448B38
:103370004EEC50E0578B468B118E128E138E148EAE
:10338000E5E4F5E01382128284839583A683B783F4
:103390003183208325EC30E03587248724EC30E02E
:1033A0003787268720EC30E0318B208B21EC30E012
:1033B000338B228B22EC30E0358B248B26EC30E0F3
:1033C000378B268B118E128E138E148EE2EEF5E063
:1033D0001682178210861186128613861486158629
:1033E00016861786108A118A128A138A148A158AF9
:1033F000EAE2F6E01382128284839583A683B78380
:103400008AE392E091838083E5EAF6E00FE612E139
:1034100023E83AE3008311832283338346EA5BE99E
:1034200064E47BE344835583668377838FE892EC7F
:10343000A5EFBCE380879187A287B38714861586A2
:1034400016861786108A118A128A138A108E118E98
:10345000128E138E148E158E168E178E10A211A238
:1034600012A213A214A215A216A217A2EDE7F6E06B
:103470000083118322833383448355836683778358
:1034800080879187A287B38714861586168617864C
:10349000108A118A128A138A108E118E128E138E40
:1034A000148E158E168E178E10A211A212A213A2C0
:1034B00014A215A216A217A288E680936A0620E835
:1034C0004BE16AE186E396E00E94B70720E849E114
:1034D00068E183E496E00E94B70720E846E167E1EF
:1034E00080E596E00E94B70720E84DE16CE18DE5AC
:1034F00096E01F910F910C94B7076627772757C066
:10350000FC0188279927E89421912032E9F329309A
:1035100010F02E30C8F32B3239F02D3231F468948C
:1035200003C03DD0820F911D219120532A30C8F352
:103530001EF4909581959F4F089591119EC1803200
:1035400019F089508550D0F708954DEC56E000C031
:10355000FA01A191B081009719F41097E1F0CD0123
:10356000DC01CD010D90002011F4C00113C0FB015E
:103570002191222319F02015D9F7F3CFFB012191D6
:10358000201519F41E92119606C02223C1F70D9042
:103590000020A1F7D001FA01A193B08308957AE049
:1035A000979F902D879F802D910D112408956F92E4
:1035B0007F928F929F92AF92BF92CF92DF92EF92C3
:1035C000FF920F931F93CF93DF93EC017B01611563
:1035D000710519F0DB018D939C938E010F5F1F4FD6
:1035E0007880872D90E0A9DF892B11F0E801F5CFD5
:1035F000BDE27B1205C00F5F1F4F7980C1E008C09C
:10360000EBE27E1204C08E010E5F1F4F7980C0E096
:103610006801F1E0CF1AD10843E050E06EE371E0B9
:10362000C6012ED1892BE9F4680122E0C20ED11C1B
:1036300045E050E069E371E0C60122D1892B21F415
:10364000680187E0C80ED11CE114F10419F0D7011C
:10365000CD92DC92C111F9C060E070E080E89FE794
:10366000FDC043E050E066E371E0C60109D1892B5B
:1036700051F4E114F10409F4EDC00E5F1F4FF7019E
:1036800011830083E7C0680160E070E0CB0100E0D7
:1036900010E0F601D0EDD70DDA3050F52C2F226076
:1036A000622E2C2F2870C2FF05C0211127C00F5F8A
:1036B0001F4F24C0222311F001501109A5E0B0E0F2
:1036C0009B01AC0130D24B015C01880C991CAA1CF7
:1036D000BB1CC501B4016D0F711D811D911D6839A1
:1036E000A9E97A078A07A9E19A0740F0C66005C0F0
:1036F000DE3F51F4C3FD44C0C8606C2EBFEFCB1A4F
:10370000DB0A7080C62DC5CF2D2F2F7D2531C1F549
:1037100040814D3211F4C06106C04B3221F0319628
:1037200021E030E006C03296D60111964C9122E09D
:1037300030E0A0EDA40FAA3018F0E21BF30B20C07C
:1037400040E050E04038BCE05B075CF49A01220F97
:10375000331F220F331F420F531F440F551F4A0FB1
:10376000511D3196DF0111972C91A0EDA20FAA30C7
:1037700048F3C4FF03C0519541955109040F151F2B
:10378000C1FF07C0E114F10421F03197D701ED9397
:10379000FC9392D0C370C33019F06B017C0106C05A
:1037A0006B017C01F7FAF094F7F8F09420E030E038
:1037B000A901C701B6017CD0882309F443C017FFD3
:1037C00006C0119501951109C5E5D1E002C0CDE60D
:1037D000D1E05E01B8E1AB1AB1084601BE2DAF2DB4
:1037E00090E2E92EF12C0E151F057CF0FE012591CB
:1037F000359145915491B4018B2F9A2FBED04B0136
:10380000B82FA92F0E191F09EECF2497F594E7942E
:10381000CA15DB0541F76401EB2EFA2E8E2D880FB9
:103820008F2D881F8F3F41F020E030E0A901C701B4
:10383000B6013ED0811106C082E290E09093D0069E
:103840008093CF06C701B60109C060E070E080E850
:103850009FEF04C060E070E080EC9FE7DF91CF91C4
:103860001F910F91FF90EF90DF90CF90BF90AF909E
:103870009F908F907F906F90089599278827089543
:10388000FB01DC014150504088F08D9181341CF0E7
:103890008B350CF4805E659161341CF06B350CF453
:1038A000605E861B611171F3990B0895881BFCCF34
:1038B00040D008F481E00895E89409C097FB3EF4F5
:1038C00090958095709561957F4F8F4F9F4F99236D
:1038D000A9F0F92F96E9BB279395F69587957795EB
:1038E0006795B795F111F8CFFAF4BB0F11F460FFAB
:1038F0001BC06F5F7F4F8F4F9F4F16C0882311F003
:1039000096E911C0772321F09EE8872F762F05C016
:10391000662371F096E8862F70E060E02AF09A95B1
:10392000660F771F881FDAF7880F9695879597F9A6
:103930000895990F0008550FAA0BE0E8FEEF161640
:103940001706E807F907C0F012161306E407F50793
:1039500098F0621B730B840B950B39F40A2661F007
:10396000232B242B252B21F408950A2609F4A140AA
:10397000A6958FEF811D811D08950BD078C069D069
:1039800028F06ED018F0952309F05AC05FC01124BA
:10399000A2C07ED0A0F3959FD1F3950F50E0551FA4
:1039A000629FF001729FBB27F00DB11D639FAA2794
:1039B000F00DB11DAA1F649F6627B00DA11D661FE3
:1039C000829F2227B00DA11D621F739FB00DA11D04
:1039D000621F839FA00D611D221F749F3327A00DBE
:1039E000611D231F849F600D211D822F762F6A2F5A
:1039F00011249F5750408AF0E1F088234AF0EE0FDF
:103A0000FF1FBB1F661F771F881F91505040A9F7EB
:103A10009E3F510570F014C05EC05F3FECF3983ECE
:103A2000DCF3869577956795B795F795E7959F5F52
:103A3000C1F7FE2B880F911D9695879597F90895EC
:103A400097F99F6780E870E060E008959FEF80EC51
:103A5000089500240A9416161706180609060895F4
:103A600000240A9412161306140605060895092E5A
:103A70000394000C11F4882352F0BB0F40F4BF2BC9
:103A800011F460FF04C06F5F7F4F8F4F9F4F089509
:103A900057FD9058440F551F59F05F3F71F04795FF
:103AA000880F97FB991F61F09F3F79F087950895E4
:103AB000121613061406551FF2CF4695F1DF08C003
:103AC000161617061806991FF1CF86957105610520
:103AD00008940895E894BB2766277727CB0197F9C8
:103AE0000895A1E21A2EAA1BBB1BFD010DC0AA1F3F
:103AF000BB1FEE1FFF1FA217B307E407F50720F057
:103B0000A21BB30BE40BF50B661F771F881F991FD1
:103B10001A9469F760957095809590959B01AC011A
:103B2000BD01CF01089509D0A59F900DB49F900DC0
:103B3000A49F800D911D11240895A29FB001B39FF1
:103B4000C001A39F700D811D1124911DB29F700DA6
:103B5000811D1124911D08955058BB27AA270ED00E
:103B600086CF77DF30F07CDF20F031F49F3F11F417
:103B70001EF46CCF0EF4E095E7FB62CFE92F88DFEF
:103B800080F3BA17620773078407950718F071F47A
:103B90009EF5A0CF0EF4E0950B2EBA2FA02D0B01B1
:103BA000B90190010C01CA01A0011124FF27591B82
:103BB00099F0593F50F4503E68F11A16F040A22F88
:103BC000232F342F4427585FF3CF469537952795F9
:103BD000A795F0405395C9F77EF41F16BA0B620BF8
:103BE000730B840BBAF09150A1F0FF0FBB1F661F3F
:103BF000771F881FC2F70EC0BA0F621F731F841F82
:103C000048F4879577956795B795F7959E3F08F0A7
:103C1000B3CF9395880F08F09927EE0F9795879566
:103C2000089517DF58F080E891E009F49EEF18DF5F
:103C300028F040E851E059F45EEF09C007CF4ACFC1
:103C4000E92FE07825DF68F3092E052AC1F326174E
:103C500037074807590738F00E2E07F8E02569F0B6
:103C6000E025E0640AC0EF6307F8009407FADB017F
:103C7000B9019D01DC01CA01AD01EF9343D0F7DE2C
:103C80000AD05F91552331F02BED3FE049E450FD20
:103C900049EC63CF0895DF93DD27B92FBF7740E864
:103CA0005FE31616170648075B0710F4D92FDDD01F
:103CB0009F938F937F936F9321D1E8E0F1E0ACD095
:103CC000D6DE2F913F914F915F9163DEDD2349F066
:103CD0009058A2EA2AED3FE049EC5FE3D0785D27F7
:103CE0004DDFDF91C4CE0CD0C2CEBADE40F0B1DEE3
:103CF00030F021F45F3F19F0A3CE5111ECCEA6CEE7
:103D0000C7DE98F39923C9F35523B1F3951B550BDF
:103D1000BB27AA2762177307840738F09F5F5F4F9E
:103D2000220F331F441FAA1FA9F333D00E2E3AF0DF
:103D3000E0E830D091505040E695001CCAF729D0F9
:103D4000FE2F27D0660F771F881FBB1F2617370748
:103D50004807AB07B0E809F0BB0B802DBF01FF2778
:103D600093585F4F2AF09E3F510568F069CEB3CE5D
:103D70005F3FECF3983EDCF3869577956795B795B2
:103D8000F7959F5FC9F7880F911D9695879597F9CD
:103D90000895E1E0660F771F881FBB1F6217730746
:103DA0008407BA0720F0621B730B840BBA0BEE1F5B
:103DB00088F7E095089504D06894B1118CCE0895E9
:103DC0006FDE88F09F5790F0B92F9927B751A0F078
:103DD000D1F0660F771F881F991F1AF0BA95C9F79F
:103DE00012C0B13081F076DEB1E0089573CE672F56
:103DF000782F8827B85F39F0B93FCCF3869577954F
:103E00006795B395D9F73EF4909580957095619537
:103E10007F4F8F4F9F4F0895DF93CF931F930F9343
:103E2000FF92EF92DF927B018C01689405C0DA2E3D
:103E3000EF01AFDDFE01E894A59125913591459103
:103E40005591AEF3EF019ADEFE019701A801DA94D5
:103E500079F7DF90EF90FF900F911F91CF91DF9155
:103E6000089567DD08F48FEF08959B01AC0160E0D1
:103E700070E080E89FE337CF11F40EF4E7CD45C042
:103E80000FDED0F39923D9F3CEF39F57550B87FF5D
:103E90004AD00024A0E640EA9001805856959795B4
:103EA00028F4805C660F771F881F20F026173707DD
:103EB000480730F4621B730B840B202931294A2BED
:103EC000A69517940794202531254A2758F7660FA1
:103ED000771F881F20F026173707480730F4620B3A
:103EE000730B840B200D311D411DA09581F7B90185
:103EF000842F9158880F9695879508959B01AC0162
:103F00003CCD17DD880B990B08959F3F31F0915000
:103F100020F4879577956795B795880F911D9695AD
:103F2000879597F9089591505040660F771F881F25
:103F3000D2F7089597FB072E16F4009406D077FD6C
:103F400008D02FD007FC05D03EF4909581959F4F67
:103F50000895709561957F4F0895052E97FB16F48F
:103F600000940FD057FD05D0BCDD07FC02D046F40D
:103F700008C050954095309521953F4F4F4F5F4F6A
:103F8000089590958095709561957F4F8F4F9F4FC5
:103F90000895EE0FFF1F881F8BBF0790F691E02D4D
:103FA0001994AA1BBB1B51E107C0AA1FBB1FA61770
:103FB000B70710F0A61BB70B881F991F5A95A9F7D2
:103FC00080959095BC01CD010895CF93DF93823009
:103FD000910510F482E090E0E091D306F091D406D0
:103FE00020E030E0C0E0D0E0309711F14081518115
:103FF00048175907C0F04817590761F48281938127
:10400000209719F09B838A832BC09093D4068093CA
:10401000D30626C02115310519F04217530718F4AD
:104020009A01BE01DF01EF010280F381E02DDCCFB8
:104030002115310509F1281B390B2430310590F485
:1040400012968D919C9113976115710521F0FB01DA
:104050009383828304C09093D4068093D306FD019A
:10406000329644C0FD01E20FF31F819391932250D9
:1040700031092D933C933AC02091D1063091D2065C
:10408000232B41F420910602309107023093D2068F
:104090002093D106209104023091050221153105AB
:1040A00041F42DB73EB74091080250910902241BFC
:1040B000350BE091D106F091D206E217F307A0F498
:1040C0002E1B3F0B2817390778F0AC014E5F5F4F6E
:1040D0002417350748F04E0F5F1F5093D2064093C8
:1040E000D1068193919302C0E0E0F0E0CF01DF912F
:1040F000CF9108950F931F93CF93DF93009709F407
:104100008CC0FC013297138212820091D306109169
:10411000D4060115110581F420813181820F931F8E
:104120002091D1063091D2062817390779F5F093FE
:10413000D206E093D10671C0D80140E050E0AE173E
:10414000BF0750F412962D913C911397AD012115A4
:10415000310509F1D901F3CF9D01DA0133832283BF
:1041600060817181860F971F8217930769F4EC01B4
:1041700028813981260F371F2E5F3F4F31832083DF
:104180008A819B8193838283452B29F4F093D40603
:10419000E093D30642C01396FC93EE931297ED0181
:1041A000499159919E01240F351FE217F30771F4CD
:1041B00080819181840F951F029611969C938E9316
:1041C0008281938113969C938E931297E0E0F0E0A6
:1041D000D80112968D919C911397009719F0F801D0
:1041E0008C01F6CF8D919C9198012E5F3F4F820FED
:1041F000931F2091D1063091D2062817390769F410
:10420000309729F41092D4061092D30602C013827C
:1042100012821093D2060093D106DF91CF911F91A5
:104220000F91089581E090E0F89410C0FB01DC014B
:104230008D91019080190110D9F3990B0895FB011C
:10424000DC0101900D920020E1F7089511E0C5E92D
:10425000D1E000E005C0802FFE019BDE2196011D0C
:0E426000C639D10780E00807B1F7F894FFCF08
:10426E00F104B1020000D506800000000000B20289
:10427E00FC04003CF047007E81470038C7470070C1
:10428E009447E803000000009A05CC12E101E00516
:10429E001202F001040200000000BF049004EE04BC
:1042AE006C04B3027C046D042C007B4D50553630EB
:1042BE00353020636F6E6E656374696F6E20737533
:1042CE00636365737366756C7D007B4D5055363038
:1042DE00353020636F6E6E656374696F6E20666134
:1042EE00696C65647D00564D4450565F317C315F7C
:1042FE00564D4450560D0A007B48583731312073C5
:10430E0063616C6520696E69747D007B52656164C2
:10431E00793A0043003C4F4B3E007B4D50553630B2
:10432E0035302043616C6962726174696F6E20531F
:10433E006B657463687D0045007B2E2E2E7D003CE0
:10434E00523E004154004C50003C4C3132003C4C2B
:10435E003334003C41423E006E616E00696E660071
:04436E006F76660000
:020000023000CC
:10E000000D9489F10D94B2F10D94B2F10D94B2F129
:10E010000D94B2F10D94B2F10D94B2F10D94B2F1F0
:10E020000D94B2F10D94B2F10D94B2F10D94B2F1E0
:10E030000D94B2F10D94B2F10D94B2F10D94B2F1D0
:10E040000D94B2F10D94B2F10D94B2F10D94B2F1C0
:10E050000D94B2F10D94B2F10D94B2F10D94B2F1B0
:10E060000D94B2F10D94B2F10D94B2F10D94B2F1A0
:10E070000D94B2F10D94B2F10D94B2F10D94B2F190
:10E080000D94B2F10D94B2F10D94B2F10D94B2F180
:10E090000D94B2F10D94B2F10D94B2F10D94B2F170
:10E0A0000D94B2F10D94B2F10D94B2F10D94B2F160
:10E0B0000D94B2F10D94B2F10D94B2F10D94B2F150
:10E0C0000D94B2F10D94B2F10D94B2F10D94B2F140
:10E0D0000D94B2F10D94B2F10D94B2F10D94B2F130
:10E0E0000D94B2F141546D656761323536300041AF
:10E0F000726475696E6F206578706C6F72657220DE
:10E1000073746B3530305632206279204D4C530099
:10E11000426F6F746C6F616465723E004875683F52
:10E1200000436F6D70696C6564206F6E203D200048
:10E130004350552054797065202020203D20005FF9
:10E140005F4156525F415243485F5F3D2000415658
:10E1500052204C696243205665723D20004743437C
:10E160002056657273696F6E203D20004350552024
:10E1700049442020202020203D20004C6F7720663D
:10E18000757365202020203D20004869676820665F
:10E190007573652020203D200045787420667573D6
:10E1A00065202020203D20004C6F636B2066757336
:10E1B000652020203D20004D617220203720323024
:10E1C000313300312E362E3800342E332E350056A2
:10E1D00023202020414444522020206F7020636F70
:10E1E00064652020202020696E73747275637469E1
:10E1F0006F6E2061646472202020496E74657272B3
:10E20000757074006E6F20766563746F7200726A49
:10E210006D702020006A6D70200057686174207056
:10E220006F72743A00506F7274206E6F7420737541
:10E2300070706F72746564004D7573742062652030
:10E2400061206C6574746572002000577269747483
:10E25000696E672045450052656164696E672045B7
:10E26000450045452065727220636E743D00504F35
:10E27000525400303D5A65726F2061646472003FF1
:10E280003D43505520737461747300403D454550C3
:10E29000524F4D207465737400423D426C696E6B41
:10E2A000204C454400453D44756D70204545505215
:10E2B0004F4D00463D44756D7020464C415348001B
:10E2C000483D48656C70004C3D4C69737420492F83
:10E2D0004F20506F72747300513D51756974005234
:10E2E0003D44756D702052414D00563D73686F7707
:10E2F00020696E7465727275707420566563746FF0
:10E30000727300593D506F727420626C696E6B00BD
:10E310002A0011241FBECFEFD1E2DEBFCDBF01E046
:10E320000CBF12E0A0E0B2E0EEE1FDEF03E00BBFB6
:10E3300002C007900D92A030B107D9F712E0A0E01B
:10E34000B2E001C01D92AE30B107E1F70F9460F367
:10E350000D948DFE01E20EBF0FEF0DBF11241FBE05
:10E360000D9460F30D9400F020E030E040ED57E0B4
:10E3700005C0FA013197F1F72F5F3F4F2817390792
:10E38000C0F308959C01260F311DC901A0E0B0E043
:10E390002F5F3F4FABBFFC018791882361F08093D3
:10E3A000C6008091C00086FFFCCF8091C0008064D1
:10E3B0008093C000EACF08958DE08093C6008091DD
:10E3C000C00086FFFCCF8091C00080648093C000B5
:10E3D0008AE08093C6008091C00086FFFCCF8091C8
:10E3E000C00080648093C00008950F94C2F10F9420
:10E3F000DCF10895FC019081992359F09093C600B7
:10E400008091C00086FFFCCF8091C0008064809323
:10E41000C0003196992379F70895282F982F929567
:10E420009F70892F805D8A3308F0895F8093C600D2
:10E430008091C00086FFFCCF8091C00080648093F3
:10E44000C000822F8F70982F905D9A3308F0995FEB
:10E450009093C6008091C00086FFFCCF8091C000E1
:10E4600080648093C00008959C01FB01853691056E
:10E470001CF46330710594F0C90164E670E00F94F8
:10E480002EFE605D7F4F6093C6008091C00086FFC6
:10E49000FCCF8091C00080648093C0002B30310598
:10E4A00014F43297B4F0C90164E670E00F942EFEC4
:10E4B0006AE070E00F942EFE605D7F4F6093C600AF
:10E4C0008091C00086FFFCCF8091C0008064809363
:10E4D000C000C9016AE070E00F942EFEC0968093E0
:10E4E000C6008091C00086FFFCCF8091C000806490
:10E4F0008093C00008951F93182F8EE692EE60E07F
:10E500000F94C2F11093C6008091C00086FFFCCF2B
:10E510008091C00080648093C0000F94DCF11F9153
:10E5200008952F923F924F925F926F927F928F92B7
:10E530009F92AF92BF92CF92DF92EF92FF920F9392
:10E540001F93DF93CF93CDB7DEB762970FB6F894E2
:10E55000DEBF0FBECDBF382E622ECA01DB015C01CB
:10E560006D01772420E2222E2E010894411C511CBB
:10E570008BC081E0A81680E0B80681E0C80680E084
:10E58000D80628F0C601AA27BB270F940DF2BB2797
:10E59000AD2D9C2D8B2D0F940DF28A2D0F940DF225
:10E5A0002092C6008091C00086FFFCCF8091C00001
:10E5B00080648093C0009DE29093C6008091C0006B
:10E5C00086FFFCCF8091C00080648093C0002092C1
:10E5D000C6008091C00086FFFCCF8091C00080649F
:10E5E0008093C00019828601750188249924A1E0D6
:10E5F0003A1651F03A1620F0B2E03B1661F409C029
:10E600000BBFF701779007C0C7010F9477FE782EF4
:10E6100002C0F7017080872D0F940DF22092C60082
:10E620008091C00086FFFCCF8091C0008064809301
:10E63000C000872D8052F401EF70F0708F3520F408
:10E64000E40DF51D708204C0E40DF51D8EE280839B
:10E650000894E11CF11C011D111D0894811C911CE2
:10E6600090E18916910409F0C2CF80E190E0A0E02A
:10E67000B0E0A80EB91ECA1EDB1E198AC2010F9493
:10E68000FAF10F94DCF16A94662009F072CF629679
:10E690000FB6F894DEBF0FBECDBFCF91DF911F91B3
:10E6A0000F91FF90EF90DF90CF90BF90AF909F9031
:10E6B0008F907F906F905F904F903F902F90089534
:10E6C0002F923F924F925F926F927F928F929F9282
:10E6D000AF92BF92CF92DF92EF92FF920F931F9370
:10E6E000DF93CF93CDB7DEB7CD53D1400FB6F894BB
:10E6F000DEBF0FBECDBF01E20EBF0FEF0DBF94B75F
:10E70000F894A89514BE80916000886180936000A1
:10E7100010926000789493FF05C0E0910002F091A0
:10E7200001021995279A2F9A8091C00082608093E8
:10E73000C00080E18093C40088E18093C1000000A4
:10E74000EE24FF24870144E0A42EB12CCC24DD2448
:10E7500024C0C5010197F1F70894E11CF11C011DCB
:10E76000111D21E2E2162EE4F20620E0020720E06D
:10E77000120718F031E0C32ED12CC801B70127ECE5
:10E780003BE140E050E00F9441FE611571058105C9
:10E79000910519F485B1805885B98091C00087FD35
:10E7A00003C0C114D104A9F2A6014F5F5F4FC25E3E
:10E7B000DE4F59834883CE51D140C25EDE4F8881FF
:10E7C0009981CE51D140019711F00D9410FEC05D9A
:10E7D000DE4F19821882C053D14060E0C15DDE4F28
:10E7E0001882CF52D14088249924C35DDE4F19820C
:10E7F0001882CD52D140C05EDE4F188219821A8233
:10E800001B82C052D140CE5CDE4F188219821A8220
:10E810001B82C253D140EE24FF2487010BBFF701B6
:10E8200007911691C45CDE4F19830883CC53D14005
:10E830000D940BFEC25EDE4F28813981CE51D1404E
:10E840002130310509F52091C600C25EDE4F1982E4
:10E850001882CE51D14022C02F5F3F4F4F4F5F4FA4
:10E86000213082E138078AE7480780E0580780F0C6
:10E87000C45CDE4FE881F981CC53D140EF5FFF4F9C
:10E8800019F0EE27FF27099420E030E040E050E047
:10E890008091C00087FFE0CF2091C600C35DDE4FAE
:10E8A00048815981CD52D1404F5F5F4FC35DDE4FEC
:10E8B00059834883CD52D140213209F063C64A3092
:10E8C000510508F05FC60894811C911C53E0851621
:10E8D000910409F059C600E010E018C081E280936D
:10E8E000C6008091C00086FFFCCF8091C00080648C
:10E8F0008093C0002F5F3F4F2931310579F70F9486
:10E90000DCF10F5F1F4F0530110519F020E030E0FA
:10E91000E5CF10920A0210920B0210920C02109294
:10E920000D02109206021092070210920802109235
:10E930000902109202021092030210920402109235
:10E9400005028FEE90EE60E00F94F5F180E191EE1C
:10E9500060E00F94C2F18091C00087FFFCCF9091DE
:10E96000C600903608F09F759032B8F09093C600BC
:10E970008091C00086FFFCCF8091C00080648093AE
:10E98000C000A0E2A093C6008091C00086FFFCCF2B
:10E990008091C00080648093C000983409F4D7C18E
:10E9A0009934B8F4923409F459C1933458F490333B
:10E9B00019F1903308F4E3C59F33A1F1903409F0C5
:10E9C000DEC5BDC0953409F470C1963409F0D7C5D1
:10E9D00098C1923509F42BC2933538F49C3409F46C
:10E9E000F5C1913509F0CBC518C2963509F445C279
:10E9F000993509F0C4C567C483E792EE62E00F94CD
:10EA0000F5F110920602109207021092080210927D
:10EA1000090210920A0210920B0210920C0210923C
:10EA20000D0213C18FE792EE62E00F94F5F18FEEC5
:10EA300090EE60E00F94F5F181E291EE60E00F94CA
:10EA4000C2F187EB91EE60E00F94F5F180E391EE77
:10EA500060E00F94C2F184EE90EE60E00F94F5F167
:10EA60008FE391EE60E00F94C2F186E090E061E008
:10EA700070E00F9434F20F94DCF18DE591EE60E0DC
:10EA80000F94C2F189EC91EE60E00F94F5F18EE401
:10EA900091EE60E00F94C2F183EC91EE60E00F9490
:10EAA000F5F18CE691EE60E00F94C2F18EE10F94E7
:10EAB0000DF288E90F940DF281E00F940DF20F949E
:10EAC000DCF18BE791EE60E00F94C2F119E0E0E039
:10EAD000F0E010935700E4918E2F0F940DF20F94F5
:10EAE000DCF18AE891EE60E00F94C2F1E3E0F0E03F
:10EAF00010935700E4918E2F0F940DF20F94DCF1D8
:10EB000089E991EE60E00F94C2F1E2E0F0E0109349
:10EB10005700E4918E2F0F940DF20F94DCF188EAE8
:10EB200091EE60E00F94C2F1E1E0F0E01093570045
:10EB30001491812F0F940DF20F94DCF107CF8BE825
:10EB400092EE62E00F94F5F18BE492EE60E00F94A8
:10EB5000F5F10F94DCF100E010E019C0C8016F2D51
:10EB60000F947FFEFF2031F489E492EE60E00F9471
:10EB7000C2F10BC0F092C6008091C00086FFFCCFAE
:10EB80008091C00080648093C0000F5F1F4FC80158
:10EB900081519F41A0E0B0E0ABBFFC01F790BAE229
:10EBA000FB1621F0E2E000301E07C1F60F94DCF105
:10EBB0000F94DCF187E592EE60E00F94F5F10F948D
:10EBC000DCF1CC24DD2400E010E01EC0C8010F946D
:10EBD00077FEF82E882331F489E492EE60E00F94FA
:10EBE000C2F10BC08093C6008091C00086FFFCCFAD
:10EBF0008091C00080648093C000FE1419F00894D6
:10EC0000C11CD11C0F5F1F4FC80181519F41A0E063
:10EC1000B0E0ABBFFC01E790FAE2EF1621F022E092
:10EC20000030120799F60F94DCF10F94DCF182E6C4
:10EC300092EE60E00F94C2F1C60161E070E00F94C3
:10EC400034F20F94DCF10F94DCF110920202109276
:10EC50000302109204021092050278CE89E992EE26
:10EC600062E00F94F5F1279A2F9A16C02F9880E052
:10EC700090E0E0EDF7E03197F1F7019684369105E9
:10EC8000C1F72F9A80E090E0E0EDF7E03197F1F7DF
:10EC9000019684369105C1F78091C00087FFE6CFC9
:10ECA0008091C00087FFFCCF64C485EA92EE62E0E9
:10ECB0000F94F5F140910202509103026091040219
:10ECC0007091050281E020E10F9491F2809102029F
:10ECD00090910302A0910402B091050280509F4FD1
:10ECE000AF4FBF4F8093020290930302A0930402A0
:10ECF000B093050280509041A040B04008F426CE69
:10ED0000A4CF83EB92EE62E00F94F5F140910602FE
:10ED100050910702609108027091090280E020E1A1
:10ED20000F9491F28091060290910702A09108023F
:10ED3000B091090280509F4FAF4FBF4F80930602A2
:10ED400090930702A0930802B0930902FFCD80ECD4
:10ED500092EE62E00F94F5F183E792EE60E00F949B
:10ED6000F5F18FE792EE60E00F94F5F18BE892EE0B
:10ED700060E00F94F5F189E992EE60E00F94F5F10F
:10ED800085EA92EE60E00F94F5F183EB92EE60E09D
:10ED90000F94F5F180EC92EE60E00F94F5F187ECC2
:10EDA00092EE60E00F94F5F188ED92EE60E00F9442
:10EDB000F5F18FED92EE60E00F94F5F18AEE92EEB0
:10EDC00060E00F94F5F183E093EEBDCD87EC92EE19
:10EDD00062E00F94F5F181E40F947BF282E40F94EA
:10EDE0007BF283E40F947BF284E40F947BF285E45E
:10EDF0000F947BF286E40F947BF287E40F947BF20E
:10EE000088E40F947BF28AE40F947BF28BE40F94F6
:10EE10007BF28CE40F947BF299CD88ED92EE62E068
:10EE20000F94F5F1772473948824992409C48FED05
:10EE300092EE62E00F94F5F140910A0250910B02BC
:10EE400060910C0270910D0282E020E10F9491F22A
:10EE500080910A0290910B02A0910C02B0910D02D8
:10EE600080509F4FAF4FBF4F80930A0290930B0289
:10EE7000A0930C02B0930D0269CD8AEE92EE62E08F
:10EE80000F94F5F184EE90EE60E00F94F5F18FECC5
:10EE900091EE60E00F94F5F1662477244301CC5D98
:10EEA000DE4F19821882C452D140D401C301B695F5
:10EEB000A79597958795CA5DDE4F88839983AA8326
:10EEC000BB83C652D140CC5DDE4FA881B981C4520C
:10EED000D1401196CC5DDE4FB983A883C452D14096
:10EEE000CD0162E070E00F9434F2B0E2B093C6005E
:10EEF0008091C00086FFFCCF8091C0008064809329
:10EF0000C000EDE2E093C6008091C00086FFFCCF18
:10EF10008091C00080648093C000F0E2F093C6004E
:10EF20008091C00086FFFCCF8091C00080648093F8
:10EF3000C000CA5DDE4FE880F9800A811B81C6529D
:10EF4000D140BB27A12F902F8F2D0F940DF2CA5DBA
:10EF5000DE4F8881C652D1400F940DF2B0E2FB2EF5
:10EF6000F092C6008091C00086FFFCCF8091C00067
:10EF700080648093C0000DE30093C6008091C000C0
:10EF800086FFFCCF8091C00080648093C00010E2B7
:10EF90001093C6008091C00086FFFCCF8091C00016
:10EFA00080648093C0008BBEF3012791C65DDE4F65
:10EFB0002883CA52D140A22EBB24CC24DD2408943D
:10EFC000611C711C811C911C8BBEF3018791282E42
:10EFD0003324442455240894611C711C811C911C09
:10EFE0008BBEF3013791C55DDE4F3883CB52D140E4
:10EFF0000894611C711C811C911C8BBEF30147910C
:10F00000C45DDE4F4883CC52D140ADEFEA2EAFEF66
:10F01000FA2EAFEF0A2FAFEF1A2F6E0C7F1C801E57
:10F02000911E142D032DF22CEE24EA0CFB1C0C1D5A
:10F030001D1D0F940DF220E22093C6008091C000A8
:10F0400086FFFCCF8091C00080648093C000C65DC5
:10F05000DE4F8881CA52D1400F940DF230E23093D6
:10F06000C6008091C00086FFFCCF8091C000806404
:10F070008093C000C45DDE4F8881CC52D1400F9494
:10F080000DF240E24093C6008091C00086FFFCCFA5
:10F090008091C00080648093C000C55DDE4F888190
:10F0A000CB52D1400F940DF250E25093C6008091A4
:10F0B000C00086FFFCCF8091C00080648093C000B8
:10F0C0008FEFE8168FEFF80680E0080780E018075A
:10F0D00031F484E092EE60E00F94C2F1DFC0D80119
:10F0E000C7018070907CA070B0708050904CA040A0
:10F0F000B040D1F52FEF3FE340E050E0E222F322B1
:10F1000004231523CA5DDE4FA880B980CA80DB8046
:10F11000C652D140AE0CBF1CC01ED11EAA0CBB1CD7
:10F12000CC1CDD1C8EE092EE60E00F94C2F1BB2798
:10F13000A12F902F8F2D0F940DF28E2D0F940DF285
:10F1400030E23093C6008091C00086FFFCCF8091F2
:10F15000C00080648093C0004EE34093C60080915D
:10F16000C00086FFFCCF87C08EE09EEFA0E0B0E03D
:10F17000E822F9220A231B239CE0E91694E9F90608
:10F1800090E0090790E0190709F088C0C45DDE4FE0
:10F19000A881CC52D140EA2EFF2400E010E0102FCD
:10F1A0000F2DFE2CEE24C55DDE4FB881CB52D14031
:10F1B000EB0EF11C011D111DD601C501817090706F
:10F1C000A070B070DC0199278827E80EF91E0A1F8D
:10F1D0001B1F20EF30E040E050E0A222B322C42207
:10F1E000D52241E1AA0CBB1CCC1CDD1C4A95D1F7F1
:10F1F000EA0CFB1C0C1D1D1D81E090E0A0E0B0E0BE
:10F20000282239224A225B2235E1220C331C441C7D
:10F21000551C3A95D1F7E20CF31C041D151D57013E
:10F220006801AA0CBB1CCC1CDD1C85E192EE60E0E1
:10F230000F94C2F1C801AA27BB270F940DF2BB2778
:10F24000A12F902F8F2D0F940DF28E2D0F940DF274
:10F2500090E29093C6008091C00086FFFCCF809121
:10F26000C00080648093C000AEE3A093C60080918C
:10F27000C00086FFFCCF8091C00080648093C000F6
:10F28000C601AA27BB270F940DF2BB27AD2D9C2DDD
:10F290008B2D0F940DF28A2D0F940DF20F94DCF14B
:10F2A000CC5DDE4FE881F981C452D140F99709F471
:10F2B0004DCBF4E0EF2EF12C012D112D6E0C7F1CA7
:10F2C000801E911EF2CD83E093EE62E00F94F5F183
:10F2D0008AE192EE60E00F94C2F18091C00087FF56
:10F2E000FCCF1091C6001F751093C6008091C0001E
:10F2F00086FFFCCF8091C00080648093C0000F9493
:10F30000DCF1812F81548A3108F036C1163409F4BA
:10F3100095C0173490F4133409F44EC0143430F40B
:10F320001134F1F0123409F01DC130C0143409F465
:10F3300059C0153409F016C16BC01A3409F4C4C0A1
:10F340001B3438F4173409F48FC0183409F00AC19B
:10F35000A1C01B3409F4D2C01C3409F003C1E8C0B9
:10F360008FEF81B90DC082B1809582B980E090E0C5
:10F37000E0EDF7E03197F1F70196883C9105C1F790
:10F380008091C00087FFEFCF12B8EFC08FEF84B934
:10F390000DC085B1809585B980E090E0E0EDF7E0A3
:10F3A0003197F1F70196883C9105C1F78091C00033
:10F3B00087FFEFCF15B8D9C08FEF87B90DC088B1DF
:10F3C000809588B980E090E0E0EDF7E03197F1F7C3
:10F3D0000196883C9105C1F78091C00087FFEFCF6F
:10F3E00018B8C3C08FEF8AB90DC08BB180958BB9A7
:10F3F00080E090E0E0EDF7E03197F1F70196883C8E
:10F400009105C1F78091C00087FFEFCF1BB8ADC059
:10F410008FEF8DB90DC08EB180958EB980E090E0F0
:10F42000E0EDF7E03197F1F70196883C9105C1F7DF
:10F430008091C00087FFEFCF1EB897C08FEF80BBD1
:10F440000DC081B3809581BB80E090E0E0EDF7E0F6
:10F450003197F1F70196883C9105C1F78091C00082
:10F4600087FFEFCF11BA81C08FEF83BB0DC084B38C
:10F47000809584BB80E090E0E0EDF7E03197F1F714
:10F480000196883C9105C1F78091C00087FFEFCFBE
:10F4900014BA6BC08FEF809301010FC080910201FD
:10F4A00080958093020180E090E0E0EDF7E03197F5
:10F4B000F1F70196883C9105C1F78091C00087FF64
:10F4C000EDCF1092020151C08FEF809304010FC065
:10F4D0008091050180958093050180E090E0E0ED4A
:10F4E000F7E03197F1F70196883C9105C1F78091DB
:10F4F000C00087FFEDCF1092050137C08FEF8093DA
:10F5000007010FC08091080180958093080180E079
:10F5100090E0E0EDF7E03197F1F70196883C910536
:10F52000C1F78091C00087FFEDCF109208011DC088
:10F530008FEF80930A010FC080910B01809580931B
:10F540000B0180E090E0E0EDF7E03197F1F70196F4
:10F55000883C9105C1F78091C00087FFEDCF1092E4
:10F560000B0103C085E292EEEEC98091C00087FFD7
:10F57000FCCF8091C600EAC988E392EEE4C98CE131
:10F5800091EEE1C988249924933011F1943028F444
:10F59000913089F09230B8F408C0953061F195301F
:10F5A000F0F0963009F048C043C02B3109F042C951
:10F5B00091E06BE13FC96227C15DDE4F2883CF52E6
:10F5C000D14092E037C9B22FA0E0622793E032C960
:10F5D000822F90E0A82BB92B622794E02BC92E3004
:10F5E00009F039C3622795E0C05DDE4F19821882A9
:10F5F000C053D1401FC9E1E0F0E0EC0FFD1FC05D3A
:10F60000DE4F08811981C053D140E00FF11F2083E4
:10F610000F5F1F4FC05DDE4F19830883C053D14079
:10F6200062270A171B0709F005C9D80196E002C92D
:10F63000261709F010C303C0973009F0FBC87724E0
:10F640009981933109F412C19431C8F4963009F4C8
:10F65000D8C0973050F4923009F406C1933009F4C1
:10F660006DC0913009F059C253C0913109F477C08F
:10F67000923108F0BBC0903109F04FC2F5C098310B
:10F6800009F487C0993150F4953109F4EFC09531F0
:10F6900008F4C6C1963109F040C2C2C19A3109F4DA
:10F6A0006CC09A3108F491C09B3109F45BC09D3164
:10F6B00009F033C29D81903359F48F81882311F46E
:10F6C0009EE11CC0813011F091E018C098E916C08D
:10F6D000892F807591F0903539F4E0E0F0E089E011
:10F6E0008093570094910AC0983539F4E3E0F0E034
:10F6F00089E080935700949101C090E01A821B82A8
:10F700008D818C831D829E831F8227E030E009C299
:10F710001A8288E08B8381E48C8386E58D8382E581
:10F720008E8389E48F8383E5888780E589878FE5E9
:10F730008A8782E38B872BE030E0F3C18A818139AD
:10F7400041F0823941F0803911F48FE005C080E04A
:10F7500003C082E001C08AE01A828B8344C0772410
