:1000000081C10000B0C10000AEC10000ACC1000061
:10001000AAC10000A8C10000A6C10000A4C1000040
:10002000A2C10000A0C100009EC100009CC1000050
:100030009AC1000098C1000096C1000094C1000060
:1000400092C1000090C100008EC100008CC1000070
:1000500021C6000088C1000086C10000D1C5000093
:1000600082C1000080C100007EC100007CC1000090
:100070007AC1000078C1000076C1000074C10000A0
:1000800072C1000070C100006EC100006CC10000B0
:10009000DFC40000B4C4000066C1000021C7000036
:1000A00062C1000060C100005EC100005CC10000D0
:1000B0005AC1000058C1000056C1000054C10000E0
:1000C00052C1000050C100004EC100004CC10000F0
:1000D0004AC1000048C1000046C1000044C1000000
:1000E00042C100008D0590057F0583058705C70582
:1000F000940598059E05A205A605AC05B005B405B6
:10010000C705BA05BE05C205084AD73B3BCE016EFE
:1001100084BCBFFDC12F3D6C74319ABD56833DDA5E
:100120003D00C77F11BED9E4BB4C3E916BAAAABE6D
:10013000000000803F004E414E494E495459494EFF
:1001400046CDCCCC3D0AD7233C17B7D13877CC2B42
:10015000329595E6241FB14F0A000020410000C8E7
:100160004200401C4620BCBE4CCA1B0E5AAEC59D68
:10017000746932635772697465206661696C65647D
:100180003A200000000A0B02090C0D0E08070304B8
:10019000010000000000000000000000000000005E
:1001A000000000000000000000000000000000123D
:1001B000111000000000000000000000000000001E
:1001C0000000000000000000004572726F72207293
:1001D000656164696E672073656E736F72000000FD
:1001E0002200250028002B002E00310034000201DF
:1001F0000000050108010B01000021002400270078
:100200002A002D0030003300010100000401070125
:100210000A0105050505070508080808020202028B
:100220000A0A080804040404010101010101010192
:100230000303030303030303040707070C0C0C0C5D
:100240000C0C0C0C02020202060606060606060646
:100250000B0B0B0B0B0B0B0B0102102020080810D3
:100260002040102040800201020108040201010226
:1002700004081020408080402010080402018004FF
:10028000020180402010080402010804020101025A
:1002900004081020408001020408102040803E0025
:1002A0002C003C6B616C582C003C43414C49464946
:1002B0004E3E007B43616C63756C6174696E6720B0
:1002C0006F6666736574732E2E2E7D007B5265619A
:1002D00064696E672073656E736F72732E2E2E7D48
:1002E00000693263526561642074696D656F75746D
:1002F0000069326352656164206661696C65643AC5
:1003000020001C1611241FBECFEFD1E2DEBFCDBFEF
:1003100000E00CBF25E0A0EBB2E001C01D92AF34BD
:10032000B207E1F712E0A0E0B2E0E4E6F8E300E0B3
:100330000BBF02C007900D92A03BB107D9F711E0A7
:10034000C2E8D1E000E006C021970109802FFE013C
:100350000E94001CC138D10780E00807A9F70E945D
:100360009D100C94301C4CCEFC01538D448D252FD8
:1003700030E0842F90E0821B930B541710F0CF963F
:10038000089501970895FC01918D828D981761F071
:10039000828DDF01A80FB11D5D968C91928D9F5FBC
:1003A0009F73928F90E008958FEF9FEF0895FC0167
:1003B000918D828D981731F0828DE80FF11D858D1A
:1003C00090E008958FEF9FEF0895FC01918D228DAD
:1003D000892F90E0805C9F4F821B91098F73992732
:1003E00008958FE394E0F1DF21E0892B09F420E008
:1003F000822F0895FC01848DDF01A80FB11DA35A3F
:10040000BF4F2C91848D90E001968F739927848F34
:10041000A689B7892C93A089B1898C9180648C932B
:10042000938D848D981306C00288F389E02D808116
:100430008F7D80830895EF92FF920F931F93CF9348
:10044000DF93EC0181E0888F9B8D8C8D981305C024
:10045000E889F989808185FD23C0F62E0B8D10E097
:100460000F5F1F4F0F731127E02E8C8DE8120BC00A
:100470000FB607FCFACFE889F989808185FFF5CFAF
:10048000CE01B8DFF2CF8B8DFE01E80FF11DE35AEC
:10049000FF4FF0820B8FEA89FB898081806207C061
:1004A000EE89FF896083E889F9898081806480838F
:1004B00081E090E0DF91CF911F910F91FF90EF903D
:1004C0000895CF93DF93EC01888D8823C1F0EA89EA
:1004D000FB89808185FD05C0A889B9898C9186FD3D
:1004E0000EC00FB607FCF5CF808185FFF2CFA8893B
:1004F000B9898C9185FFEDCFCE017CDFE8CFDF910C
:10050000CF91089580E090E0892B41F080E090E069
:10051000892B21F00E940000811120C080E090E032
:10052000892B19F05EDF81111CC080E090E0892BDF
:1005300041F080E090E0892B21F00E9400008111C1
:1005400013C080E090E0892BA1F080E090E0892B3F
:1005500081F00E94000081110AC008950E940000ED
:10056000DDCF0E940000E1CF0E940000EACF0C9492
:100570000000089508958091C50390E02091C40380
:10058000821B910908952F923F924F925F926F9232
:100590007F928F929F92AF92BF92CF92DF92EF9213
:1005A000FF920F931F93CF93DF93CDB7DEB76C9776
:1005B0000FB6F894DEBF0FBECDBF1C014D8B5E8B16
:1005C0006F8B788FC901B801D10150962D913D9163
:1005D0004D915C915397298B3A8B4B8B5C8B0E948E
:1005E000C1199B01AC01F101648B758B868B978BD4
:1005F000C701B6010E94F118D1011C962D913D91C1
:100600004D915C911F970E94C2196D877E878F87DD
:10061000988BD10194962D913D914D915C91979736
:100620002D833E834F835887C701B6010E94F1187E
:100630004B015C01F101448C558C668C778C20A1B8
:1006400031A142A153A129873A874B875C87A30137
:1006500092010E94C11929853A854B855C850E94CB
:10066000C119F10120813181428153810E94C21957
:100670009B01AC01C701B6010E94F118D101589647
:100680002D913D914D915C915B970E94C2196983B8
:100690007A838B839C83A5019401C301B2010E94DC
:1006A000C1192B013C01A501940169857A858B85CF
:1006B0009C850E94C11969877A878B879C87F10185
:1006C0002481358146815781C701B6010E94F11806
:1006D0009B01AC016D817E818F8198850E94C2193A
:1006E000698F7A8F8B8F9C8FD10118962D913D91B8
:1006F0004D915C911B9769817A818B819C810E94CD
:10070000C2196B017C019B01AC0169817A818B81EB
:100710009C810E94881A4B015C01A70196016985A2
:100720007A858B859C850E94881A6B017C012D85BA
:100730003E854F8558896D897E898F89988D0E9465
:10074000C1196D837E838F8398879B01AC01C5019E
:10075000B4010E94F1189B01AC016D857E858F85E7
:1007600098890E94C2196D877E878F87988BF101C7
:1007700064877587868797872D813E814F8158854D
:10078000C701B6010E94F1189B01AC0169897A8901
:100790008B899C890E94C219D10150966D937D93DB
:1007A0008D939C93539729813A814B815C81C5013C
:1007B000B4010E94F1189B01AC0169817A818B819F
:1007C0009C810E94C119F101608F718F828F938F7C
:1007D000A3019201C501B4010E94F1189B01AC0173
:1007E000C301B2010E94C119D1015C966D937D9342
:1007F0008D939C935F9729813A814B815C81C701DE
:10080000B6010E94F1189B01AC0169857A858B8540
:100810009C850E94C119F10160A371A382A393A3D7
:10082000A3019201C701B6010E94F1189B01AC011E
:10083000698D7A8D8B8D9C8D0E94C119D101949602
:100840006D937D938D939C9397976D857E858F8512
:1008500098896C960FB6F894DEBF0FBECDBFDF91BE
:10086000CF911F910F91FF90EF90DF90CF90BF90AD
:10087000AF909F908F907F906F905F904F903F9040
:100880002F90089585ED8093BC008091BC0084FD7D
:10089000FCCF10923E04089540911903262F30E0BA
:1008A000240F311D21323105DCF420913E04243027
:1008B000C9F4FC0180E090E0861758F430911903E8
:1008C0002191DC01A950BD4FA30FB11D2C930196BE
:1008D000F3CF80911903680F6093190380E00895A6
:1008E00081E0089582E008950895E091C403809125
:1008F000C503E81730F4F0E0E850FC4F808190E049
:1009000008958FEF9FEF08959091C4038091C503E0
:10091000981750F4E92FF0E0E850FC4F208130E0C8
:100920009F5F9093C40302C02FEF3FEFC90108956A
:10093000CF92DF92EF92FF920F931F93CF93DF93AB
:100940007C01262F972F8A018091D403882391F070
:10095000C62FD72F6E01C40ED51ECC15DD0569F04C
:100960006991D701ED91FC910190F081E02DC701D3
:100970001995F3CF642F822F8FDFC801DF91CF91BC
:100980001F910F91FF90EF90DF90CF900895CF933C
:10099000DF931F92CDB7DEB769832091D403222362
:1009A000D1F02091F703203240F021E030E0FC014B
:1009B0003383228380E090E014C08091D503E82F38
:1009C000F0E0EA52FC4F998190838F5F8093D503CA
:1009D0008093F70304C061E0CE0101965DDF81E002
:1009E00090E00F90DF91CF910895089580E090E01E
:1009F000089581E08093C80208950E941C1C1F92F4
:100A00000F920FB60F9211240BB60F922F933F93B4
:100A10004F935F936F937F938F939F93AF93BF9306
:100A2000EF93FF938FE394E0E5DCFF91EF91BF91AB
:100A3000AF919F918F917F916F915F914F913F9176
:100A40002F910F900BBE0F900FBE0F901F90189517
:100A50001F920F920FB60F9211240BB60F922F9385
:100A60008F939F93EF93FF93E0914F04F091500485
:100A70008081E0915504F091560482FD12C090816E
:100A8000809158048F5F8F7320915904821751F021
:100A9000E0915804F0E0E15CFB4F958F809358049F
:100AA00001C08081FF91EF919F918F912F910F90C5
:100AB0000BBE0F900FBE0F901F901895362F90E031
:100AC000FC01ED57FE4F4491FC01E85AFD4F249183
:100AD000FC01EE5EFD4F9491992309F46BC0442311
:100AE00009F455C050E0FA013197E231F10508F000
:100AF0004EC08827EE58FF4F8F4F0C94001C8091FA
:100B000080008F7707C0809180008F7D03C0809127
:100B10008000877F809380003AC084B58F7702C0C1
:100B200084B58F7D84BD33C08091B0008F7703C0C2
:100B30008091B0008F7D8093B00029C0809190009B
:100B40008F7707C0809190008F7D03C080919000C7
:100B5000877F809390001BC08091A0008F7707C093
:100B60008091A0008F7D03C08091A000877F80933B
:100B7000A0000DC0809120018F7707C080912001D7
:100B80008F7D03C080912001877F80932001E92F12
:100B9000F0E0EE0FFF1FE252FE4FA591B4918FB728
:100BA000F894EC91311103C020952E2301C02E2B17
:100BB0002C938FBF08953FB7F89480914303909191
:100BC0004403A0914503B091460326B5A89B05C0F8
:100BD0002F3F19F00196A11DB11D3FBFBA2FA92FBC
:100BE000982F8827820F911DA11DB11DBC01CD0139
:100BF00042E0660F771F881F991F4A95D1F7089525
:100C00001F920F920FB60F9211242F933F938F9341
:100C10009F93AF93BF9380913F0390914003A09126
:100C20004103B091420330913E0323E0230F2D375F
:100C300020F40196A11DB11D05C026E8230F0296E0
:100C4000A11DB11D20933E0380933F039093400369
:100C5000A0934103B09342038091430390914403D6
:100C6000A0914503B09146030196A11DB11D80934B
:100C7000430390934403A0934503B0934603BF916D
:100C8000AF919F918F913F912F910F900FBE0F9039
:100C90001F9018951F920F920FB60F9211240BB64A
:100CA0000F922F933F934F935F936F937F938F9305
:100CB0009F93AF93BF93EF93FF93E0910002F09166
:100CC00001021995FF91EF91BF91AF919F918F9183
:100CD0007F916F915F914F913F912F910F900BBE3C
:100CE0000F900FBE0F901F9018951F93CF93DF9317
:100CF0001F921F92CDB7DEB75A83498391E090933C
:100D0000D4038093F6031092D5031092F7038CED71
:100D100094E03DDE19816A818CED94E038DE612F2C
:100D20008CED94E034DE81E00E94AA0F91E0811105
:100D300090E0892F0F900F90DF91CF911F91089530
:100D40002F923F924F925F926F927F928F929F92DB
:100D5000AF92BF92CF92DF92EF92FF920F931F93C9
:100D6000CF93DF9300D01F921F92CDB7DEB78D8354
:100D70006B8359018FB7F894C0903F03D090400324
:100D8000E0904103F09042038FBF812C912C242EE0
:100D9000312C2801612C712C841608F065C081E08B
:100DA0008093D4039D819093F6031092D503109203
:100DB000F7036B818CED94E04C83E9DD81E00E94C8
:100DC000AA0FE1E0E093D403FD81F093F6031092C3
:100DD000D5031092F7039101281931094C81213272
:100DE000310514F020E230E0622F213208F060E299
:100DF0008D814C830E94660F1092C4038093C503BB
:100E00004C819091C5038091C403981739F1011565
:100E1000110581F4C501890D911D97FC9A959A835E
:100E200089838CED94E04C836FDDE981FA818083C6
:100E30009394E6CF2FB7F89480913F0390914003AD
:100E4000A0914103B09142032FBF8C199D09AE09B7
:100E5000BF0984159505A605B705E0F2842F413238
:100E600008F080E2880E98CF0115110501F12FB727
:100E7000F89480913F0390914003A0914103B09179
:100E800042032FBF8C199D09AE09BF0920E030E055
:100E900080179107A207B30750F050E0892D092C65
:100EA000000C990B8417950714F499249A94892DB2
:100EB0000F900F900F900F900F90DF91CF911F9197
:100EC0000F91FF90EF90DF90CF90BF90AF909F90E9
:100ED0008F907F906F905F904F903F902F900895EC
:100EE0001F920F920FB60F9211240BB60F922F93F1
:100EF0003F934F935F936F937F938F939F93AF93A2
:100F0000BF93EF93FF938091B900887F803609F4F7
:100F10009CC068F5883209F45BC090F4803109F414
:100F200054C038F4882309F4F6C0883009F44DC061
:100F3000F5C0883109F44CC0803209F45DC0EEC0C0
:100F4000803409F468C048F4803309F455C088330C
:100F500009F0E4C080933C04D8C0803509F44FC048
:100F6000883509F45DC0883409F0D8C0D6C0883906
:100F700009F4C7C0A8F4883709F467C038F4883684
:100F800009F463C0803709F460C0C8C0883809F428
:100F9000B8C0803909F45FC0803809F0BFC05BC0B9
:100FA000803B09F486C038F4803A09F466C0883A78
:100FB00009F47FC0B3C0803C09F4A7C0883C09F4A1
:100FC000A4C0883B09F48AC0A9C08091390410C02C
:100FD00090913B0480913A04981770F5E0913B049E
:100FE00081E08E0F80933B04F0E0E85EFB4F808150
:100FF0008093BB0085EC86C080933C048EC0E0915A
:101000003B0481E08E0F80933B048091BB00F0E0B5
:10101000E85EFB4F808390913B0480913A046EC060
:10102000E0913B0481E08E0F80933B048091BB00F4
:10103000F0E0E85EFB4F808380913D0481116DC03C
:1010400081E08093380484EA61C083E080933E04A9
:1010500010923D03CFCF80913D03803208F051C004
:10106000E0913D0381E08E0F80933D038091BB00B2
:10107000F0E0E35EFC4F8083BDCF85EC8093BC0045
:1010800010923E0480913D03803230F4E0913D03A4
:10109000F0E0E35EFC4F108260913D0370E0E09170
:1010A0001B03F0911C038DE193E0199510923D0311
:1010B00035C084E080933E0410921A031092190305
:1010C000E0911703F091180319958091190381118C
:1010D00005C081E0809319031092F702E0911A0392
:1010E00081E08E0F80931A03F0E0E950FD4F80817C
:1010F0008093BB0090911A0380911903981708F40C
:1011000079CF85E88093BC0009C085EC8093BC0052
:1011100010923E0403C010923C04B4DBFF91EF91A7
:10112000BF91AF919F918F917F916F915F914F91FF
:101130003F912F910F900BBE0F900FBE0F901F90FD
:101140001895CF938FE394E040D9181619060CF048
:101150005CC08FE394E017D9C82F8E3329F08091BB
:10116000F60281113BC04AC01092F60281E08093E2
:10117000AB03E091F502F0E0E353FD4F108268E22B
:1011800072E08DEC92E00E94D416BC0183E893E0FB
:101190000E94291C68E272E080E090E00E94D41670
:1011A0000E94B4160E94F01A7093CC026093CB0296
:1011B00068E272E080E090E00E94D4160E94B716C8
:1011C0009093CA028093C9028FE394E0FED8181668
:1011D00019062CF68FE394E0D6D8F6CF9091F5025D
:1011E000E92FF0E0E353FD4FC0839F5F983219F081
:1011F0009093F50203C087E28093F502CC3329F483
:101200001092F50281E08093F602CF9108954F92FB
:101210005F926F927F928F929F92AF92BF92CF9286
:10122000DF92EF92FF920F931F93CF93DF93CDB78F
:10123000DEB760970FB6F894DEBF0FBECDBF8091CA
:10124000C802882309F494C21092C8026EE08BE3AE
:10125000DED68111FBCF6091C60370E0762F662742
:101260008091C703682B072E000C880B990B0E94F6
:101270009218609367037093680380936903909357
:101280006A036091C80370E0762F66278091C903D6
:10129000682B072E000C880B990B0E949218609304
:1012A0006303709364038093650390936603609176
:1012B000CA0370E0762F66278091CB03682B072E38
:1012C000000C880B990B0E94921860935F03709337
:1012D000600380936103909362036091CE0370E09A
:1012E000762F66278091CF03682B072E000C880B82
:1012F000990B0E9492186D837E838F8398876093E9
:10130000C4027093C5028093C6029093C702609195
:10131000D00370E0762F66278091D103682B072ECB
:10132000000C880B990B0E94921869877A878B872B
:101330009C876093C0027093C1028093C202909315
:10134000C3026091D20370E0762F66278091D303A9
:10135000682B072E000C880B990B0E949218609343
:10136000BC027093BD028093BE029093BF0223DC47
:1013700080904B0390904C03A0904D03B0904E038F
:10138000681979098A099B090E94901820E034E2C3
:1013900044E759E40E94881A69837A838B839C838B
:1013A0000ADC60934B0370934C0380934D0390933E
:1013B0004E03C0905F03D0906003E0906103F09013
:1013C00062034090630350906403609065037090E3
:1013D0006603A7019601C301B2010E94351A21EEEE
:1013E0003EE245E652E40E94F1184B015C01609335
:1013F0005B0370935C0380935D0390935E03A30192
:101400009201C301B2010E94F1186D877E878F8718
:10141000988BA7019601C701B6010E94F1189B01A4
:10142000AC016D857E858F8598890E94C2190E94C6
:10143000551B9B01AC018091670390916803A091BB
:101440006903B0916A03BC01CD0190580E94881ACB
:101450000E94601A21EE3EE245E652E40E94F11835
:1014600060935703709358038093590390935A03E2
:1014700020E030E043E053E46D817E818F819885E8
:101480000E94881A6D837E838F83988720E030E0E6
:1014900043E053E469857A858B859C850E94881A90
:1014A0002B013C0120E030E044EB52ECC501B401DB
:1014B0000E948C1887FF10C020E030E044EB52E41B
:1014C00060917B0370917C0380917D0390917E03FA
:1014D0000E94461B1816D4F020E030E044EB52E4A2
:1014E000C501B4010E94461B18164CF520E030E0FF
:1014F00044EB52EC60917B0370917C0380917D03FF
:1015000090917E030E948C1887FF19C080922F054E
:1015100090923005A0923105B092320580927B0303
:1015200090927C03A0927D03B0927E03809253033D
:1015300090925403A0925503B092560315C0C980EF
:10154000DA80EB80FC800D811E812F813885B5010A
:10155000A40183E295E017D860937B0370937C032A
:1015600080937D0390937E03C0907B03D0907C0397
:10157000E0907D03F0907E0320E030E0A901C701F8
:10158000B6010E94461B18165CF420E030E044EBE4
:1015900052E4C701B6010E94461B18165CF00EC04B
:1015A00020E030E044EB52ECC701B6010E948C18F9
:1015B00087FF04C077FA709477F8709440915703CE
:1015C000509158036091590370915A03C980DA8091
:1015D000EB80FC80930182018BEF94E00E94C302B8
:1015E0006B017C0160937F03709380038093810380
:1015F0009093820329813A814B815C816D817E8148
:101600008F8198850E94F1182091530330915403E3
:1016100040915503509156030E94C2194B015C0141
:101620006093530370935403809355039093560330
:1016300029813A814B815C81C301B2010E94F1187A
:1016400020914F0330915003409151035091520328
:101650000E94C2192B013C0160934F037093500309
:10166000809351039093520320E030E044E353EC25
:10167000C501B4010E948C1820917B0330917C033A
:1016800040917D0350917E0329833A834B835C8391
:1016900087FD0AC020E030E044E353E4C501B40113
:1016A0000E94461B181664F489819A81AB81BC8123
:1016B0008093530390935403A0935503B093560320
:1016C00020E030E044E353ECC301B2010E948C18E7
:1016D00087FD0AC020E030E044E353E4C301B201D7
:1016E0000E94461B181644F4C0924F03D092500338
:1016F000E0925103F09252032DEC3CEC4CE45DEB94
:1017000069817A818B819C810E94461B87FD14C070
:101710002DEC3CEC4CE45DE369817A818B819C810A
:101720000E948C18181644F010927B0310927C03D0
:1017300010927D0310927E032DEC3CEC4CE45DEBAB
:10174000C701B6010E94461B87FD12C02DEC3CEC80
:101750004CE45DE3C701B6010E948C18181644F0F2
:1017600010927F03109280031092810310928203E3
:1017700060960FB6F894DEBF0FBECDBFDF91CF915C
:101780001F910F91FF90EF90DF90CF90BF90AF909F
:101790009F908F907F906F905F904F9008950F93E0
:1017A0001F93CF93DF931F921F92CDB7DEB78B01AC
:1017B00091E09093D40398E69093F6031092D503AA
:1017C0001092F703682F8CED94E02A834983DFD8C9
:1017D000498150E0B8018CED94E0AAD82A81822F8B
:1017E000B9D3182F882371F081E791E01CD2812FA3
:1017F00090E0A0E0B0E04AE0BC01CD0146D28AE230
:1018000092E032D2812F0F900F90DF91CF911F91F4
:101810000F9108952F923F924F925F926F927F9215
:101820008F929F92AF92BF92CF92DF92EF92FF92F0
:101830000F931F93CF93DF93CDB7DEB768970FB6A3
:10184000F894DEBF0FBECDBF412C512C3201198A56
:101850001A8A1B8A1C8A1D861E861F86188A19866C
:101860001A861B861C861D821E821F82188619827C
:101870001A821B821C82812C912C5401A8EECA2E44
:10188000A3E0DA2EE12CF12C08EE13E029EE34E08F
:101890004EE06BE38091E80453DAA091E904B0E0F4
:1018A000BA2FAA278091EA04A82BB093BB02A09379
:1018B000BA02E091EB04F0E0FE2FEE278091EC04F9
:1018C0001F01282A3092B9022092B8022091ED041B
:1018D00030E0322F22278091EE048901082B1E8BE5
:1018E0000D8B1093B7020093B6026091F10470E083
:1018F000762F66278091F204682B7093B50260936F
:10190000B4024091F30450E0542F44278091F40432
:10191000482B5093B3024093B2028091F50490E0BB
:10192000982F88271091F6049C01212B388F2F8B3C
:101930003093B1022093B00235E683169104A104DE
:10194000B1040CF4AAC0CD01BB0FAA0BBB0B0981DB
:101950001A812B813C81080F191F2A1F3B1F098305
:101960001A832B833C83C101330CAA0BBB0B0D8163
:101970001E812F813885080F191F2A1F3B1F0D83D9
:101980001E832F8338878D899E898C01990F220BA6
:10199000330B89859A85AB85BC85800F911FA21F6B
:1019A000B31F89879A87AB87BC878B01770F220B80
:1019B000330B8D859E85AF85B889800F911FA21F3F
:1019C000B31F8D879E87AF87B88B052E000C660BE3
:1019D000770B09891A892B893C89040F151F261F4B
:1019E000371F098B1A8B2B8B3C8B2F89388DC901A4
:1019F000330FAA0BBB0B480E591E6A1E7B1E3CE41C
:101A0000831634E09306A104B10409F046C069814D
:101A10007A818B819C81A70196010E94E41B3093FF
:101A20007A03209379036D817E818F819885A70148
:101A300096010E94E41B3093780320937703698515
:101A40007A858B859C85A70196010E94E41B3093C3
:101A50007603209375036D857E858F859889A70110
:101A600096010E94E41B30937403209373036989E9
:101A70007A898B899C89A70196010E94E41B309387
:101A8000720320937103C301B201A70196010E9462
:101A9000E41B3093700320936F034FEF841A940A72
:101AA000A40AB40A89D05DE4851654E09506A10421
:101AB000B10409F0E9CE68960FB6F894DEBF0FBE08
:101AC000CDBFDF91CF911F910F91FF90EF90DF90ED
:101AD000CF90BF90AF909F908F907F906F905F90CE
:101AE0004F903F902F900895CF92DF92EF92FF9208
:101AF0006B017C0180916B0390916C03A0916D034D
:101B0000B0916E038093470390934803A0934903D9
:101B1000B0934A0350D860936B0370936C03809327
:101B20006D0390936E0380916B0390916C03A09171
:101B30006D03B0916E03409147035091480360914B
:101B4000490370914A03841B950BA60BB70BC8166B
:101B5000D906EA06FB06F0F6FF90EF90DF90CF90F3
:101B60000895CF92DF92EF92FF920F931F93CF933E
:101B7000DF936C017A018B01C0E0D0E0CE15DF0568
:101B800089F0D8016D918D01D601ED91FC91019004
:101B9000F081E02DC6011995892B11F47E0102C058
:101BA0002196ECCFC701DF91CF911F910F91FF904C
:101BB000EF90DF90CF9008958F929F92AF92BF9257
:101BC000CF92DF92EF92FF920E94DB056B017C01C6
:101BD00092E0892E912CA12CB12C0E94DB05DC0116
:101BE000CB018C199D09AE09BF09883E9340A10520
:101BF000B10598F328EEC20E23E0D21EE11CF11CC1
:101C00008A9489288A288B2829F0812C912C5401C8
:101C10008394E3CFFF90EF90DF90CF90BF90AF9091
:101C20009F908F9008950F931F93CF93DF938C0114
:101C3000C0E0D0E0F801EC0FFD1F6491662371F065
:101C4000E0913F04F09140040190F081E02D8FE39A
:101C500094E01995892B11F02196ECCFCE01DF91FC
:101C6000CF911F910F910895009761F0FC010190B1
:101C70000020E9F73197AF01481B590BBC018FE3F6
:101C800094E06FCF80E090E008958F929F92AF92A2
:101C9000BF920F931F93CF93DF93CDB7DEB7A1977A
:101CA0000FB6F894DEBF0FBECDBF19A2423008F4C4
:101CB0004AE08E010F5D1F4F842E912CA12CB12C78
:101CC000A50194010E94C21BE62FB901CA0101506F
:101CD0001109EA3014F4E05D01C0E95CD801EC932D
:101CE000232B242B252B61F7C801BEDFA1960FB64D
:101CF000F894DEBF0FBECDBFDF91CF911F910F9142
:101D0000BF90AF909F908F9008954F925F926F9287
:101D10007F928F929F92AF92BF92CF92DF92EF927B
:101D2000FF926B017C01B42E9B01AC010E94961BBB
:101D3000882319F083EA92E027C026013701E8944E
:101D400077F82FEF3FEF4FE75FE7C301B2010E9443
:101D5000961B81110DC02FEF3FEF4FE75FE7C301E7
:101D6000B2010E948C1818161CF487EA92E00CC08D
:101D70002FEF3FEF4FE75FE4C701B6010E94461B1C
:101D800018167CF48BEA92E0FF90EF90DF90CF90F2
:101D9000BF90AF909F908F907F906F905F904F908B
:101DA00063CF2FEF3FEF4FE75FECC701B6010E9413
:101DB0008C1887FDE7CF20E030E0A901C701B6010C
:101DC0000E948C1887FF11C0E0913F04F0914004FD
:101DD0000190F081E02D6DE28FE394E019954C01C4
:101DE000F7FAF094F7F8F09402C0812C912CA12C12
:101DF00060E070E080E09FE3AB1441F020E030E071
:101E000040E251E40E94881AA394F6CF9B01AC01F2
:101E1000C701B6010E94C2192B013C010E94F51AAC
:101E20006B017C010E9490189B01AC01C301B201BF
:101E30000E94C1192B013C014AE0C701B60125DF10
:101E40007C01E80CF91CBB2069F0E0913F04F091A3
:101E500040040190F081E02D6EE28FE394E019954B
:101E6000E80EF91EDB2CDD2019F120E030E040E225
:101E700051E4C301B2010E94F1182B013C010E9400
:101E8000F51A4B01A12CB12C4AE0C501B401FDDECD
:101E9000E80EF91EC501B4010E9490189B01AC0127
:101EA000C301B2010E94C1192B013C01DA94DBCFBE
:101EB000C701FF90EF90DF90CF90BF90AF909F90C1
:101EC0008F907F906F905F904F90089590913E0417
:101ED0009111FCCF91E090933E0490933D042FEF3D
:101EE00020933C0410923B04260F20933A049093D5
:101EF000390490913904880F892B8093390480919B
:101F00003804813061F41092380480913904809350
:101F1000BB008091BC0083FDF8CF85EC01C085EE4D
:101F20008093BC0080913E048130E1F380913B04BA
:101F3000861710F460913B04A8E1B4E028EF33E089
:101F4000F9018E2F821B861718F48D918193F9CF9A
:101F5000862F0895382F2091F7039091F6032132B0
:101F600008F049C080913E048111FCCF42E04093CB
:101F70003E0430933D043FEF30933C0410923B0409
:101F800020933A04A6EDB3E048E154E0FA013E2F75
:101F9000341B321718F43D913193F9CF1092390464
:101FA00020913904990F922B909339049091380421
:101FB000913061F410923804909139049093BB00F1
:101FC0009091BC0093FDF8CF95EC01C095EE9093F5
:101FD000BC0090913E049230E1F390913C049F3F0D
:101FE00079F080913C04803241F080913C04803350
:101FF00031F084E005C081E003C082E001C083E0ED
:102000001092D5031092F7031092D4030895CF9243
:10201000DF92EF92FF920F931F93CF93DF93D62F10
:1020200091E09093D40398E69093F6031092D50331
:102030001092F703682F8CED94E00E94C70480E0B3
:1020400089DFC82F882371F081EF92E0ECDD6C2FDF
:1020500070E080E090E04AE018DE8AE292E004DE80
:102060008C2F3BC06D2FD13208F060E288E62EDF66
:10207000C82F1092C4038093C50386ECE82E83E03A
:10208000F82E8701802F8E198D17F0F48091C403EC
:10209000C81741F08CED94E00E948404F80181930C
:1020A0008F01F0CF0E94DB056B017C010E94DB05F4
:1020B000DC01CB018C199D09AE09BF09883E934014
:1020C000A105B10518F4F2CF80E007C081EE92E0DF
:1020D000AADD8AE292E0C8DD85E0DF91CF911F9111
:1020E0000F91FF90EF90DF90CF9008950F931F9383
:1020F000CF93DF931F92CDB7DEB708EE13E09E01BA
:102100002F5F3F4F41E065E78091E8040E94A00601
:10211000882339F089818E7790E095958795809313
:10212000E90481E09091E904943309F080E00F9094
:10213000DF91CF911F910F910895CF93DF93CDB78A
:10214000DEB727970FB6F894DEBF0FBECDBF7894E9
:1021500084B5826084BD84B5816084BD85B58260AC
:1021600085BD85B5816085BD80916E00816080935D
:102170006E001092810080918100826080938100C6
:1021800080918100816080938100809180008160D6
:10219000809380008091B10084608093B100809131
:1021A000B00081608093B000809191008260809344
:1021B00091008091910081608093910080919000C6
:1021C0008160809390008091A10082608093A10043
:1021D0008091A10081608093A1008091A000816026
:1021E0008093A000809121018260809321018091E1
:1021F0002101816080932101809120018160809381
:10220000200180917A00846080937A0080917A0026
:10221000826080937A0080917A00816080937A0056
:1022200080917A00806880937A001092C1000E94A9
:10223000DB0560934B0370934C0380934D039093A5
:102240004E030E94DB056093B0037093B10380934B
:10225000B2039093B3030E94DB056093470370932E
:1022600048038093490390934A0380E1809381005F
:102270001092800083E08093AE0384ED90E390930E
:10228000AD038093AC03909387008093860083E135
:102290008093810089EF94E0909301028093000283
:1022A00081E080936F00EAE5F2E02491E4E1F2E05E
:1022B00084918823C9F090E0880F991FFC01E850B1
:1022C000FE4F45915491FC01E252FE4FA591B4910D
:1022D0009FB7F894FA0180812095822380838C91A6
:1022E000E22FE823EC939FBFE0914F04F09150045C
:1022F00082E08083E0914B04F0914C041082E091E5
:102300004D04F0914E0480E1808310925704E091D7
:102310005304F091540486E08083E0915104F091DD
:102320005204808180618083E0915104F0915204D5
:10233000808188608083E0915104F0915204808113
:1023400080688083E0915104F091520480818F7DF8
:1023500080831092C4031092C5031092D50310928B
:10236000F70310923E0481E080933D0410923804FC
:1023700061E084E10E945E0561E085E10E945E0506
:102380008091B9008E7F8093B9008091B9008D7FD4
:102390008093B90088E48093B80085E48093BC0002
:1023A0008CE08093B80087E08093C6031092C70347
:1023B0001092C8031092C90320E044E066EC73E079
:1023C00089E1EDD98111F8CF11E0198321E041E0D5
:1023D000BE016F5F7F4F8BE6E2D98111F6CF61E0DE
:1023E00085E715DE8111FBCF8091C603883621F089
:1023F00089EC91E018DCFFCF60E177E280E090E0CB
:1024000073DB66E08BE303DE8111FBCF6091C603D3
:1024100070E0762F66278091C703682B072E000C8B
:10242000880B990B7FD66A837B838C839D83609313
:102430006703709368038093690390936A036091C4
:10244000C80370E0762F66278091C903682B072E9A
:10245000000C880B990B66D64B015C0160936303FB
:102460007093640380936503909366036091CA033D
:1024700070E0762F66278091CB03682B072E000C27
:10248000880B990B4FD66B017C0160935F037093AF
:10249000600380936103909362039B01AC01C501CB
:1024A000B401E3D721EE3EE245E652E49AD62B0191
:1024B0003C0160935B0370935C0380935D03909396
:1024C0005E03A5019401C501B4018BD64B015C01EB
:1024D000A7019601C701B60184D69B01AC01C501D5
:1024E000B40150D70E94551B9B01AC016A817B81CE
:1024F0008C819D8190580E94881AE2D721EE3EE29D
:1025000045E652E46ED66093570370935803809368
:10251000590390935A0340922F05509230056092D0
:10252000310570923205609307057093080580931A
:10253000090590930A054092530350925403609208
:1025400055037092560360934F037093500380932A
:1025500051039093520381E08093C303E5E6F2E0D8
:102560002491EFE1F2E08491882399F090E0880FC4
:10257000991FFC01E850FE4FA591B491FC01E25275
:10258000FE4F859194918FB7F894EC91E22BEC93E8
:102590008FBFC12CE0E4DE2E0AE010E0FDEFEF2E4D
:1025A000FF24FA940E94DB054B015C0160936B03EE
:1025B00070936C0380936D0390936E038091B003CE
:1025C0009091B103A091B203B091B303A50194011E
:1025D000281B390B4A0B5B0BDA01C901803A96487C
:1025E000A140B10588F06091AF0381E06827609356
:1025F000AF038DE00E945E058092B0039092B1031C
:10260000A092B203B092B3030E9407090E94A108EE
:102610008091AB0381111092AB0369E672E083E80D
:1026200093E00E94201C892B11F58BE692E01CDBC5
:1026300082EA92E0F8DA60917B0370917C038091EA
:102640007D0390917E0342E060DBB6DA80EA92E09F
:10265000EADA60917F037091800380918103909109
:10266000820342E052DB8EE992E0DDDAA5DA60E730
:1026700072E083E893E00E94201C892B09F0C3C11B
:102680008BE692E0F1DA90917F03809180032090B5
:1026900081033090820380907B0390907C03A09014
:1026A0007D03B0907E038F839E830E9407098F81F4
:1026B0009E8170907F0360908003509081034090D2
:1026C0008203292F382FA101672D762D852D942D7A
:1026D00058D69F772FE832EC45EF5CE3D7D7181632
:1026E0009CF480907B0390907C03A0907D03B0903D
:1026F0007E0360EA76E881E090E0F6D90E9407095F
:10270000C301252C342CD5CFA501940160917B0306
:1027100070917C0380917D0390917E0332D69F77E8
:102720002FE832EC45EF5CE3B1D71816D4F261E044
:102730008DE00E945E0582E792E096DA60E27EE438
:1027400080E090E0D1D960E375E780E090E0CCD9FB
:10275000CDDC811103C08DE492E002C08DE292E0F5
:1027600083DAC4DC8823E9F360E177E280E090E07B
:10277000BBD940E050E066E08091E8040E94750615
:1027800040E050E068E08091E8040E94750640E077
:1027900050E06AE08091E8040E94750640E050E055
:1027A00063E18091E8040E94750640E050E065E135
:1027B0008091E8040E94750640E050E067E1809156
:1027C000E8040E947506BB24B3940E94A10880917E
:1027D000AB0381111092AB036FE872E083E893E0E2
:1027E0000E94201C892B11F4B092C0031092830325
:1027F0008091C1039091C203892B29F48091C00379
:10280000882309F413C18091C1039091C2030197F9
:1028100009F0D6C08091C0038111D2C01BC1B7019D
:102820009ED78091B4039091B503680F791F709380
:10283000B5036093B4038091C0038111B3C040918C
:10284000BE035091BF0366E08091E8040E947506C4
:102850004091BC035091BD0368E08091E8040E9460
:1028600075064091BA035091BB036AE08091E80479
:102870000E9475064091B8035091B90363E18091BD
:10288000E8040E9475064091B6035091B70365E1D4
:102890008091E8040E9475064091B4035091B503FD
:1028A00067E18091E8040E9475060E940A0C81E9A4
:1028B00092E0DAD98AE292E0D7D9809179039091B7
:1028C0007A039C0197FF04C022273327281B390B6A
:1028D0002B3031050CF42CC1B80141D78091BE03D7
:1028E0009091BF03861B970B9093BF038093BE0309
:1028F00020E030E08091770390917803AC0197FF5E
:1029000004C044275527481B590B4B3051050CF088
:1029100012C12F5F3F4F4091750350917603C6015E
:10292000841B950B181619060CF412C150544B3029
:1029300051050CF00FC12F5F3F4F809173039091B1
:102940007403AC0197FF04C044275527481B590B5B
:10295000433051050CF00BC12F5F3F4F8091710345
:1029600090917203AC0197FF04C044275527481B80
:10297000590B433051050CF007C12F5F3F4F809139
:102980006F0390917003AC0197FF04C04427552753
:10299000481B590B433051050CF041CF2530310510
:1029A00009F049CF8091C1039091C20301969093A1
:1029B000C2038093C10360EA76E881E090E094D896
:1029C0008091C1039091C203029729F48091C003C2
:1029D000882309F4E6C08091C1039091C203039754
:1029E0002CF48091C003882309F4EFCE1092C20327
:1029F0001092C1038091C003882329F087E992E0F7
:102A000033D91092C0036BE972E083E893E018D7E2
:102A1000892B39F48091C303882319F08EE992E061
:102A200023D9109283030E948202BCCD8CEC92E0E9
:102A3000FAD80E940A0C8091C1039091C2030196BA
:102A40009093C2038093C10360EA76E881E090E04E
:102A50004BD8D9CE83EB92E0E6D880917903909160
:102A60007A0397FD079673E0959587957A95E1F738
:102A70009195819591099093BF038093BE038091B6
:102A800077039091780397FD079663E09595879576
:102A90006A95E1F79195819591099093BD03809393
:102AA000BC038091750390917603A601481B590BD6
:102AB000CA0157FD079653E0959587955A95E1F71A
:102AC0009093BB038093BA03809173039091740336
:102AD00097FD039695958795959587959195819501
:102AE00091099093B9038093B803809171039091F9
:102AF000720397FD03969595879595958795919582
:102B0000819591099093B7038093B60380916F03E9
:102B10009091700397FD0396959587959595879568
:102B20009195819591099093B5038093B40387CED5
:102B300021E030E0DFCEB80112D68091BC03909145
:102B4000BD03861B970B9093BD038093BC03E3CE1C
:102B5000AC01EDCEB80103D68091BA039091BB03CE
:102B6000680F791F7093BB036093BA03E6CEB70179
:102B7000F6D58091B8039091B903680F791F7093CF
:102B8000B9036093B803EACEB701E9D58091B603E3
:102B90009091B703680F791F7093B7036093B603E2
:102BA000EECE0E940A0C89EA92E03DD84091BE0325
:102BB0005091BF0366E08091E8040E947506409141
:102BC000BC035091BD0368E08091E8040E94750643
:102BD0004091BA035091BB036AE08091E8040E94DF
:102BE00075064091B8035091B90363E18091E80400
:102BF0000E9475064091B6035091B70365E180913C
:102C0000E8040E9475064091B4035091B50367E152
:102C10008091E8040E94750660EA76E881E090E021
:102C20000E94740D8091C1039091C203019690930C
:102C3000C2038093C103CFCE0F931F93EFE3F4E061
:102C40001382128288EE93E0A0E0B0E08483958343
:102C5000A683B78328E032E0318320832DEC30E077
:102C6000358724872CEC30E03787268728EC30E046
:102C7000318B208B29EC30E0338B228B2AEC30E037
:102C8000358B248B2EEC30E0378B268B118E128EF9
:102C9000138E148EECEDF4E01382128284839583FC
:102CA000A683B7838AE192E091838083E3E2F5E033
:102CB0000FE612E123E83AE3008311832283338392
:102CC00046EA5BE964E47BE3448355836683778368
:102CD0008FE892ECA5EFBCE380879187A287B3874A
:102CE0001486158616861786108A118A128A138A08
:102CF000108E118E128E138E148E158E168E178EC8
:102D000010A211A212A213A214A215A216A217A217
:102D1000EBEFF4E0008311832283338344835583F4
:102D20006683778380879187A287B3871486158609
:102D300016861786108A118A128A138A108E118EAF
:102D4000128E138E148E158E168E178E10A211A24F
:102D500012A213A214A215A216A217A288E68093AB
:102D6000E8041F910F910895662777274FC0FC0153
:102D700088279927E89421912032E9F3293010F02F
:102D80002E30C8F32B3239F02D3231F4689403C061
:102D900035D0820F911D219120532A30C8F31EF4A3
:102DA000909581959F4F08954BE455E000C0FA013E
:102DB000A191B081009719F41097E1F0CD01DC01E9
:102DC000CD010D90002011F4C00113C0FB01219131
:102DD000222319F02015D9F7F3CFFB0121912015FB
:102DE00019F41E92119606C02223C1F70D900020FF
:102DF000A1F7D001FA01A193B08308957AE0979FDB
:102E0000902D879F802D910D112408956F927F92B0
:102E10008F929F92AF92BF92CF92DF92EF92FF92EA
:102E20000F931F93CF93DF93EC017B016115710525
:102E300019F0DB018D939C938E010F5F1F4F7880FB
:102E4000872D90E049D1892B11F0E801F5CFBDE243
:102E50007B1205C00F5F1F4F7980C1E008C0EBE215
:102E60007E1204C08E010E5F1F4F7980C0E06801A2
:102E7000F1E0CF1AD10843E050E06EE371E0C60103
:102E800033D1892BE9F4680122E0C20ED11C45E060
:102E900050E069E371E0C60127D1892B21F4680174
:102EA00087E0C80ED11CE114F10419F0D701CD92CE
:102EB000DC92C111F9C060E070E080E89FE7FDC0DE
:102EC00043E050E066E371E0C6010ED1892B51F476
:102ED000E114F10409F4EDC00E5F1F4FF7011183F7
:102EE0000083E7C0680160E070E0CB0100E010E023
:102EF000F601D0EDD70DDA3050F52C2F2260622E7E
:102F00002C2F2870C2FF05C0211127C00F5F1F4F53
:102F100024C0222311F001501109A5E0B0E09B016B
:102F2000AC0116D24B015C01880C991CAA1CBB1C7D
:102F3000C501B4016D0F711D811D911D6839A9E98D
:102F40007A078A07A9E19A0740F0C66005C0DE3F0C
:102F500051F4C3FD44C0C8606C2EBFEFCB1ADB0A2E
:102F60007080C62DC5CF2D2F2F7D2531C1F5408115
:102F70004D3211F4C06106C04B3221F0319621E090
:102F800030E006C03296D60111964C9122E030E036
:102F9000A0EDA40FAA3018F0E21BF30B20C040E014
:102FA00050E04038BCE05B075CF49A01220F331F0D
:102FB000220F331F420F531F440F551F4A0F511D3D
:102FC0003196DF0111972C91A0EDA20FAA3048F3A2
:102FD000C4FF03C0519541955109040F151FC1FF4E
:102FE00007C0E114F10421F03197D701ED93FC9370
:102FF00097D0C370C33019F06B017C0106C06B0120
:103000007C01F7FAF094F7F8F09420E030E0A901A1
:10301000C701B60181D0882309F443C017FF06C059
:10302000119501951109C5E5D1E002C0CDE6D1E0C9
:103030005E01B8E1AB1AB1084601BE2DAF2D90E29A
:10304000E92EF12C0E151F057CF0FE01259135911E
:1030500045915491B4018B2F9A2FC3D04B01B82FB7
:10306000A92F0E191F09EECF2497F594E794CA15DE
:10307000DB0541F76401EB2EFA2E8E2D880F8F2D84
:10308000881F8F3F41F020E030E0A901C701B60161
:1030900043D0811106C082E290E090934E05809368
:1030A0004D05C701B60109C060E070E080E89FEF00
:1030B00004C060E070E080EC9FE7DF91CF911F914A
:1030C0000F91FF90EF90DF90CF90BF90AF909F90C7
:1030D0008F907F906F9008959111E6C0803219F023
:1030E00089508550D0F70895FB01DC0141505040D4
:1030F00088F08D9181341CF08B350CF4805E6591E5
:1031000061341CF06B350CF4605E861B611171F349
:10311000990B0895881BFCCF40D008F481E00895F6
:10312000E89409C097FB3EF4909580957095619561
:103130007F4F8F4F9F4F9923A9F0F92F96E9BB2717
:103140009395F695879577956795B795F111F8CF93
:10315000FAF4BB0F11F460FF1BC06F5F7F4F8F4FFE
:103160009F4F16C0882311F096E911C0772321F0F4
:103170009EE8872F762F05C0662371F096E8862F8C
:1031800070E060E02AF09A95660F771F881FDAF7E3
:10319000880F9695879597F90895990F0008550F10
:1031A000AA0BE0E8FEEF16161706E807F907C0F0CD
:1031B00012161306E407F50798F0621B730B840BD5
:1031C000950B39F40A2661F0232B242B252B21F4AF
:1031D00008950A2609F4A140A6958FEF811D811D4F
:1031E00008950BD07BC06CD028F071D018F09523D7
:1031F00009F05DC062C01124A5C081D0A0F3959FE5
:10320000D1F3950F50E0551F629FF001729FBB27CD
:10321000F00DB11D639FAA27F00DB11DAA1F649F79
:103220006627B00DA11D661F829F2227B00DA11D2C
:10323000621F739FB00DA11D621F839FA00D611DB2
:10324000221F749F3327A00D611D231F849F600DD3
:10325000211D822F762F6A2F11249F5750408AF00C
:10326000E1F088234AF0EE0FFF1FBB1F661F771F98
:10327000881F91505040A9F79E3F510570F017C02C
:1032800061C05F3FECF3983EDCF3869577956795D8
:10329000B795F795E7959F5FC1F7FE2B880F911DB6
:1032A0009695879597F9089599278827089597F90E
:1032B0009F6780E870E060E008959FEF80EC0895DC
:1032C00000240A9416161706180609060895002405
:1032D0000A9412161306140605060895092E03947F
:1032E000000C11F4882352F0BB0F40F4BF2B11F4F3
:1032F00060FF04C06F5F7F4F8F4F9F4F089557FD52
:103300009058440F551F59F05F3F71F04795880F53
:1033100097FB991F61F09F3F79F0879508951216EA
:1033200013061406551FF2CF4695F1DF08C0161696
:1033300017061806991FF1CF869571056105089447
:103340000895E894BB2766277727CB0197F908955E
:1033500009D0A59F900DB49F900DA49F800D911D45
:1033600011240895A29FB001B39FC001A39F700DC7
:10337000811D1124911DB29F700D811D1124911D7D
:1033800008955058BB27AA270ED0A8CF99DF30F058
:103390009EDF20F031F49F3F11F41EF48ECF0EF427
:1033A000E095E7FB84CFE92FAADF80F3BA17620725
:1033B00073078407950718F071F49EF5C2CF0EF4D9
:1033C000E0950B2EBA2FA02D0B01B90190010C0135
:1033D000CA01A0011124FF27591B99F0593F50F44D
:1033E000503E68F11A16F040A22F232F342F4427A5
:1033F000585FF3CF469537952795A795F04053959D
:10340000C9F77EF41F16BA0B620B730B840BBAF06C
:103410009150A1F0FF0FBB1F661F771F881FC2F7D7
:103420000EC0BA0F621F731F841F48F487957795EB
:103430006795B795F7959E3F08F0B3CF9395880FA2
:1034400008F09927EE0F97958795089539DF58F082
:1034500080E891E009F49EEF3ADF28F040E851E07F
:1034600059F45EEF09C029CF6CCFE92FE07847DF30
:1034700068F3092E052AC1F32617370748075907AD
:1034800038F00E2E07F8E02569F0E025E0640AC068
:10349000EF6307F8009407FADB01B9019D01DC0135
:1034A000CA01AD01EF9343D019DF0AD05F915523D4
:1034B00031F02BED3FE049E450FD49EC63CF089536
:1034C000DF93DD27B92FBF7740E85FE316161706B5
:1034D00048075B0710F4D92FDDD09F938F937F931C
:1034E0006F9321D1E8E0F1E0ACD0F8DE2F913F916D
:1034F0004F915F9182DEDD2349F09058A2EA2AEDD8
:103500003FE049EC5FE3D0785D274DDFDF91E6CE09
:103510000CD0E4CEDCDE40F0D3DE30F021F45F3FAF
:1035200019F0C5CE51110ECFC8CEE9DE98F399231C
:10353000C9F35523B1F3951B550BBB27AA27621777
:103540007307840738F09F5F5F4F220F331F441FBC
:10355000AA1FA9F333D00E2E3AF0E0E830D09150F4
:103560005040E695001CCAF729D0FE2F27D0660FE1
:10357000771F881FBB1F261737074807AB07B0E820
:1035800009F0BB0B802DBF01FF2793585F4F2AF036
:103590009E3F510568F08BCED5CE5F3FECF3983E51
:1035A000DCF3869577956795B795F7959F5FC9F793
:1035B000880F911D9695879597F90895E1E0660F1C
:1035C000771F881FBB1F621773078407BA0720F095
:1035D000621B730B840BBA0BEE1F88F7E0950895FE
:1035E00004D06894B111AECE089591DE88F09F5753
:1035F00090F0B92F9927B751A0F0D1F0660F771F3F
:10360000881F991F1AF0BA95C9F712C0B13081F01E
:1036100098DEB1E0089595CE672F782F8827B85FA0
:1036200039F0B93FCCF3869577956795B395D9F77F
:103630003EF490958095709561957F4F8F4F9F4F89
:103640000895DF93CF931F930F93FF92EF92DF9232
:103650007B018C01689405C0DA2EEF01CEDDFE01FE
:10366000E894A5912591359145915591AEF3EF01DF
:103670009ADEFE019701A801DA9479F7DF90EF90C6
:10368000FF900F911F91CF91DF91089586DD08F48F
:103690008FEF08959B01AC0160E070E080E89FE34C
:1036A00037CF11F40EF409CE45C031DED0F39923A3
:1036B000D9F3CEF39F57550B87FF4AD00024A0E6DD
:1036C00040EA900180585695979528F4805C660FE3
:1036D000771F881F20F026173707480730F4621B32
:1036E000730B840B202931294A2BA6951794079434
:1036F000202531254A2758F7660F771F881F20F0AD
:1037000026173707480730F4620B730B840B200D24
:10371000311D411DA09581F7B901842F9158880F63
:103720009695879508959B01AC015BCD36DD880B9E
:10373000990B08959F3F31F0915020F4879577952C
:103740006795B795880F911D9695879597F9089578
:1037500091505040660F771F881FD2F7089597FB4E
:10376000072E16F4009406D077FD08D051D007FC40
:1037700005D03EF4909581959F4F08957095619581
:103780007F4F0895A1E21A2EAA1BBB1BFD010DC09D
:10379000AA1FBB1FEE1FFF1FA217B307E407F50701
:1037A00020F0A21BB30BE40BF50B661F771F881FDD
:1037B000991F1A9469F760957095809590959B0173
:1037C000AC01BD01CF010895052E97FB16F40094BE
:1037D0000FD057FD05D0D6DF07FC02D046F408C055
:1037E00050954095309521953F4F4F4F5F4F08952D
:1037F00090958095709561957F4F8F4F9F4F08955D
:10380000EE0FFF1F881F8BBF0790F691E02D1994D4
:10381000AA1BBB1B51E107C0AA1FBB1FA617B707F6
:1038200010F0A61BB70B881F991F5A95A9F7809512
:103830009095BC01CD01089581E090E0F89410C00E
:10384000FB01DC018D91019080190110D9F3990BD6
:103850000895FB01DC0101900D920020E1F708952D
:04386000F894FFCF0A
:10386400BA02E803000000001B02B10DB4016102BA
:10387400E501C301D70100000000C7049804F60461
:103884007404BB02840475042C000D0A007B4D50A3
:10389400553630353020636F6E6E656374696F6EB4
:1038A400207375636365737366756C7D007B4D501F
:1038B400553630353020636F6E6E656374696F6E94
:1038C400206661696C65647D0050003C4F4B3E008E
:1038D40043007B4D5055363035302043616C69626E
:1038E400726174696F6E20536B657463687D004503
:1038F400007B2E2E2E7D003C523E004154003C4164
:10390400423E006E616E00696E66006F766600006E
:00000001FF
