:1000000041C100006FC100006DC100006BC1000064
:1000100069C1000067C1000065C1000063C1000044
:1000200061C100005FC100005DC100005BC1000054
:1000300059C1000057C1000055C1000053C1000064
:1000400051C100004FC100004DC100004BC1000074
:1000500049C1000047C1000045C1000040C4000084
:1000600041C100003FC100003DC100003BC1000094
:1000700039C1000037C1000035C1000033C10000A4
:1000800031C100002FC100002DC100002BC10000B4
:10009000F0C30000C5C3000025C1000023C100005B
:1000A00021C100001FC100001DC100001BC10000D4
:1000B00019C1000017C1000015C1000013C10000E4
:1000C00011C100000FC100000DC1000073C300008A
:1000D00048C3000007C1000005C1000003C10000C3
:1000E00001C10000E602E902D802DC02E2022003BC
:1000F000ED02F102F702FB02FF02050309030D0303
:100100002003130317031B034E414E494E49545914
:10011000494E46CDCCCC3D0AD7233C17B7D13877D2
:10012000CC2B329595E6241FB14F0A0000204100E8
:1001300000C84200401C4620BCBE4CCA1B0E5AAE32
:10014000C59D7400002100240027002A002D0030E6
:1001500000330001010000040107010A0100002032
:10016000002300260029002C002F0032000001008F
:10017000000301060109017D007B003C55543E004F
:100180003C433E003C433E003C4D453E003C453E2A
:10019000003C52523E0000002200250028002B00A7
:1001A0002E003100340002010000050108010B019E
:1001B00005050505070508080808020202020A0AE3
:1001C0000808040404040101010101010101030301
:1001D000030303030303040707070C0C0C0C0C0CAC
:1001E0000C0C0202020206060606060606060B0BA9
:1001F0000B0B0B0B0B0B01021020200808102040EA
:1002000010204080020102010804020101020408DA
:100210001020408080402010080402018004020168
:1002200080402010080402010804020101020408B1
:1002300010204080010204081020408000000A0BBA
:1002400002090C0D0E080703040100000000000065
:10025000000000000000000000000000000000009E
:10026000000000000000000012111000000000005B
:10027000000000000000000000000000000000007E
:100280000000B90411241FBECFEFD1E2DEBFCDBF05
:1002900000E00CBF23E0A0E2B2E001C01D92A43E4A
:1002A000B207E1F712E0A0E0B2E0EAE8F4E100E032
:1002B0000BBF02C007900D92A032B107D9F711E031
:1002C000C2E4D1E000E006C021970109802FFE01C1
:1002D0000E94270AC134D10780E00807A9F79CD300
:1002E0000C94430A8DCECF92DF92EF92FF920F9340
:1002F0001F93CF93DF936C017A018B01C0E0D0E0B4
:10030000CE15DF0581F0D8016D918D01D601ED91FB
:10031000FC910190F081E02DC6011995892B11F017
:100320002196EECF7E01C701DF91CF911F910F91F2
:10033000FF90EF90DF90CF900895089580E090E0D7
:100340000895FC01538D448D252F30E0842F90E0DB
:10035000821B930B541710F0CF96089501970895C0
:10036000FC01918D828D981761F0828DDF01A80FBD
:10037000B11D5D968C91928D9F5F9F73928F90E0DF
:1003800008958FEF9FEF0895FC01918D828D98174E
:1003900031F0828DE80FF11D858D90E008958FEF8B
:1003A0009FEF0895FC01918D228D892F90E0805C54
:1003B0009F4F821B91098F739927089586EA92E0D7
:1003C000F1DF21E0892B09F420E0822F089583E4F6
:1003D00093E0E8DF21E0892B09F420E0822F0895E3
:1003E000FC01848DDF01A80FB11DA35ABF4F2C91D2
:1003F000848D90E001968F739927848FA689B789A1
:100400002C93A089B1898C91837080648C93938D97
:10041000848D981306C00288F389E02D80818F7D3A
:1004200080830895EF92FF920F931F93CF93DF93F2
:10043000EC0181E0888F9B8D8C8D981305C0E88935
:10044000F989808185FD25C0F62E0B8D10E00F5FA8
:100450001F4F0F731127E02E8C8DE8120BC00FB6C3
:1004600007FCFACFE889F989808185FFF5CFCE01B5
:10047000B7DFF2CF8B8DFE01E80FF11DE35AFF4F7E
:10048000F0829FB7F8940B8FEA89FB8980818062A4
:100490000AC09FB7F894EE89FF896083E889F989DB
:1004A00080818370806480839FBF81E090E0DF91D2
:1004B000CF911F910F91FF90EF9008950F931F938D
:1004C000CF93DF938C01C0E0D0E0F801EC0FFD1F6B
:1004D0006491662339F083E493E0A4DF892B11F063
:1004E0002196F3CFCE01DF91CF911F910F91089507
:1004F000CF93DF93EC01888D8823C1F0EA89FB89D3
:10050000808185FD05C0A889B9898C9186FD0EC0C2
:100510000FB607FCF5CF808185FFF2CFA889B98996
:100520008C9185FFEDCFCE015BDFE8CFDF91CF91DE
:10053000089580E090E0892B41F080E090E0892BE5
:1005400021F00E94000081111BC080E090E0892B07
:1005500019F03DDF811117C080E090E0892B19F080
:100560002DDF811113C080E090E0892BA1F080E0A5
:1005700090E0892B81F00E94000081110AC008954B
:100580000E940000E2CF0E940000E6CF0E9400001F
:10059000EACF0C940000089590E0FC013197E2311D
:1005A000F10508F04DC08827EE58FF4F8F4F4FC719
:1005B000809180008F7703C0809180008F7D809331
:1005C0008000089580918000877FF9CF84B58F7770
:1005D00002C084B58F7D84BD08958091B0008F776F
:1005E00003C08091B0008F7D8093B000089580910A
:1005F00090008F7707C0809190008F7D03C080911D
:100600009000877F8093900008958091A0008F775D
:1006100007C08091A0008F7D03C08091A000877FDC
:100620008093A0000895809120018F7707C080916A
:1006300020018F7D03C080912001877F809320015E
:1006400008951F93CF93DF93E9E4F2E09491E3E000
:10065000F2E0D491EDEBF1E0C491CC23C9F0182F76
:10066000992311F0892F98DFEC2FF0E0EE0FFF1F98
:10067000EA56FE4FA591B4919FB7F894111104C0AA
:100680008C91D095D82302C0EC91DE2BDC939FBFD8
:10069000DF91CF911F910895CF93DF93282F30E002
:1006A000F901E45CFD4F8491F901EA50FE4FD491C9
:1006B000F901E055FE4FC491CC2389F081116CDF24
:1006C000EC2FF0E0EE0FFF1FE35AFE4FA591B4911F
:1006D000EC91ED2381E090E021F480E002C080E025
:1006E00090E0DF91CF910895CF93DF9390E0FC01EC
:1006F000EA50FE4F2491FC01E055FE4F849188237F
:1007000061F190E0880F991FFC01ED5BFE4FC591F0
:10071000D491FC01EA56FE4FA591B491611109C034
:100720009FB7F8948881209582238883EC912E23AB
:100730000BC0623061F49FB7F8948881322F3095F6
:1007400083238883EC912E2B2C939FBF06C08FB7F9
:10075000F894E8812E2B28838FBFDF91CF910895E5
:100760007ED61F920F920FB60F9211240BB60F92E6
:100770002F933F934F935F936F937F938F939F93A9
:10078000AF93BF93EF93FF9386EA92E029DEFF9148
:10079000EF91BF91AF919F918F917F916F915F91F9
:1007A0004F913F912F910F900BBE0F900FBE0F9066
:1007B0001F9018951F920F920FB60F9211240BB62F
:1007C0000F922F938F939F93EF93FF93E091B60235
:1007D000F091B7028081E091BC02F091BD0282FDF0
:1007E00012C090818091BF028F5F8F732091C002F1
:1007F000821751F0E091BF02F0E0EA55FD4F958F6E
:100800008093BF0201C08081FF91EF919F918F91F2
:100810002F910F900BBE0F900FBE0F901F90189549
:100820001F920F920FB60F9211240BB60F922F93B7
:100830003F934F935F936F937F938F939F93AF9368
:10084000BF93EF93FF9383E493E0CADDFF91EF91B1
:10085000BF91AF919F918F917F916F915F914F91D8
:100860003F912F910F900BBE0F900FBE0F901F90D6
:1008700018951F920F920FB60F9211240BB60F927C
:100880002F938F939F93EF93FF93E0915303F091F6
:1008900054038081E0915903F0915A0382FD12C004
:1008A000908180915C038F5F8F7320915D0382172D
:1008B00051F0E0915C03F0E0ED5BFC4F958F80938D
:1008C0005C0301C08081FF91EF919F918F912F91E7
:1008D0000F900BBE0F900FBE0F901F9018951F9298
:1008E0000F920FB60F9211242F933F938F939F93E4
:1008F000AF93BF938091990290919A02A0919B022D
:10090000B0919C023091240223E0230F2D3720F474
:100910000196A11DB11D05C026E8230F0296A11D59
:10092000B11D209324028093990290939A02A09380
:100930009B02B0939C028091200290912102A09191
:100940002202B09123020196A11DB11D80932002C5
:1009500090932102A0932202B0932302BF91AF9102
:100960009F918F913F912F910F900FBE0F901F90ED
:100970001895E6EAF2E01382128248EE53E060E056
:1009800070E0448355836683778384E092E09183AB
:10099000808325ED30E03587248724ED30E03787EC
:1009A000268720ED30E0318B208B21ED30E0338B3A
:1009B000228B22ED30E0358B248B26ED30E0378B17
:1009C000268B118E128E138E148EE3E4F3E01382C5
:1009D00012824483558366837783918380838DEC71
:1009E00090E0958784878CEC90E09787868788ECE9
:1009F00090E0918B808B89EC90E0938B828B8AECDA
:100A000090E0958B848B8EEC90E0978B868B118E8B
:100A1000128E138E148E0895789484B5826084BDEE
:100A200084B5816084BD85B5826085BD85B58160F2
:100A300085BD80916E00816080936E001092810070
:100A4000809181008260809381008091810081602B
:100A500080938100809180008160809380008091EC
:100A6000B10084608093B1008091B0008160809378
:100A7000B0008091910082608093910080919100FC
:100A800081608093910080919000816080939000BC
:100A90008091A10082608093A1008091A10081607B
:100AA0008093A1008091A00081608093A00080913C
:100AB00021018260809321018091210181608093D6
:100AC00021018091200181608093200180917A0032
:100AD000846080937A0080917A00826080937A00AB
:100AE00080917A00816080937A0080917A0080689A
:100AF00080937A001092C100E0915303F091540367
:100B000082E08083E0914F03F09150031082E091E6
:100B10005103F091520380E1808310925B03E091D6
:100B20005703F091580386E08083E0915503F091DC
:100B30005603808180618083E0915503F0915603D4
:100B4000808188608083E0915503F0915603808115
:100B500080688083E0915503F091560380818F7DFA
:100B600080832FB7F8948091990290919A02A09176
:100B70009B02B0919C022FBF80939D0290939E0296
:100B8000A0939F02B093A0022FB7F894809199028E
:100B900090919A02A0919B02B0919C022FBF8093EA
:100BA000950290939602A0939702B093980262E008
:100BB0008CE09ADD62E08AE097DD62E088E094DD17
:100BC00061E08DE091DD44E050E062E172E083E4B9
:100BD00093E089DBC1E01FE1809194028111F1C0B3
:100BE0002FB7F8948091990290919A02A0919B025C
:100BF000B0919C022FBF8093A1029093A202A09378
:100C0000A302B093A4024091950250919602609184
:100C10009702709198026C017D01C41AD50AE60A08
:100C2000F70A20E1C21627E2D206E104F10458F0E7
:100C30008093950290939602A0939702B0939802A6
:100C40008BE791E03BDC83E493E0ACDB18161906FC
:100C50000CF081C083E493E083DBD82F8091700295
:100C6000882309F443C0DE3391F0E0916F02F0E095
:100C7000E15BFD4FD08380916F028F5F80936F02A5
:100C800080916F02803291F510936F022FC0109205
:100C90007002C0939302E0916F02F0E0E15BFD4FC0
:100CA000108267E172E08FE492E0FFD0BC0183E73D
:100CB00092E0E2D367E172E080E090E0F6D0F2D01B
:100CC0006093290270932A0280932B0290932C0246
:100CD00067E172E080E090E0E8D0E4D06093250224
:100CE00070932602809327029093280280914E02EF
:100CF000882321F1DD3791F0E0914D02F0E0E35DD2
:100D0000FD4FD08380914D028F5F80934D02809183
:100D10004D02803201F510934D021DC010924E021B
:100D2000C0937102E0914D02F0E0E35DFD4F10824F
:100D30006DE272E083E792E09FD30DC0DC3329F4CB
:100D400010926F02C093700206C0DB3721F410923C
:100D50004D02C0934E02809193028823A9F0109215
:100D6000930269E172E083E792E07DD3892B11F46D
:100D7000C09394026CE172E083E792E074D3892B14
:100D8000E9F4C09372021AC0809171028823B1F015
:100D90001092710289E791E091DBE3E7F2E00190C4
:100DA0000020E9F73197AF014357524063E772E003
:100DB00086EA92E098DA87E791E080DB109273028E
:100DC0000BCF80E891E07ADBC1E08AE065DC8FB789
:100DD000F894C0909902D0909A02E0909B02F09013
:100DE0009C028FBFC092A102D092A202E092A30205
:100DF000F092A40280919D0290919E02A0919F0288
:100E0000B091A002A7019601281B390B4A0B5B0B7E
:100E1000DA01C90180389F44A241B10588F0809170
:100E2000A5028C278093A5020CDC84E891E046DBC8
:100E3000C0929D02D0929E02E0929F02F092A00288
:100E40008CE02ADC019719F48091A50208C081E9A1
:100E500091E034DB8091A5028C278093A502F1DB21
:100E60008AE01ADC019719F48091A50208C08DE888
:100E700091E024DB8091A5028C278093A502E1DB21
:100E800088E00ADC019719F48091A50208C088E87F
:100E900091E014DB8091A5028C278093A502D1DB21
:100EA00048DB93CF662777272AC040EE53E000C087
:100EB000FA01A191B081009719F41097E1F0CD01EA
:100EC000DC01CD010D90002011F4C00113C0FB0125
:100ED0002191222319F02015D9F7F3CFFB0121919D
:100EE000201519F41E92119606C02223C1F70D9009
:100EF0000020A1F7D001FA01A193B08308958F9249
:100F00009F92AF92BF92CF92DF92EF92FF920F9398
:100F10001F93CF93DF93EC016B016115710519F0FD
:100F2000FB01918380837E01FFEFEF1AFF0A0881A6
:100F3000802F90E037D1892B11F0E701F4CF0D32EB
:100F400039F47E0182E0E80EF11C098111E008C04D
:100F50000B3229F47E0192E0E90EF11C098110E0C8
:100F6000E701219743E050E060E171E0CE0122D13A
:100F7000892BB9F4239645E050E06BE071E0CE0197
:100F800019D1892B09F42596C114D10419F0F60161
:100F9000D183C0831111F0C060E070E080E89FE76A
:100FA000F4C043E050E068E071E0CE0103D1892B4A
:100FB00059F4C114D10409F4E4C0F2E0EF0EF11CBD
:100FC000F601F182E082DDC020E030E0A901C0E05E
:100FD000D0E0F70160EDA62EA00E89E08A1528F179
:100FE000912F9260B92E812F887012FF04C0811159
:100FF00023C0219621C081112197A5E0B0E00ED237
:10100000DC01CB01880F991FAA1FBB1F9C01AD01FA
:101010002A0D311D411D511D283989E9380748071E
:1010200089E1580748F0166006C09EEFA9120AC071
:1010300013FD40C01860B12E8FEFE81AF80A008146
:101040001B2DC7CF802F8F7D8534A1F580818D32F8
:1010500011F4106106C08B3221F0319661E070E02E
:1010600004C08181329662E070E080538A3018F0CB
:10107000E61BF70B1FC060E070E060389CE079076A
:101080005CF4DB01AA0FBB1FAA0FBB1F6A0F7B1FFB
:10109000660F771F680F711D3196DF0111978C91D4
:1010A00080538A3050F314FF03C071956195710924
:1010B000C60FD71F11FF08C0C114D10429F0CF01FA
:1010C0000197F60191838083CA01B9018FD0212F46
:1010D0002370233019F04B015C0106C04B015C0109
:1010E000B7FAB094B7F8B09420E030E0A901C50198
:1010F000B40178D0882309F43CC0D7FF06C0D1954D
:10110000C195D10907E211E002C00FE311E06801C7
:10111000F8E1CF1AD10890E2E92EF12CCE15DF05C7
:101120006CF0F8012591359145915491C501B401B8
:10113000BED04B015C01CE19DF09F0CF045011097C
:10114000F594E7940C151D0549F78A2D880F8B2D12
:10115000881F8F3F41F020E030E0A901C501B401B4
:1011600041D0811106C082E290E09093E303809326
:10117000E203C501B40109C060E070E080E89FEFC0
:1011800004C060E070E080EC9FE7DF91CF911F9199
:101190000F91FF90EF90DF90CF90BF90AF909F9016
:1011A0008F9008959111E6C0803219F089508550D2
:1011B000D0F70895FB01DC014150504088F08D913B
:1011C00081341CF08B350CF4805E659161341CF029
:1011D0006B350CF4605E861B611171F3990B0895F9
:1011E000881BFCCF40D008F481E00895E89409C042
:1011F00097FB3EF490958095709561957F4F8F4F4A
:101200009F4F9923A9F0F92F96E9BB279395F6955F
:10121000879577956795B795F111F8CFFAF4BB0FDD
:1012200011F460FF1BC06F5F7F4F8F4F9F4F16C041
:10123000882311F096E911C0772321F09EE8872FCB
:10124000762F05C0662371F096E8862F70E060E087
:101250002AF09A95660F771F881FDAF7880F969500
:10126000879597F90895990F0008550FAA0BE0E8A4
:10127000FEEF16161706E807F907C0F01216130658
:10128000E407F50798F0621B730B840B950B39F498
:101290000A2661F0232B242B252B21F408950A26FE
:1012A00009F4A140A6958FEF811D811D08950BD0F3
:1012B0007BC06CD028F071D018F0952309F05DC088
:1012C00062C01124A5C081D0A0F3959FD1F3950FE2
:1012D00050E0551F629FF001729FBB27F00DB11DBA
:1012E000639FAA27F00DB11DAA1F649F6627B00D4A
:1012F000A11D661F829F2227B00DA11D621F739F33
:10130000B00DA11D621F839FA00D611D221F749F40
:101310003327A00D611D231F849F600D211D822F87
:10132000762F6A2F11249F5750408AF0E1F08823CE
:101330004AF0EE0FFF1FBB1F661F771F881F9150DB
:101340005040A9F79E3F510570F017C061C05F3F44
:10135000ECF3983EDCF3869577956795B795F7950E
:10136000E7959F5FC1F7FE2B880F911D9695879596
:1013700097F9089599278827089597F99F6780E836
:1013800070E060E008959FEF80EC089500240A94D7
:101390001616170618060906089500240A94121650
:1013A0001306140605060895092E0394000C11F483
:1013B000882352F0BB0F40F4BF2B11F460FF04C030
:1013C0006F5F7F4F8F4F9F4F089557FD9058440F89
:1013D000551F59F05F3F71F04795880F97FB991F94
:1013E00061F09F3F79F08795089512161306140651
:1013F000551FF2CF4695F1DF08C0161617061806DE
:10140000991FF1CF86957105610508940895E894B8
:10141000BB2766277727CB0197F9089509D0A59FA9
:10142000900DB49F900DA49F800D911D11240895DF
:10143000A29FB001B39FC001A39F700D811D112415
:10144000911DB29F700D811D1124911D0895EE0F05
:10145000FF1F881F8BBF0790F691E02D199481E044
:1014600090E0F89410C0FB01DC018D91019080198F
:101470000110D9F3990B0895FB01DC0101900D9245
:0A1480000020E1F70895F894FFCF73
:10148A000000000012027301A1017802D201B0012A
:10149A00C4013C55543E002C007574004F4B0000AB
:00000001FF
